{
  "_format": "hh-sol-artifact-1",
  "contractName": "InfiniPict",
  "sourceName": "contracts/InfiniPict.sol",
  "abi": [
    {
      "inputs": [],
      "stateMutability": "nonpayable",
      "type": "constructor"
    },
    {
      "anonymous": false,
      "inputs": [
        {
          "indexed": true,
          "internalType": "address",
          "name": "account",
          "type": "address"
        },
        {
          "indexed": true,
          "internalType": "address",
          "name": "operator",
          "type": "address"
        },
        {
          "indexed": false,
          "internalType": "bool",
          "name": "approved",
          "type": "bool"
        }
      ],
      "name": "ApprovalForAll",
      "type": "event"
    },
    {
      "anonymous": false,
      "inputs": [
        {
          "indexed": true,
          "internalType": "address",
          "name": "previousOwner",
          "type": "address"
        },
        {
          "indexed": true,
          "internalType": "address",
          "name": "newOwner",
          "type": "address"
        }
      ],
      "name": "OwnershipTransferred",
      "type": "event"
    },
    {
      "anonymous": false,
      "inputs": [
        {
          "indexed": true,
          "internalType": "address",
          "name": "operator",
          "type": "address"
        },
        {
          "indexed": true,
          "internalType": "address",
          "name": "from",
          "type": "address"
        },
        {
          "indexed": true,
          "internalType": "address",
          "name": "to",
          "type": "address"
        },
        {
          "indexed": false,
          "internalType": "uint256[]",
          "name": "ids",
          "type": "uint256[]"
        },
        {
          "indexed": false,
          "internalType": "uint256[]",
          "name": "values",
          "type": "uint256[]"
        }
      ],
      "name": "TransferBatch",
      "type": "event"
    },
    {
      "anonymous": false,
      "inputs": [
        {
          "indexed": true,
          "internalType": "address",
          "name": "operator",
          "type": "address"
        },
        {
          "indexed": true,
          "internalType": "address",
          "name": "from",
          "type": "address"
        },
        {
          "indexed": true,
          "internalType": "address",
          "name": "to",
          "type": "address"
        },
        {
          "indexed": false,
          "internalType": "uint256",
          "name": "id",
          "type": "uint256"
        },
        {
          "indexed": false,
          "internalType": "uint256",
          "name": "value",
          "type": "uint256"
        }
      ],
      "name": "TransferSingle",
      "type": "event"
    },
    {
      "anonymous": false,
      "inputs": [
        {
          "indexed": false,
          "internalType": "string",
          "name": "value",
          "type": "string"
        },
        {
          "indexed": true,
          "internalType": "uint256",
          "name": "id",
          "type": "uint256"
        }
      ],
      "name": "URI",
      "type": "event"
    },
    {
      "inputs": [
        {
          "internalType": "address",
          "name": "account",
          "type": "address"
        },
        {
          "internalType": "uint256",
          "name": "id",
          "type": "uint256"
        }
      ],
      "name": "balanceOf",
      "outputs": [
        {
          "internalType": "uint256",
          "name": "",
          "type": "uint256"
        }
      ],
      "stateMutability": "view",
      "type": "function"
    },
    {
      "inputs": [
        {
          "internalType": "address[]",
          "name": "accounts",
          "type": "address[]"
        },
        {
          "internalType": "uint256[]",
          "name": "ids",
          "type": "uint256[]"
        }
      ],
      "name": "balanceOfBatch",
      "outputs": [
        {
          "internalType": "uint256[]",
          "name": "",
          "type": "uint256[]"
        }
      ],
      "stateMutability": "view",
      "type": "function"
    },
    {
      "inputs": [],
      "name": "contractURI",
      "outputs": [
        {
          "internalType": "string",
          "name": "",
          "type": "string"
        }
      ],
      "stateMutability": "view",
      "type": "function"
    },
    {
      "inputs": [
        {
          "internalType": "uint256",
          "name": "id",
          "type": "uint256"
        }
      ],
      "name": "exists",
      "outputs": [
        {
          "internalType": "bool",
          "name": "",
          "type": "bool"
        }
      ],
      "stateMutability": "view",
      "type": "function"
    },
    {
      "inputs": [
        {
          "internalType": "address",
          "name": "account",
          "type": "address"
        },
        {
          "internalType": "address",
          "name": "operator",
          "type": "address"
        }
      ],
      "name": "isApprovedForAll",
      "outputs": [
        {
          "internalType": "bool",
          "name": "",
          "type": "bool"
        }
      ],
      "stateMutability": "view",
      "type": "function"
    },
    {
      "inputs": [],
      "name": "mint",
      "outputs": [],
      "stateMutability": "nonpayable",
      "type": "function"
    },
    {
      "inputs": [],
      "name": "owner",
      "outputs": [
        {
          "internalType": "address",
          "name": "",
          "type": "address"
        }
      ],
      "stateMutability": "view",
      "type": "function"
    },
    {
      "inputs": [],
      "name": "renounceOwnership",
      "outputs": [],
      "stateMutability": "nonpayable",
      "type": "function"
    },
    {
      "inputs": [
        {
          "internalType": "address",
          "name": "from",
          "type": "address"
        },
        {
          "internalType": "address",
          "name": "to",
          "type": "address"
        },
        {
          "internalType": "uint256[]",
          "name": "ids",
          "type": "uint256[]"
        },
        {
          "internalType": "uint256[]",
          "name": "amounts",
          "type": "uint256[]"
        },
        {
          "internalType": "bytes",
          "name": "data",
          "type": "bytes"
        }
      ],
      "name": "safeBatchTransferFrom",
      "outputs": [],
      "stateMutability": "nonpayable",
      "type": "function"
    },
    {
      "inputs": [
        {
          "internalType": "address",
          "name": "from",
          "type": "address"
        },
        {
          "internalType": "address",
          "name": "to",
          "type": "address"
        },
        {
          "internalType": "uint256",
          "name": "id",
          "type": "uint256"
        },
        {
          "internalType": "uint256",
          "name": "amount",
          "type": "uint256"
        },
        {
          "internalType": "bytes",
          "name": "data",
          "type": "bytes"
        }
      ],
      "name": "safeTransferFrom",
      "outputs": [],
      "stateMutability": "nonpayable",
      "type": "function"
    },
    {
      "inputs": [
        {
          "internalType": "address",
          "name": "operator",
          "type": "address"
        },
        {
          "internalType": "bool",
          "name": "approved",
          "type": "bool"
        }
      ],
      "name": "setApprovalForAll",
      "outputs": [],
      "stateMutability": "nonpayable",
      "type": "function"
    },
    {
      "inputs": [
        {
          "internalType": "string",
          "name": "newuri",
          "type": "string"
        }
      ],
      "name": "setURI",
      "outputs": [],
      "stateMutability": "nonpayable",
      "type": "function"
    },
    {
      "inputs": [
        {
          "internalType": "bytes4",
          "name": "interfaceId",
          "type": "bytes4"
        }
      ],
      "name": "supportsInterface",
      "outputs": [
        {
          "internalType": "bool",
          "name": "",
          "type": "bool"
        }
      ],
      "stateMutability": "view",
      "type": "function"
    },
    {
      "inputs": [
        {
          "internalType": "uint256",
          "name": "id",
          "type": "uint256"
        }
      ],
      "name": "totalSupply",
      "outputs": [
        {
          "internalType": "uint256",
          "name": "",
          "type": "uint256"
        }
      ],
      "stateMutability": "view",
      "type": "function"
    },
    {
      "inputs": [
        {
          "internalType": "address",
          "name": "newOwner",
          "type": "address"
        }
      ],
      "name": "transferOwnership",
      "outputs": [],
      "stateMutability": "nonpayable",
      "type": "function"
    },
    {
      "inputs": [
        {
          "internalType": "uint256",
          "name": "tokenId",
          "type": "uint256"
        }
      ],
      "name": "uri",
      "outputs": [
        {
          "internalType": "string",
          "name": "",
          "type": "string"
        }
      ],
      "stateMutability": "view",
      "type": "function"
    }
  ],
  "bytecode": "0x60806040523480156200001157600080fd5b506040518060400160405280601d81526020017f68747470733a2f2f706963742e66692f6170692f6d657461646174612f00000081525062000059816200008060201b60201c565b506200007a6200006e6200009c60201b60201c565b620000a460201b60201c565b6200027f565b8060029080519060200190620000989291906200016a565b5050565b600033905090565b6000600360009054906101000a900473ffffffffffffffffffffffffffffffffffffffff16905081600360006101000a81548173ffffffffffffffffffffffffffffffffffffffff021916908373ffffffffffffffffffffffffffffffffffffffff1602179055508173ffffffffffffffffffffffffffffffffffffffff168173ffffffffffffffffffffffffffffffffffffffff167f8be0079c531659141344cd1fd0a4f28419497f9722a3daafe3b4186f6b6457e060405160405180910390a35050565b82805462000178906200021a565b90600052602060002090601f0160209004810192826200019c5760008555620001e8565b82601f10620001b757805160ff1916838001178555620001e8565b82800160010185558215620001e8579182015b82811115620001e7578251825591602001919060010190620001ca565b5b509050620001f79190620001fb565b5090565b5b8082111562000216576000816000905550600101620001fc565b5090565b600060028204905060018216806200023357607f821691505b602082108114156200024a576200024962000250565b5b50919050565b7f4e487b7100000000000000000000000000000000000000000000000000000000600052602260045260246000fd5b613d7c806200028f6000396000f3fe608060405234801561001057600080fd5b50600436106100ff5760003560e01c8063715018a611610097578063e8a3d48511610066578063e8a3d485146102aa578063e985e9c5146102c8578063f242432a146102f8578063f2fde38b14610314576100ff565b8063715018a6146102365780638da5cb5b14610240578063a22cb4651461025e578063bd85b0391461027a576100ff565b80631249c58b116100d35780631249c58b146101b05780632eb2c2d6146101ba5780634e1273f4146101d65780634f558e7914610206576100ff565b8062fdd58e1461010457806301ffc9a71461013457806302fe5305146101645780630e89341c14610180575b600080fd5b61011e600480360381019061011991906129dd565b610330565b60405161012b91906132d8565b60405180910390f35b61014e60048036038101906101499190612a85565b610488565b60405161015b91906130fb565b60405180910390f35b61017e60048036038101906101799190612ad7565b61056a565b005b61019a60048036038101906101959190612b18565b6105f2565b6040516101a79190613116565b60405180910390f35b6101b8610629565b005b6101d460048036038101906101cf9190612853565b6107fb565b005b6101f060048036038101906101eb9190612a19565b61089c565b6040516101fd91906130a2565b60405180910390f35b610220600480360381019061021b9190612b18565b610a4d565b60405161022d91906130fb565b60405180910390f35b61023e610a61565b005b610248610ae9565b6040516102559190612fc5565b60405180910390f35b610278600480360381019061027391906129a1565b610b13565b005b610294600480360381019061028f9190612b18565b610b29565b6040516102a191906132d8565b60405180910390f35b6102b2610b37565b6040516102bf9190613116565b60405180910390f35b6102e260048036038101906102dd9190612817565b610b5f565b6040516102ef91906130fb565b60405180910390f35b610312600480360381019061030d9190612912565b610bf3565b005b61032e600480360381019061032991906127ee565b610c94565b005b60008073ffffffffffffffffffffffffffffffffffffffff168373ffffffffffffffffffffffffffffffffffffffff1614156103a1576040517f08c379a000000000000000000000000000000000000000000000000000000000815260040161039890613178565b60405180910390fd5b8273ffffffffffffffffffffffffffffffffffffffff16821480156104155750600080600084815260200190815260200160002060008573ffffffffffffffffffffffffffffffffffffffff1673ffffffffffffffffffffffffffffffffffffffff16815260200190815260200160002054145b156104235760019050610482565b600260008084815260200190815260200160002060008573ffffffffffffffffffffffffffffffffffffffff1673ffffffffffffffffffffffffffffffffffffffff1681526020019081526020016000205461047f91906136f8565b90505b92915050565b60007fd9b67a26000000000000000000000000000000000000000000000000000000007bffffffffffffffffffffffffffffffffffffffffffffffffffffffff1916827bffffffffffffffffffffffffffffffffffffffffffffffffffffffff1916148061055357507f0e89341c000000000000000000000000000000000000000000000000000000007bffffffffffffffffffffffffffffffffffffffffffffffffffffffff1916827bffffffffffffffffffffffffffffffffffffffffffffffffffffffff1916145b80610563575061056282610d8c565b5b9050919050565b610572610df6565b73ffffffffffffffffffffffffffffffffffffffff16610590610ae9565b73ffffffffffffffffffffffffffffffffffffffff16146105e6576040517f08c379a00000000000000000000000000000000000000000000000000000000081526004016105dd90613238565b60405180910390fd5b6105ef81610dfe565b50565b606060026106028360001b610e18565b604051602001610613929190612f74565b6040516020818303038152906040529050919050565b600033905060008173ffffffffffffffffffffffffffffffffffffffff169050600073ffffffffffffffffffffffffffffffffffffffff168273ffffffffffffffffffffffffffffffffffffffff1614156106b9576040517f08c379a00000000000000000000000000000000000000000000000000000000081526004016106b0906131d8565b60405180910390fd5b600080600083815260200190815260200160002060008473ffffffffffffffffffffffffffffffffffffffff1673ffffffffffffffffffffffffffffffffffffffff1681526020019081526020016000205414156107f75760008082815260200190815260200160002060008373ffffffffffffffffffffffffffffffffffffffff1673ffffffffffffffffffffffffffffffffffffffff1681526020019081526020016000206000815480929190610771906136a5565b91905055508173ffffffffffffffffffffffffffffffffffffffff16600073ffffffffffffffffffffffffffffffffffffffff168373ffffffffffffffffffffffffffffffffffffffff167fc3d58168c5ae7397731d063d5bbf3d657854427343f4c083240f7aacaa2d0f628460016040516107ee9291906132f3565b60405180910390a45b5050565b610803610df6565b73ffffffffffffffffffffffffffffffffffffffff168573ffffffffffffffffffffffffffffffffffffffff161480610849575061084885610843610df6565b610b5f565b5b610888576040517f08c379a000000000000000000000000000000000000000000000000000000000815260040161087f906131f8565b60405180910390fd5b6108958585858585610e57565b5050505050565b606081518351146108e2576040517f08c379a00000000000000000000000000000000000000000000000000000000081526004016108d990613298565b60405180910390fd5b6000835167ffffffffffffffff811115610925577f4e487b7100000000000000000000000000000000000000000000000000000000600052604160045260246000fd5b6040519080825280602002602001820160405280156109535781602001602082028036833780820191505090505b50905060005b8451811015610a42576109ec85828151811061099e577f4e487b7100000000000000000000000000000000000000000000000000000000600052603260045260246000fd5b60200260200101518583815181106109df577f4e487b7100000000000000000000000000000000000000000000000000000000600052603260045260246000fd5b6020026020010151610330565b828281518110610a25577f4e487b7100000000000000000000000000000000000000000000000000000000600052603260045260246000fd5b60200260200101818152505080610a3b906136a5565b9050610959565b508091505092915050565b600080610a5983610b29565b119050919050565b610a69610df6565b73ffffffffffffffffffffffffffffffffffffffff16610a87610ae9565b73ffffffffffffffffffffffffffffffffffffffff1614610add576040517f08c379a0000000000000000000000000000000000000000000000000000000008152600401610ad490613238565b60405180910390fd5b610ae76000611437565b565b6000600360009054906101000a900473ffffffffffffffffffffffffffffffffffffffff16905090565b610b25610b1e610df6565b83836114fd565b5050565b600080915060019050919050565b60606002604051602001610b4b9190612fa3565b604051602081830303815290604052905090565b6000600160008473ffffffffffffffffffffffffffffffffffffffff1673ffffffffffffffffffffffffffffffffffffffff16815260200190815260200160002060008373ffffffffffffffffffffffffffffffffffffffff1673ffffffffffffffffffffffffffffffffffffffff16815260200190815260200160002060009054906101000a900460ff16905092915050565b610bfb610df6565b73ffffffffffffffffffffffffffffffffffffffff168573ffffffffffffffffffffffffffffffffffffffff161480610c415750610c4085610c3b610df6565b610b5f565b5b610c80576040517f08c379a0000000000000000000000000000000000000000000000000000000008152600401610c77906131b8565b60405180910390fd5b610c8d858585858561166a565b5050505050565b610c9c610df6565b73ffffffffffffffffffffffffffffffffffffffff16610cba610ae9565b73ffffffffffffffffffffffffffffffffffffffff1614610d10576040517f08c379a0000000000000000000000000000000000000000000000000000000008152600401610d0790613238565b60405180910390fd5b600073ffffffffffffffffffffffffffffffffffffffff168173ffffffffffffffffffffffffffffffffffffffff161415610d80576040517f08c379a0000000000000000000000000000000000000000000000000000000008152600401610d7790613198565b60405180910390fd5b610d8981611437565b50565b60007f01ffc9a7000000000000000000000000000000000000000000000000000000007bffffffffffffffffffffffffffffffffffffffffffffffffffffffff1916827bffffffffffffffffffffffffffffffffffffffffffffffffffffffff1916149050919050565b600033905090565b8060029080519060200190610e149291906124e6565b5050565b6060610e2382611b9f565b610e30608084901b611b9f565b604051602001610e41929190612f48565b6040516020818303038152906040529050919050565b8151835114610e9b576040517f08c379a0000000000000000000000000000000000000000000000000000000008152600401610e92906132b8565b60405180910390fd5b600073ffffffffffffffffffffffffffffffffffffffff168473ffffffffffffffffffffffffffffffffffffffff161415610f0b576040517f08c379a0000000000000000000000000000000000000000000000000000000008152600401610f02906131d8565b60405180910390fd5b6000610f15610df6565b9050610f25818787878787611dff565b60008573ffffffffffffffffffffffffffffffffffffffff16905060008773ffffffffffffffffffffffffffffffffffffffff169050600080600083815260200190815260200160002060008a73ffffffffffffffffffffffffffffffffffffffff1673ffffffffffffffffffffffffffffffffffffffff16815260200190815260200160002054141561109b57600160008083815260200190815260200160002060008a73ffffffffffffffffffffffffffffffffffffffff1673ffffffffffffffffffffffffffffffffffffffff1681526020019081526020016000206000828254611013919061348c565b925050819055508773ffffffffffffffffffffffffffffffffffffffff16600073ffffffffffffffffffffffffffffffffffffffff168473ffffffffffffffffffffffffffffffffffffffff167fc3d58168c5ae7397731d063d5bbf3d657854427343f4c083240f7aacaa2d0f628460016040516110929291906132f3565b60405180910390a45b600080600084815260200190815260200160002060008973ffffffffffffffffffffffffffffffffffffffff1673ffffffffffffffffffffffffffffffffffffffff1681526020019081526020016000205414156111db57600160008084815260200190815260200160002060008973ffffffffffffffffffffffffffffffffffffffff1673ffffffffffffffffffffffffffffffffffffffff1681526020019081526020016000206000828254611153919061348c565b925050819055508673ffffffffffffffffffffffffffffffffffffffff16600073ffffffffffffffffffffffffffffffffffffffff168473ffffffffffffffffffffffffffffffffffffffff167fc3d58168c5ae7397731d063d5bbf3d657854427343f4c083240f7aacaa2d0f628560016040516111d29291906132f3565b60405180910390a45b60005b86518110156113a0576000878281518110611222577f4e487b7100000000000000000000000000000000000000000000000000000000600052603260045260246000fd5b60200260200101519050600080600083815260200190815260200160002060008c73ffffffffffffffffffffffffffffffffffffffff1673ffffffffffffffffffffffffffffffffffffffff168152602001908152602001600020549050600160028261128f91906136f8565b146112cf576040517f08c379a00000000000000000000000000000000000000000000000000000000081526004016112c690613258565b60405180910390fd5b6001810160008084815260200190815260200160002060008d73ffffffffffffffffffffffffffffffffffffffff1673ffffffffffffffffffffffffffffffffffffffff16815260200190815260200160002081905550600160008084815260200190815260200160002060008c73ffffffffffffffffffffffffffffffffffffffff1673ffffffffffffffffffffffffffffffffffffffff1681526020019081526020016000206000828254611386919061348c565b92505081905550505080611399906136a5565b90506111de565b508673ffffffffffffffffffffffffffffffffffffffff168873ffffffffffffffffffffffffffffffffffffffff168473ffffffffffffffffffffffffffffffffffffffff167f4a39dc06d4c0dbc64b70af90fd698a233a518aa5d07e595d983b8c0526c8f7fb89896040516114179291906130c4565b60405180910390a461142d838989898989611e15565b5050505050505050565b6000600360009054906101000a900473ffffffffffffffffffffffffffffffffffffffff16905081600360006101000a81548173ffffffffffffffffffffffffffffffffffffffff021916908373ffffffffffffffffffffffffffffffffffffffff1602179055508173ffffffffffffffffffffffffffffffffffffffff168173ffffffffffffffffffffffffffffffffffffffff167f8be0079c531659141344cd1fd0a4f28419497f9722a3daafe3b4186f6b6457e060405160405180910390a35050565b8173ffffffffffffffffffffffffffffffffffffffff168373ffffffffffffffffffffffffffffffffffffffff16141561156c576040517f08c379a000000000000000000000000000000000000000000000000000000000815260040161156390613278565b60405180910390fd5b80600160008573ffffffffffffffffffffffffffffffffffffffff1673ffffffffffffffffffffffffffffffffffffffff16815260200190815260200160002060008473ffffffffffffffffffffffffffffffffffffffff1673ffffffffffffffffffffffffffffffffffffffff16815260200190815260200160002060006101000a81548160ff0219169083151502179055508173ffffffffffffffffffffffffffffffffffffffff168373ffffffffffffffffffffffffffffffffffffffff167f17307eab39ab6107e8899845ad3d59bd9653f200f220920489ca2b5937696c318360405161165d91906130fb565b60405180910390a3505050565b600073ffffffffffffffffffffffffffffffffffffffff168473ffffffffffffffffffffffffffffffffffffffff1614156116da576040517f08c379a00000000000000000000000000000000000000000000000000000000081526004016116d1906131d8565b60405180910390fd5b60006116e4610df6565b905060008573ffffffffffffffffffffffffffffffffffffffff169050600080600087815260200190815260200160002060008973ffffffffffffffffffffffffffffffffffffffff1673ffffffffffffffffffffffffffffffffffffffff16815260200190815260200160002054141561184157600160008087815260200190815260200160002060008973ffffffffffffffffffffffffffffffffffffffff1673ffffffffffffffffffffffffffffffffffffffff16815260200190815260200160002060008282546117b9919061348c565b925050819055508673ffffffffffffffffffffffffffffffffffffffff16600073ffffffffffffffffffffffffffffffffffffffff168373ffffffffffffffffffffffffffffffffffffffff167fc3d58168c5ae7397731d063d5bbf3d657854427343f4c083240f7aacaa2d0f628860016040516118389291906132f3565b60405180910390a45b600080600083815260200190815260200160002060008873ffffffffffffffffffffffffffffffffffffffff1673ffffffffffffffffffffffffffffffffffffffff16815260200190815260200160002054141561198157600160008083815260200190815260200160002060008873ffffffffffffffffffffffffffffffffffffffff1673ffffffffffffffffffffffffffffffffffffffff16815260200190815260200160002060008282546118f9919061348c565b925050819055508573ffffffffffffffffffffffffffffffffffffffff16600073ffffffffffffffffffffffffffffffffffffffff168373ffffffffffffffffffffffffffffffffffffffff167fc3d58168c5ae7397731d063d5bbf3d657854427343f4c083240f7aacaa2d0f628460016040516119789291906132f3565b60405180910390a45b61199f82888861199089611ffc565b61199989611ffc565b88611dff565b600080600087815260200190815260200160002060008973ffffffffffffffffffffffffffffffffffffffff1673ffffffffffffffffffffffffffffffffffffffff1681526020019081526020016000205490506001600282611a0291906136f8565b14611a42576040517f08c379a0000000000000000000000000000000000000000000000000000000008152600401611a3990613218565b60405180910390fd5b600160008088815260200190815260200160002060008a73ffffffffffffffffffffffffffffffffffffffff1673ffffffffffffffffffffffffffffffffffffffff16815260200190815260200160002060008282540192505081905550600160008088815260200190815260200160002060008973ffffffffffffffffffffffffffffffffffffffff1673ffffffffffffffffffffffffffffffffffffffff1681526020019081526020016000206000828254611b00919061348c565b925050819055508673ffffffffffffffffffffffffffffffffffffffff168873ffffffffffffffffffffffffffffffffffffffff168473ffffffffffffffffffffffffffffffffffffffff167fc3d58168c5ae7397731d063d5bbf3d657854427343f4c083240f7aacaa2d0f62896001604051611b7e9291906132f3565b60405180910390a4611b95838989896001896120c2565b5050505050505050565b6000604077ffffffffffffffff0000000000000000000000000000000060001b836fffffffffffffffffffffffffffffffff191616901c7fffffffffffffffff00000000000000000000000000000000000000000000000060001b836fffffffffffffffffffffffffffffffff19161617905060207bffffffff000000000000000000000000ffffffff000000000000000060001b8216901c7fffffffff000000000000000000000000ffffffff00000000000000000000000060001b821617905060107dffff000000000000ffff000000000000ffff000000000000ffff0000000060001b8216901c7fffff000000000000ffff000000000000ffff000000000000ffff00000000000060001b821617905060087eff000000ff000000ff000000ff000000ff000000ff000000ff000000ff000060001b8216901c7fff000000ff000000ff000000ff000000ff000000ff000000ff000000ff00000060001b821617905060087f0f000f000f000f000f000f000f000f000f000f000f000f000f000f000f000f0060001b8216901c60047ff000f000f000f000f000f000f000f000f000f000f000f000f000f000f000f00060001b8316901c17905060277f0f0f0f0f0f0f0f0f0f0f0f0f0f0f0f0f0f0f0f0f0f0f0f0f0f0f0f0f0f0f0f0f60047f06060606060606060606060606060606060606060606060606060606060606068460001c611daf919061348c565b901c16611dbc91906134e2565b8160001c7f3030303030303030303030303030303030303030303030303030303030303030611deb919061348c565b611df5919061348c565b60001b9050919050565b611e0d8686868686866122a9565b505050505050565b611e348473ffffffffffffffffffffffffffffffffffffffff166124bb565b15611ff4578373ffffffffffffffffffffffffffffffffffffffff1663bc197c8187878686866040518663ffffffff1660e01b8152600401611e7a959493929190612fe0565b602060405180830381600087803b158015611e9457600080fd5b505af1925050508015611ec557506040513d601f19601f82011682018060405250810190611ec29190612aae565b60015b611f6b57611ed16137e5565b806308c379a01415611f2e5750611ee6613c54565b80611ef15750611f30565b806040517f08c379a0000000000000000000000000000000000000000000000000000000008152600401611f259190613116565b60405180910390fd5b505b6040517f08c379a0000000000000000000000000000000000000000000000000000000008152600401611f6290613138565b60405180910390fd5b63bc197c8160e01b7bffffffffffffffffffffffffffffffffffffffffffffffffffffffff1916817bffffffffffffffffffffffffffffffffffffffffffffffffffffffff191614611ff2576040517f08c379a0000000000000000000000000000000000000000000000000000000008152600401611fe990613158565b60405180910390fd5b505b505050505050565b60606000600167ffffffffffffffff811115612041577f4e487b7100000000000000000000000000000000000000000000000000000000600052604160045260246000fd5b60405190808252806020026020018201604052801561206f5781602001602082028036833780820191505090505b50905082816000815181106120ad577f4e487b7100000000000000000000000000000000000000000000000000000000600052603260045260246000fd5b60200260200101818152505080915050919050565b6120e18473ffffffffffffffffffffffffffffffffffffffff166124bb565b156122a1578373ffffffffffffffffffffffffffffffffffffffff1663f23a6e6187878686866040518663ffffffff1660e01b8152600401612127959493929190613048565b602060405180830381600087803b15801561214157600080fd5b505af192505050801561217257506040513d601f19601f8201168201806040525081019061216f9190612aae565b60015b6122185761217e6137e5565b806308c379a014156121db5750612193613c54565b8061219e57506121dd565b806040517f08c379a00000000000000000000000000000000000000000000000000000000081526004016121d29190613116565b60405180910390fd5b505b6040517f08c379a000000000000000000000000000000000000000000000000000000000815260040161220f90613138565b60405180910390fd5b63f23a6e6160e01b7bffffffffffffffffffffffffffffffffffffffffffffffffffffffff1916817bffffffffffffffffffffffffffffffffffffffffffffffffffffffff19161461229f576040517f08c379a000000000000000000000000000000000000000000000000000000000815260040161229690613158565b60405180910390fd5b505b505050505050565b6122b78686868686866124de565b600073ffffffffffffffffffffffffffffffffffffffff168573ffffffffffffffffffffffffffffffffffffffff1614156123b55760005b83518110156123b357828181518110612331577f4e487b7100000000000000000000000000000000000000000000000000000000600052603260045260246000fd5b602002602001015160046000868481518110612376577f4e487b7100000000000000000000000000000000000000000000000000000000600052603260045260246000fd5b60200260200101518152602001908152602001600020600082825461239b919061348c565b92505081905550806123ac906136a5565b90506122ef565b505b600073ffffffffffffffffffffffffffffffffffffffff168473ffffffffffffffffffffffffffffffffffffffff1614156124b35760005b83518110156124b15782818151811061242f577f4e487b7100000000000000000000000000000000000000000000000000000000600052603260045260246000fd5b602002602001015160046000868481518110612474577f4e487b7100000000000000000000000000000000000000000000000000000000600052603260045260246000fd5b602002602001015181526020019081526020016000206000828254612499919061353c565b92505081905550806124aa906136a5565b90506123ed565b505b505050505050565b6000808273ffffffffffffffffffffffffffffffffffffffff163b119050919050565b505050505050565b8280546124f290613642565b90600052602060002090601f016020900481019282612514576000855561255b565b82601f1061252d57805160ff191683800117855561255b565b8280016001018555821561255b579182015b8281111561255a57825182559160200191906001019061253f565b5b509050612568919061256c565b5090565b5b8082111561258557600081600090555060010161256d565b5090565b600061259c61259784613341565b61331c565b905080838252602082019050828560208602820111156125bb57600080fd5b60005b858110156125eb57816125d188826126dd565b8452602084019350602083019250506001810190506125be565b5050509392505050565b60006126086126038461336d565b61331c565b9050808382526020820190508285602086028201111561262757600080fd5b60005b85811015612657578161263d88826127d9565b84526020840193506020830192505060018101905061262a565b5050509392505050565b600061267461266f84613399565b61331c565b90508281526020810184848401111561268c57600080fd5b612697848285613600565b509392505050565b60006126b26126ad846133ca565b61331c565b9050828152602081018484840111156126ca57600080fd5b6126d5848285613600565b509392505050565b6000813590506126ec81613cea565b92915050565b600082601f83011261270357600080fd5b8135612713848260208601612589565b91505092915050565b600082601f83011261272d57600080fd5b813561273d8482602086016125f5565b91505092915050565b60008135905061275581613d01565b92915050565b60008135905061276a81613d18565b92915050565b60008151905061277f81613d18565b92915050565b600082601f83011261279657600080fd5b81356127a6848260208601612661565b91505092915050565b600082601f8301126127c057600080fd5b81356127d084826020860161269f565b91505092915050565b6000813590506127e881613d2f565b92915050565b60006020828403121561280057600080fd5b600061280e848285016126dd565b91505092915050565b6000806040838503121561282a57600080fd5b6000612838858286016126dd565b9250506020612849858286016126dd565b9150509250929050565b600080600080600060a0868803121561286b57600080fd5b6000612879888289016126dd565b955050602061288a888289016126dd565b945050604086013567ffffffffffffffff8111156128a757600080fd5b6128b38882890161271c565b935050606086013567ffffffffffffffff8111156128d057600080fd5b6128dc8882890161271c565b925050608086013567ffffffffffffffff8111156128f957600080fd5b61290588828901612785565b9150509295509295909350565b600080600080600060a0868803121561292a57600080fd5b6000612938888289016126dd565b9550506020612949888289016126dd565b945050604061295a888289016127d9565b935050606061296b888289016127d9565b925050608086013567ffffffffffffffff81111561298857600080fd5b61299488828901612785565b9150509295509295909350565b600080604083850312156129b457600080fd5b60006129c2858286016126dd565b92505060206129d385828601612746565b9150509250929050565b600080604083850312156129f057600080fd5b60006129fe858286016126dd565b9250506020612a0f858286016127d9565b9150509250929050565b60008060408385031215612a2c57600080fd5b600083013567ffffffffffffffff811115612a4657600080fd5b612a52858286016126f2565b925050602083013567ffffffffffffffff811115612a6f57600080fd5b612a7b8582860161271c565b9150509250929050565b600060208284031215612a9757600080fd5b6000612aa58482850161275b565b91505092915050565b600060208284031215612ac057600080fd5b6000612ace84828501612770565b91505092915050565b600060208284031215612ae957600080fd5b600082013567ffffffffffffffff811115612b0357600080fd5b612b0f848285016127af565b91505092915050565b600060208284031215612b2a57600080fd5b6000612b38848285016127d9565b91505092915050565b6000612b4d8383612f2a565b60208301905092915050565b612b6281613570565b82525050565b6000612b7382613420565b612b7d818561344e565b9350612b88836133fb565b8060005b83811015612bb9578151612ba08882612b41565b9750612bab83613441565b925050600181019050612b8c565b5085935050505092915050565b612bcf81613582565b82525050565b612be6612be18261358e565b6136ee565b82525050565b6000612bf78261342b565b612c01818561345f565b9350612c1181856020860161360f565b612c1a81613807565b840191505092915050565b612c2e816135ee565b82525050565b6000612c3f82613436565b612c498185613470565b9350612c5981856020860161360f565b612c6281613807565b840191505092915050565b6000612c7882613436565b612c828185613481565b9350612c9281856020860161360f565b80840191505092915050565b60008154612cab81613642565b612cb58186613481565b94506001821660008114612cd05760018114612ce157612d14565b60ff19831686528186019350612d14565b612cea8561340b565b60005b83811015612d0c57815481890152600182019150602081019050612ced565b838801955050505b50505092915050565b6000612d2a603483613470565b9150612d3582613825565b604082019050919050565b6000612d4d602883613470565b9150612d5882613874565b604082019050919050565b6000612d70600d83613481565b9150612d7b826138c3565b600d82019050919050565b6000612d93602b83613470565b9150612d9e826138ec565b604082019050919050565b6000612db6602683613470565b9150612dc18261393b565b604082019050919050565b6000612dd9602983613470565b9150612de48261398a565b604082019050919050565b6000612dfc602583613470565b9150612e07826139d9565b604082019050919050565b6000612e1f603283613470565b9150612e2a82613a28565b604082019050919050565b6000612e42602a83613470565b9150612e4d82613a77565b604082019050919050565b6000612e65600583613481565b9150612e7082613ac6565b600582019050919050565b6000612e88602083613470565b9150612e9382613aef565b602082019050919050565b6000612eab603083613470565b9150612eb682613b18565b604082019050919050565b6000612ece602983613470565b9150612ed982613b67565b604082019050919050565b6000612ef1602983613470565b9150612efc82613bb6565b604082019050919050565b6000612f14602883613470565b9150612f1f82613c05565b604082019050919050565b612f33816135e4565b82525050565b612f42816135e4565b82525050565b6000612f548285612bd5565b602082019150612f648284612bd5565b6020820191508190509392505050565b6000612f808285612c9e565b9150612f8c8284612c6d565b9150612f9782612e58565b91508190509392505050565b6000612faf8284612c9e565b9150612fba82612d63565b915081905092915050565b6000602082019050612fda6000830184612b59565b92915050565b600060a082019050612ff56000830188612b59565b6130026020830187612b59565b81810360408301526130148186612b68565b905081810360608301526130288185612b68565b9050818103608083015261303c8184612bec565b90509695505050505050565b600060a08201905061305d6000830188612b59565b61306a6020830187612b59565b6130776040830186612f39565b6130846060830185612f39565b81810360808301526130968184612bec565b90509695505050505050565b600060208201905081810360008301526130bc8184612b68565b905092915050565b600060408201905081810360008301526130de8185612b68565b905081810360208301526130f28184612b68565b90509392505050565b60006020820190506131106000830184612bc6565b92915050565b600060208201905081810360008301526131308184612c34565b905092915050565b6000602082019050818103600083015261315181612d1d565b9050919050565b6000602082019050818103600083015261317181612d40565b9050919050565b6000602082019050818103600083015261319181612d86565b9050919050565b600060208201905081810360008301526131b181612da9565b9050919050565b600060208201905081810360008301526131d181612dcc565b9050919050565b600060208201905081810360008301526131f181612def565b9050919050565b6000602082019050818103600083015261321181612e12565b9050919050565b6000602082019050818103600083015261323181612e35565b9050919050565b6000602082019050818103600083015261325181612e7b565b9050919050565b6000602082019050818103600083015261327181612e9e565b9050919050565b6000602082019050818103600083015261329181612ec1565b9050919050565b600060208201905081810360008301526132b181612ee4565b9050919050565b600060208201905081810360008301526132d181612f07565b9050919050565b60006020820190506132ed6000830184612f39565b92915050565b60006040820190506133086000830185612f39565b6133156020830184612c25565b9392505050565b6000613326613337565b90506133328282613674565b919050565b6000604051905090565b600067ffffffffffffffff82111561335c5761335b6137b6565b5b602082029050602081019050919050565b600067ffffffffffffffff821115613388576133876137b6565b5b602082029050602081019050919050565b600067ffffffffffffffff8211156133b4576133b36137b6565b5b6133bd82613807565b9050602081019050919050565b600067ffffffffffffffff8211156133e5576133e46137b6565b5b6133ee82613807565b9050602081019050919050565b6000819050602082019050919050565b60008190508160005260206000209050919050565b600081519050919050565b600081519050919050565b600081519050919050565b6000602082019050919050565b600082825260208201905092915050565b600082825260208201905092915050565b600082825260208201905092915050565b600081905092915050565b6000613497826135e4565b91506134a2836135e4565b9250827fffffffffffffffffffffffffffffffffffffffffffffffffffffffffffffffff038211156134d7576134d6613729565b5b828201905092915050565b60006134ed826135e4565b91506134f8836135e4565b9250817fffffffffffffffffffffffffffffffffffffffffffffffffffffffffffffffff048311821515161561353157613530613729565b5b828202905092915050565b6000613547826135e4565b9150613552836135e4565b92508282101561356557613564613729565b5b828203905092915050565b600061357b826135c4565b9050919050565b60008115159050919050565b6000819050919050565b60007fffffffff0000000000000000000000000000000000000000000000000000000082169050919050565b600073ffffffffffffffffffffffffffffffffffffffff82169050919050565b6000819050919050565b60006135f9826135e4565b9050919050565b82818337600083830152505050565b60005b8381101561362d578082015181840152602081019050613612565b8381111561363c576000848401525b50505050565b6000600282049050600182168061365a57607f821691505b6020821081141561366e5761366d613787565b5b50919050565b61367d82613807565b810181811067ffffffffffffffff8211171561369c5761369b6137b6565b5b80604052505050565b60006136b0826135e4565b91507fffffffffffffffffffffffffffffffffffffffffffffffffffffffffffffffff8214156136e3576136e2613729565b5b600182019050919050565b6000819050919050565b6000613703826135e4565b915061370e836135e4565b92508261371e5761371d613758565b5b828206905092915050565b7f4e487b7100000000000000000000000000000000000000000000000000000000600052601160045260246000fd5b7f4e487b7100000000000000000000000000000000000000000000000000000000600052601260045260246000fd5b7f4e487b7100000000000000000000000000000000000000000000000000000000600052602260045260246000fd5b7f4e487b7100000000000000000000000000000000000000000000000000000000600052604160045260246000fd5b600060033d11156138045760046000803e613801600051613818565b90505b90565b6000601f19601f8301169050919050565b60008160e01c9050919050565b7f455243313135353a207472616e7366657220746f206e6f6e204552433131353560008201527f526563656976657220696d706c656d656e746572000000000000000000000000602082015250565b7f455243313135353a204552433131353552656365697665722072656a6563746560008201527f6420746f6b656e73000000000000000000000000000000000000000000000000602082015250565b7f636f6e74726163742e6a736f6e00000000000000000000000000000000000000600082015250565b7f455243313135353a2062616c616e636520717565727920666f7220746865207a60008201527f65726f2061646472657373000000000000000000000000000000000000000000602082015250565b7f4f776e61626c653a206e6577206f776e657220697320746865207a65726f206160008201527f6464726573730000000000000000000000000000000000000000000000000000602082015250565b7f455243313135353a2063616c6c6572206973206e6f74206f776e6572206e6f7260008201527f20617070726f7665640000000000000000000000000000000000000000000000602082015250565b7f455243313135353a207472616e7366657220746f20746865207a65726f20616460008201527f6472657373000000000000000000000000000000000000000000000000000000602082015250565b7f455243313135353a207472616e736665722063616c6c6572206973206e6f742060008201527f6f776e6572206e6f7220617070726f7665640000000000000000000000000000602082015250565b7f455243313135353a20696e73756666696369656e742062616c616e636520666f60008201527f72207472616e7366657200000000000000000000000000000000000000000000602082015250565b7f2e6a736f6e000000000000000000000000000000000000000000000000000000600082015250565b7f4f776e61626c653a2063616c6c6572206973206e6f7420746865206f776e6572600082015250565b7f455243313135353a20696e73756666696369656e742062616c616e636520666f60008201527f72207472616e7366657220626174636800000000000000000000000000000000602082015250565b7f455243313135353a2073657474696e6720617070726f76616c2073746174757360008201527f20666f722073656c660000000000000000000000000000000000000000000000602082015250565b7f455243313135353a206163636f756e747320616e6420696473206c656e67746860008201527f206d69736d617463680000000000000000000000000000000000000000000000602082015250565b7f455243313135353a2069647320616e6420616d6f756e7473206c656e6774682060008201527f6d69736d61746368000000000000000000000000000000000000000000000000602082015250565b600060443d1015613c6457613ce7565b613c6c613337565b60043d036004823e80513d602482011167ffffffffffffffff82111715613c94575050613ce7565b808201805167ffffffffffffffff811115613cb25750505050613ce7565b80602083010160043d038501811115613ccf575050505050613ce7565b613cde82602001850186613674565b82955050505050505b90565b613cf381613570565b8114613cfe57600080fd5b50565b613d0a81613582565b8114613d1557600080fd5b50565b613d2181613598565b8114613d2c57600080fd5b50565b613d38816135e4565b8114613d4357600080fd5b5056fea2646970667358221220c37898a1ff69070961bdd686481887ed45fdbfbfbbd9b34aed7d1a11ef2682df64736f6c63430008040033",
  "linkReferences": {},
  "deployedLinkReferences": {}
}