{
  "_format": "hh-sol-artifact-1",
  "contractName": "Orthoverse",
  "sourceName": "contracts/Orthoverse.sol",
  "abi": [
    {
      "inputs": [
        {
          "internalType": "string",
          "name": "uri_",
          "type": "string"
        }
      ],
      "stateMutability": "nonpayable",
      "type": "constructor"
    },
    {
      "anonymous": false,
      "inputs": [
        {
          "indexed": true,
          "internalType": "address",
          "name": "account",
          "type": "address"
        },
        {
          "indexed": true,
          "internalType": "address",
          "name": "operator",
          "type": "address"
        },
        {
          "indexed": false,
          "internalType": "bool",
          "name": "approved",
          "type": "bool"
        }
      ],
      "name": "ApprovalForAll",
      "type": "event"
    },
    {
      "anonymous": false,
      "inputs": [
        {
          "indexed": true,
          "internalType": "address",
          "name": "previousOwner",
          "type": "address"
        },
        {
          "indexed": true,
          "internalType": "address",
          "name": "newOwner",
          "type": "address"
        }
      ],
      "name": "OwnershipTransferred",
      "type": "event"
    },
    {
      "anonymous": false,
      "inputs": [
        {
          "indexed": true,
          "internalType": "address",
          "name": "operator",
          "type": "address"
        },
        {
          "indexed": true,
          "internalType": "address",
          "name": "from",
          "type": "address"
        },
        {
          "indexed": true,
          "internalType": "address",
          "name": "to",
          "type": "address"
        },
        {
          "indexed": false,
          "internalType": "uint256[]",
          "name": "ids",
          "type": "uint256[]"
        },
        {
          "indexed": false,
          "internalType": "uint256[]",
          "name": "values",
          "type": "uint256[]"
        }
      ],
      "name": "TransferBatch",
      "type": "event"
    },
    {
      "anonymous": false,
      "inputs": [
        {
          "indexed": true,
          "internalType": "address",
          "name": "operator",
          "type": "address"
        },
        {
          "indexed": true,
          "internalType": "address",
          "name": "from",
          "type": "address"
        },
        {
          "indexed": true,
          "internalType": "address",
          "name": "to",
          "type": "address"
        },
        {
          "indexed": false,
          "internalType": "uint256",
          "name": "id",
          "type": "uint256"
        },
        {
          "indexed": false,
          "internalType": "uint256",
          "name": "value",
          "type": "uint256"
        }
      ],
      "name": "TransferSingle",
      "type": "event"
    },
    {
      "anonymous": false,
      "inputs": [
        {
          "indexed": false,
          "internalType": "string",
          "name": "value",
          "type": "string"
        },
        {
          "indexed": true,
          "internalType": "uint256",
          "name": "id",
          "type": "uint256"
        }
      ],
      "name": "URI",
      "type": "event"
    },
    {
      "inputs": [],
      "name": "CASTLE_BASE_PRICE",
      "outputs": [
        {
          "internalType": "uint256",
          "name": "",
          "type": "uint256"
        }
      ],
      "stateMutability": "view",
      "type": "function"
    },
    {
      "inputs": [],
      "name": "FLIP_REALM_PRICE",
      "outputs": [
        {
          "internalType": "uint256",
          "name": "",
          "type": "uint256"
        }
      ],
      "stateMutability": "view",
      "type": "function"
    },
    {
      "inputs": [],
      "name": "REVEAL_PRICE",
      "outputs": [
        {
          "internalType": "uint256",
          "name": "",
          "type": "uint256"
        }
      ],
      "stateMutability": "view",
      "type": "function"
    },
    {
      "inputs": [
        {
          "internalType": "address",
          "name": "account",
          "type": "address"
        },
        {
          "internalType": "uint256",
          "name": "id",
          "type": "uint256"
        }
      ],
      "name": "balanceOf",
      "outputs": [
        {
          "internalType": "uint256",
          "name": "",
          "type": "uint256"
        }
      ],
      "stateMutability": "view",
      "type": "function"
    },
    {
      "inputs": [
        {
          "internalType": "address[]",
          "name": "accounts",
          "type": "address[]"
        },
        {
          "internalType": "uint256[]",
          "name": "ids",
          "type": "uint256[]"
        }
      ],
      "name": "balanceOfBatch",
      "outputs": [
        {
          "internalType": "uint256[]",
          "name": "",
          "type": "uint256[]"
        }
      ],
      "stateMutability": "view",
      "type": "function"
    },
    {
      "inputs": [
        {
          "internalType": "uint256",
          "name": "tokenId_",
          "type": "uint256"
        }
      ],
      "name": "castleLevel",
      "outputs": [
        {
          "internalType": "uint256",
          "name": "",
          "type": "uint256"
        }
      ],
      "stateMutability": "view",
      "type": "function"
    },
    {
      "inputs": [
        {
          "internalType": "uint256",
          "name": "tokenId_",
          "type": "uint256"
        }
      ],
      "name": "castlePrice",
      "outputs": [
        {
          "internalType": "uint256",
          "name": "",
          "type": "uint256"
        }
      ],
      "stateMutability": "view",
      "type": "function"
    },
    {
      "inputs": [],
      "name": "contractURI",
      "outputs": [
        {
          "internalType": "string",
          "name": "",
          "type": "string"
        }
      ],
      "stateMutability": "view",
      "type": "function"
    },
    {
      "inputs": [
        {
          "internalType": "uint256",
          "name": "id",
          "type": "uint256"
        }
      ],
      "name": "exists",
      "outputs": [
        {
          "internalType": "bool",
          "name": "",
          "type": "bool"
        }
      ],
      "stateMutability": "view",
      "type": "function"
    },
    {
      "inputs": [
        {
          "internalType": "uint256",
          "name": "tokenId_",
          "type": "uint256"
        }
      ],
      "name": "flipRealm",
      "outputs": [],
      "stateMutability": "payable",
      "type": "function"
    },
    {
      "inputs": [
        {
          "internalType": "address",
          "name": "account",
          "type": "address"
        }
      ],
      "name": "gift",
      "outputs": [],
      "stateMutability": "payable",
      "type": "function"
    },
    {
      "inputs": [
        {
          "internalType": "address",
          "name": "account",
          "type": "address"
        },
        {
          "internalType": "address",
          "name": "operator",
          "type": "address"
        }
      ],
      "name": "isApprovedForAll",
      "outputs": [
        {
          "internalType": "bool",
          "name": "",
          "type": "bool"
        }
      ],
      "stateMutability": "view",
      "type": "function"
    },
    {
      "inputs": [],
      "name": "isRevealed",
      "outputs": [
        {
          "internalType": "uint256",
          "name": "",
          "type": "uint256"
        }
      ],
      "stateMutability": "view",
      "type": "function"
    },
    {
      "inputs": [],
      "name": "name",
      "outputs": [
        {
          "internalType": "string",
          "name": "",
          "type": "string"
        }
      ],
      "stateMutability": "pure",
      "type": "function"
    },
    {
      "inputs": [],
      "name": "owner",
      "outputs": [
        {
          "internalType": "address",
          "name": "",
          "type": "address"
        }
      ],
      "stateMutability": "view",
      "type": "function"
    },
    {
      "inputs": [],
      "name": "renounceOwnership",
      "outputs": [],
      "stateMutability": "nonpayable",
      "type": "function"
    },
    {
      "inputs": [],
      "name": "reveal",
      "outputs": [],
      "stateMutability": "payable",
      "type": "function"
    },
    {
      "inputs": [
        {
          "internalType": "address",
          "name": "from",
          "type": "address"
        },
        {
          "internalType": "address",
          "name": "to",
          "type": "address"
        },
        {
          "internalType": "uint256[]",
          "name": "ids",
          "type": "uint256[]"
        },
        {
          "internalType": "uint256[]",
          "name": "amounts",
          "type": "uint256[]"
        },
        {
          "internalType": "bytes",
          "name": "data",
          "type": "bytes"
        }
      ],
      "name": "safeBatchTransferFrom",
      "outputs": [],
      "stateMutability": "nonpayable",
      "type": "function"
    },
    {
      "inputs": [
        {
          "internalType": "address",
          "name": "from",
          "type": "address"
        },
        {
          "internalType": "address",
          "name": "to",
          "type": "address"
        },
        {
          "internalType": "uint256",
          "name": "id",
          "type": "uint256"
        },
        {
          "internalType": "uint256",
          "name": "amount",
          "type": "uint256"
        },
        {
          "internalType": "bytes",
          "name": "data",
          "type": "bytes"
        }
      ],
      "name": "safeTransferFrom",
      "outputs": [],
      "stateMutability": "nonpayable",
      "type": "function"
    },
    {
      "inputs": [
        {
          "internalType": "address",
          "name": "operator",
          "type": "address"
        },
        {
          "internalType": "bool",
          "name": "approved",
          "type": "bool"
        }
      ],
      "name": "setApprovalForAll",
      "outputs": [],
      "stateMutability": "nonpayable",
      "type": "function"
    },
    {
      "inputs": [
        {
          "internalType": "string",
          "name": "newURI_",
          "type": "string"
        }
      ],
      "name": "setURI",
      "outputs": [],
      "stateMutability": "nonpayable",
      "type": "function"
    },
    {
      "inputs": [
        {
          "internalType": "bytes4",
          "name": "interfaceId",
          "type": "bytes4"
        }
      ],
      "name": "supportsInterface",
      "outputs": [
        {
          "internalType": "bool",
          "name": "",
          "type": "bool"
        }
      ],
      "stateMutability": "view",
      "type": "function"
    },
    {
      "inputs": [],
      "name": "symbol",
      "outputs": [
        {
          "internalType": "string",
          "name": "",
          "type": "string"
        }
      ],
      "stateMutability": "pure",
      "type": "function"
    },
    {
      "inputs": [
        {
          "internalType": "uint256",
          "name": "",
          "type": "uint256"
        }
      ],
      "name": "tokenCastleLevel",
      "outputs": [
        {
          "internalType": "uint256",
          "name": "",
          "type": "uint256"
        }
      ],
      "stateMutability": "view",
      "type": "function"
    },
    {
      "inputs": [
        {
          "internalType": "uint256",
          "name": "id",
          "type": "uint256"
        }
      ],
      "name": "totalSupply",
      "outputs": [
        {
          "internalType": "uint256",
          "name": "",
          "type": "uint256"
        }
      ],
      "stateMutability": "view",
      "type": "function"
    },
    {
      "inputs": [
        {
          "internalType": "address",
          "name": "newOwner",
          "type": "address"
        }
      ],
      "name": "transferOwnership",
      "outputs": [],
      "stateMutability": "nonpayable",
      "type": "function"
    },
    {
      "inputs": [
        {
          "internalType": "address",
          "name": "account_",
          "type": "address"
        }
      ],
      "name": "upgradeCastleLevel",
      "outputs": [],
      "stateMutability": "payable",
      "type": "function"
    },
    {
      "inputs": [
        {
          "internalType": "uint256",
          "name": "tokenId",
          "type": "uint256"
        }
      ],
      "name": "uri",
      "outputs": [
        {
          "internalType": "string",
          "name": "",
          "type": "string"
        }
      ],
      "stateMutability": "view",
      "type": "function"
    },
    {
      "inputs": [],
      "name": "w0",
      "outputs": [
        {
          "internalType": "address",
          "name": "",
          "type": "address"
        }
      ],
      "stateMutability": "view",
      "type": "function"
    },
    {
      "inputs": [],
      "name": "w1",
      "outputs": [
        {
          "internalType": "address",
          "name": "",
          "type": "address"
        }
      ],
      "stateMutability": "view",
      "type": "function"
    },
    {
      "inputs": [],
      "name": "withdraw",
      "outputs": [],
      "stateMutability": "nonpayable",
      "type": "function"
    }
  ],
  "bytecode": "0x60806040523480156200001157600080fd5b50604051620056c0380380620056c083398181016040528101906200003791906200027d565b8062000049816200007160201b60201c565b506200006a6200005e6200008d60201b60201c565b6200009560201b60201c565b5062000432565b8060039080519060200190620000899291906200015b565b5050565b600033905090565b6000600460009054906101000a900473ffffffffffffffffffffffffffffffffffffffff16905081600460006101000a81548173ffffffffffffffffffffffffffffffffffffffff021916908373ffffffffffffffffffffffffffffffffffffffff1602179055508173ffffffffffffffffffffffffffffffffffffffff168173ffffffffffffffffffffffffffffffffffffffff167f8be0079c531659141344cd1fd0a4f28419497f9722a3daafe3b4186f6b6457e060405160405180910390a35050565b828054620001699062000357565b90600052602060002090601f0160209004810192826200018d5760008555620001d9565b82601f10620001a857805160ff1916838001178555620001d9565b82800160010185558215620001d9579182015b82811115620001d8578251825591602001919060010190620001bb565b5b509050620001e89190620001ec565b5090565b5b8082111562000207576000816000905550600101620001ed565b5090565b6000620002226200021c84620002eb565b620002c2565b9050828152602081018484840111156200023b57600080fd5b6200024884828562000321565b509392505050565b600082601f8301126200026257600080fd5b8151620002748482602086016200020b565b91505092915050565b6000602082840312156200029057600080fd5b600082015167ffffffffffffffff811115620002ab57600080fd5b620002b98482850162000250565b91505092915050565b6000620002ce620002e1565b9050620002dc82826200038d565b919050565b6000604051905090565b600067ffffffffffffffff821115620003095762000308620003f2565b5b620003148262000421565b9050602081019050919050565b60005b838110156200034157808201518184015260208101905062000324565b8381111562000351576000848401525b50505050565b600060028204905060018216806200037057607f821691505b60208210811415620003875762000386620003c3565b5b50919050565b620003988262000421565b810181811067ffffffffffffffff82111715620003ba57620003b9620003f2565b5b80604052505050565b7f4e487b7100000000000000000000000000000000000000000000000000000000600052602260045260246000fd5b7f4e487b7100000000000000000000000000000000000000000000000000000000600052604160045260246000fd5b6000601f19601f8301169050919050565b61527e80620004426000396000f3fe6080604052600436106101d75760003560e01c8063715018a611610102578063bd85b03911610095578063e8a3d48511610064578063e8a3d4851461068b578063e985e9c5146106b6578063f242432a146106f3578063f2fde38b1461071c576101d7565b8063bd85b039146105d9578063c08db79d14610616578063c53b23f214610653578063cbfc4bce1461066f576101d7565b80638da5cb5b116100d15780638da5cb5b1461055057806395d89b411461057b578063a22cb465146105a6578063a475b5dd146105cf576101d7565b8063715018a6146104a6578063756495ca146104bd5780637744adc2146104fa5780637e44755b14610525576101d7565b80633a1457771161017a57806354214f691161014957806354214f69146103f7578063548edcee146104225780635fcf37e91461043e57806362aaeaac1461047b576101d7565b80633a1457771461033b5780633ccfd60b146103665780634e1273f41461037d5780634f558e79146103ba576101d7565b806306fdde03116101b657806306fdde031461027f5780630e89341c146102aa57806329ba8f9c146102e75780632eb2c2d614610312576101d7565b8062fdd58e146101dc57806301ffc9a71461021957806302fe530514610256575b600080fd5b3480156101e857600080fd5b5061020360048036038101906101fe919061379d565b610745565b60405161021091906143a9565b60405180910390f35b34801561022557600080fd5b50610240600480360381019061023b9190613845565b61089d565b60405161024d919061406c565b60405180910390f35b34801561026257600080fd5b5061027d60048036038101906102789190613897565b61097f565b005b34801561028b57600080fd5b50610294610a07565b6040516102a19190614087565b60405180910390f35b3480156102b657600080fd5b506102d160048036038101906102cc91906138d8565b610a44565b6040516102de9190614087565b60405180910390f35b3480156102f357600080fd5b506102fc610a95565b60405161030991906143a9565b60405180910390f35b34801561031e57600080fd5b5061033960048036038101906103349190613613565b610aa0565b005b34801561034757600080fd5b50610350610b41565b60405161035d91906143a9565b60405180910390f35b34801561037257600080fd5b5061037b610b4c565b005b34801561038957600080fd5b506103a4600480360381019061039f91906137d9565b610bf1565b6040516103b19190614013565b60405180910390f35b3480156103c657600080fd5b506103e160048036038101906103dc91906138d8565b610da2565b6040516103ee919061406c565b60405180910390f35b34801561040357600080fd5b5061040c610db0565b60405161041991906143a9565b60405180910390f35b61043c600480360381019061043791906138d8565b610e28565b005b34801561044a57600080fd5b50610465600480360381019061046091906138d8565b61102c565b60405161047291906143a9565b60405180910390f35b34801561048757600080fd5b50610490611073565b60405161049d9190613f36565b60405180910390f35b3480156104b257600080fd5b506104bb61108b565b005b3480156104c957600080fd5b506104e460048036038101906104df91906138d8565b611113565b6040516104f191906143a9565b60405180910390f35b34801561050657600080fd5b5061050f61112b565b60405161051c91906143a9565b60405180910390f35b34801561053157600080fd5b5061053a611136565b6040516105479190613f36565b60405180910390f35b34801561055c57600080fd5b5061056561114e565b6040516105729190613f36565b60405180910390f35b34801561058757600080fd5b50610590611178565b60405161059d9190614087565b60405180910390f35b3480156105b257600080fd5b506105cd60048036038101906105c89190613761565b6111b5565b005b6105d76111cb565b005b3480156105e557600080fd5b5061060060048036038101906105fb91906138d8565b6113ad565b60405161060d91906143a9565b60405180910390f35b34801561062257600080fd5b5061063d600480360381019061063891906138d8565b6113bb565b60405161064a91906143a9565b60405180910390f35b61066d600480360381019061066891906135ae565b6113d8565b005b610689600480360381019061068491906135ae565b6115ec565b005b34801561069757600080fd5b506106a061183f565b6040516106ad9190614087565b60405180910390f35b3480156106c257600080fd5b506106dd60048036038101906106d891906135d7565b611867565b6040516106ea919061406c565b60405180910390f35b3480156106ff57600080fd5b5061071a600480360381019061071591906136d2565b6118fb565b005b34801561072857600080fd5b50610743600480360381019061073e91906135ae565b61199c565b005b60008073ffffffffffffffffffffffffffffffffffffffff168373ffffffffffffffffffffffffffffffffffffffff1614156107b6576040517f08c379a00000000000000000000000000000000000000000000000000000000081526004016107ad90614149565b60405180910390fd5b8273ffffffffffffffffffffffffffffffffffffffff168214801561082a5750600080600084815260200190815260200160002060008573ffffffffffffffffffffffffffffffffffffffff1673ffffffffffffffffffffffffffffffffffffffff16815260200190815260200160002054145b156108385760019050610897565b600260008084815260200190815260200160002060008573ffffffffffffffffffffffffffffffffffffffff1673ffffffffffffffffffffffffffffffffffffffff16815260200190815260200160002054610894919061498c565b90505b92915050565b60007fd9b67a26000000000000000000000000000000000000000000000000000000007bffffffffffffffffffffffffffffffffffffffffffffffffffffffff1916827bffffffffffffffffffffffffffffffffffffffffffffffffffffffff1916148061096857507f0e89341c000000000000000000000000000000000000000000000000000000007bffffffffffffffffffffffffffffffffffffffffffffffffffffffff1916827bffffffffffffffffffffffffffffffffffffffffffffffffffffffff1916145b80610978575061097782611a94565b5b9050919050565b610987611afe565b73ffffffffffffffffffffffffffffffffffffffff166109a561114e565b73ffffffffffffffffffffffffffffffffffffffff16146109fb576040517f08c379a00000000000000000000000000000000000000000000000000000000081526004016109f2906142c9565b60405180910390fd5b610a0481611b06565b50565b60606040518060400160405280600a81526020017f4f7274686f766572736500000000000000000000000000000000000000000000815250905090565b60606003610a5183611b20565b610a6d6002600086815260200190815260200160002054611ba6565b604051602001610a7f93929190613eb8565b6040516020818303038152906040529050919050565b66016bcc41e9000081565b610aa8611afe565b73ffffffffffffffffffffffffffffffffffffffff168573ffffffffffffffffffffffffffffffffffffffff161480610aee5750610aed85610ae8611afe565b611867565b5b610b2d576040517f08c379a0000000000000000000000000000000000000000000000000000000008152600401610b2490614249565b60405180910390fd5b610b3a8585858585611d53565b5050505050565b66016bcc41e9000081565b600047905060008111610b94576040517f08c379a0000000000000000000000000000000000000000000000000000000008152600401610b8b906141c9565b60405180910390fd5b6000600a600583610ba59190614760565b610baf91906145be565b9050610bcf732830b5a3b5242bc2c64c390594ed971e7ded47d2826121d7565b610bed732d6dcb0fc05989041769cd8f5d3a5bf2c9e1a72f826121d7565b5050565b60608151835114610c37576040517f08c379a0000000000000000000000000000000000000000000000000000000008152600401610c2e90614349565b60405180910390fd5b6000835167ffffffffffffffff811115610c7a577f4e487b7100000000000000000000000000000000000000000000000000000000600052604160045260246000fd5b604051908082528060200260200182016040528015610ca85781602001602082028036833780820191505090505b50905060005b8451811015610d9757610d41858281518110610cf3577f4e487b7100000000000000000000000000000000000000000000000000000000600052603260045260246000fd5b6020026020010151858381518110610d34577f4e487b7100000000000000000000000000000000000000000000000000000000600052603260045260246000fd5b6020026020010151610745565b828281518110610d7a577f4e487b7100000000000000000000000000000000000000000000000000000000600052603260045260246000fd5b60200260200101818152505080610d9090614943565b9050610cae565b508091505092915050565b600080915060019050919050565b60008033905060008173ffffffffffffffffffffffffffffffffffffffff16905060008082815260200190815260200160002060008373ffffffffffffffffffffffffffffffffffffffff1673ffffffffffffffffffffffffffffffffffffffff168152602001908152602001600020549250505090565b600160008083815260200190815260200160002060003373ffffffffffffffffffffffffffffffffffffffff1673ffffffffffffffffffffffffffffffffffffffff1681526020019081526020016000205414610eba576040517f08c379a0000000000000000000000000000000000000000000000000000000008152600401610eb190614189565b60405180910390fd5b732830b5a3b5242bc2c64c390594ed971e7ded47d273ffffffffffffffffffffffffffffffffffffffff163373ffffffffffffffffffffffffffffffffffffffff16141580610f495750732d6dcb0fc05989041769cd8f5d3a5bf2c9e1a72f73ffffffffffffffffffffffffffffffffffffffff163373ffffffffffffffffffffffffffffffffffffffff1614155b15610f995766038d7ea4c68000341015610f98576040517f08c379a0000000000000000000000000000000000000000000000000000000008152600401610f8f906142a9565b60405180910390fd5b5b600760026000838152602001908152602001600020541115610ff15760086002600083815260200190815260200160002054610fd591906147ba565b6002600083815260200190815260200160002081905550611029565b600860026000838152602001908152602001600020546110119190614568565b60026000838152602001908152602001600020819055505b50565b60006008600260008481526020019081526020016000205461104e919061498c565b600261105a9190614642565b66016bcc41e9000061106c9190614760565b9050919050565b732830b5a3b5242bc2c64c390594ed971e7ded47d281565b611093611afe565b73ffffffffffffffffffffffffffffffffffffffff166110b161114e565b73ffffffffffffffffffffffffffffffffffffffff1614611107576040517f08c379a00000000000000000000000000000000000000000000000000000000081526004016110fe906142c9565b60405180910390fd5b61111160006122cb565b565b60026020528060005260406000206000915090505481565b66038d7ea4c6800081565b732d6dcb0fc05989041769cd8f5d3a5bf2c9e1a72f81565b6000600460009054906101000a900473ffffffffffffffffffffffffffffffffffffffff16905090565b60606040518060400160405280600481526020017f4f52544800000000000000000000000000000000000000000000000000000000815250905090565b6111c76111c0611afe565b8383612391565b5050565b66016bcc41e90000341015611215576040517f08c379a000000000000000000000000000000000000000000000000000000000815260040161120c90614129565b60405180910390fd5b600033905060008173ffffffffffffffffffffffffffffffffffffffff169050600080600083815260200190815260200160002060008473ffffffffffffffffffffffffffffffffffffffff1673ffffffffffffffffffffffffffffffffffffffff16815260200190815260200160002054146112c7576040517f08c379a00000000000000000000000000000000000000000000000000000000081526004016112be90614389565b60405180910390fd5b600160008083815260200190815260200160002060008473ffffffffffffffffffffffffffffffffffffffff1673ffffffffffffffffffffffffffffffffffffffff168152602001908152602001600020819055506000611326611afe565b90508273ffffffffffffffffffffffffffffffffffffffff16600073ffffffffffffffffffffffffffffffffffffffff168273ffffffffffffffffffffffffffffffffffffffff167fc3d58168c5ae7397731d063d5bbf3d657854427343f4c083240f7aacaa2d0f628560016040516113a09291906143c4565b60405180910390a4505050565b600080915060019050919050565b600060026000838152602001908152602001600020549050919050565b600073ffffffffffffffffffffffffffffffffffffffff168173ffffffffffffffffffffffffffffffffffffffff161415611448576040517f08c379a000000000000000000000000000000000000000000000000000000000815260040161143f90614109565b60405180910390fd5b60008173ffffffffffffffffffffffffffffffffffffffff1690506007600260008381526020019081526020016000205414806114985750600f6002600083815260200190815260200160002054145b156114df5760006114de576040517f08c379a00000000000000000000000000000000000000000000000000000000081526004016114d590614309565b60405180910390fd5b5b732830b5a3b5242bc2c64c390594ed971e7ded47d273ffffffffffffffffffffffffffffffffffffffff163373ffffffffffffffffffffffffffffffffffffffff1614158061156e5750732d6dcb0fc05989041769cd8f5d3a5bf2c9e1a72f73ffffffffffffffffffffffffffffffffffffffff163373ffffffffffffffffffffffffffffffffffffffff1614155b156115bf5761157c8161102c565b3410156115be576040517f08c379a00000000000000000000000000000000000000000000000000000000081526004016115b5906142a9565b60405180910390fd5b5b6002600082815260200190815260200160002060008154809291906115e390614943565b91905055505050565b600073ffffffffffffffffffffffffffffffffffffffff168173ffffffffffffffffffffffffffffffffffffffff16141561165c576040517f08c379a000000000000000000000000000000000000000000000000000000000815260040161165390614289565b60405180910390fd5b66016bcc41e900003410156116a6576040517f08c379a000000000000000000000000000000000000000000000000000000000815260040161169d90614129565b60405180910390fd5b600081905060008173ffffffffffffffffffffffffffffffffffffffff169050600080600083815260200190815260200160002060008473ffffffffffffffffffffffffffffffffffffffff1673ffffffffffffffffffffffffffffffffffffffff1681526020019081526020016000205414611758576040517f08c379a000000000000000000000000000000000000000000000000000000000815260040161174f90614389565b60405180910390fd5b600160008083815260200190815260200160002060008473ffffffffffffffffffffffffffffffffffffffff1673ffffffffffffffffffffffffffffffffffffffff1681526020019081526020016000208190555060006117b7611afe565b90508273ffffffffffffffffffffffffffffffffffffffff16600073ffffffffffffffffffffffffffffffffffffffff168273ffffffffffffffffffffffffffffffffffffffff167fc3d58168c5ae7397731d063d5bbf3d657854427343f4c083240f7aacaa2d0f628560016040516118319291906143c4565b60405180910390a450505050565b606060036040516020016118539190613eff565b604051602081830303815290604052905090565b6000600160008473ffffffffffffffffffffffffffffffffffffffff1673ffffffffffffffffffffffffffffffffffffffff16815260200190815260200160002060008373ffffffffffffffffffffffffffffffffffffffff1673ffffffffffffffffffffffffffffffffffffffff16815260200190815260200160002060009054906101000a900460ff16905092915050565b611903611afe565b73ffffffffffffffffffffffffffffffffffffffff168573ffffffffffffffffffffffffffffffffffffffff161480611949575061194885611943611afe565b611867565b5b611988576040517f08c379a000000000000000000000000000000000000000000000000000000000815260040161197f906141a9565b60405180910390fd5b61199585858585856124fe565b5050505050565b6119a4611afe565b73ffffffffffffffffffffffffffffffffffffffff166119c261114e565b73ffffffffffffffffffffffffffffffffffffffff1614611a18576040517f08c379a0000000000000000000000000000000000000000000000000000000008152600401611a0f906142c9565b60405180910390fd5b600073ffffffffffffffffffffffffffffffffffffffff168173ffffffffffffffffffffffffffffffffffffffff161415611a88576040517f08c379a0000000000000000000000000000000000000000000000000000000008152600401611a7f90614169565b60405180910390fd5b611a91816122cb565b50565b60007f01ffc9a7000000000000000000000000000000000000000000000000000000007bffffffffffffffffffffffffffffffffffffffffffffffffffffffff1916827bffffffffffffffffffffffffffffffffffffffffffffffffffffffff1916149050919050565b600033905090565b8060039080519060200190611b1c9291906132a6565b5050565b60606000821415611b68576040518060400160405280600481526020017f30783030000000000000000000000000000000000000000000000000000000008152509050611ba1565b600082905060005b60008214611b92578080611b8390614943565b915050600882901c9150611b70565b611b9c84826128c5565b925050505b919050565b60606000821415611bee576040518060400160405280600181526020017f30000000000000000000000000000000000000000000000000000000000000008152509050611d4e565b600082905060005b60008214611c20578080611c0990614943565b915050600a82611c1991906145be565b9150611bf6565b60008167ffffffffffffffff811115611c62577f4e487b7100000000000000000000000000000000000000000000000000000000600052604160045260246000fd5b6040519080825280601f01601f191660200182016040528015611c945781602001600182028036833780820191505090505b5090505b60008514611d4757600182611cad91906147ba565b9150600a85611cbc919061498c565b6030611cc89190614568565b60f81b818381518110611d04577f4e487b7100000000000000000000000000000000000000000000000000000000600052603260045260246000fd5b60200101907effffffffffffffffffffffffffffffffffffffffffffffffffffffffffffff1916908160001a905350600a85611d4091906145be565b9450611c98565b8093505050505b919050565b8151835114611d97576040517f08c379a0000000000000000000000000000000000000000000000000000000008152600401611d8e90614369565b60405180910390fd5b600073ffffffffffffffffffffffffffffffffffffffff168473ffffffffffffffffffffffffffffffffffffffff161415611e07576040517f08c379a0000000000000000000000000000000000000000000000000000000008152600401611dfe90614229565b60405180910390fd5b6000611e11611afe565b9050611e21818787878787612bbf565b60008673ffffffffffffffffffffffffffffffffffffffff169050600080600083815260200190815260200160002060008973ffffffffffffffffffffffffffffffffffffffff1673ffffffffffffffffffffffffffffffffffffffff168152602001908152602001600020541415611f7c57600160008083815260200190815260200160002060008973ffffffffffffffffffffffffffffffffffffffff1673ffffffffffffffffffffffffffffffffffffffff1681526020019081526020016000206000828254611ef49190614568565b925050819055508673ffffffffffffffffffffffffffffffffffffffff16600073ffffffffffffffffffffffffffffffffffffffff168373ffffffffffffffffffffffffffffffffffffffff167fc3d58168c5ae7397731d063d5bbf3d657854427343f4c083240f7aacaa2d0f62846001604051611f739291906143c4565b60405180910390a45b60005b8551811015612141576000868281518110611fc3577f4e487b7100000000000000000000000000000000000000000000000000000000600052603260045260246000fd5b60200260200101519050600080600083815260200190815260200160002060008b73ffffffffffffffffffffffffffffffffffffffff1673ffffffffffffffffffffffffffffffffffffffff1681526020019081526020016000205490506001600282612030919061498c565b14612070576040517f08c379a0000000000000000000000000000000000000000000000000000000008152600401612067906142e9565b60405180910390fd5b6001810160008084815260200190815260200160002060008c73ffffffffffffffffffffffffffffffffffffffff1673ffffffffffffffffffffffffffffffffffffffff16815260200190815260200160002081905550600160008084815260200190815260200160002060008b73ffffffffffffffffffffffffffffffffffffffff1673ffffffffffffffffffffffffffffffffffffffff16815260200190815260200160002060008282546121279190614568565b9250508190555050508061213a90614943565b9050611f7f565b508573ffffffffffffffffffffffffffffffffffffffff168773ffffffffffffffffffffffffffffffffffffffff168373ffffffffffffffffffffffffffffffffffffffff167f4a39dc06d4c0dbc64b70af90fd698a233a518aa5d07e595d983b8c0526c8f7fb88886040516121b8929190614035565b60405180910390a46121ce828888888888612bd5565b50505050505050565b8047101561221a576040517f08c379a000000000000000000000000000000000000000000000000000000000815260040161221190614209565b60405180910390fd5b60008273ffffffffffffffffffffffffffffffffffffffff168260405161224090613f21565b60006040518083038185875af1925050503d806000811461227d576040519150601f19603f3d011682016040523d82523d6000602084013e612282565b606091505b50509050806122c6576040517f08c379a00000000000000000000000000000000000000000000000000000000081526004016122bd906141e9565b60405180910390fd5b505050565b6000600460009054906101000a900473ffffffffffffffffffffffffffffffffffffffff16905081600460006101000a81548173ffffffffffffffffffffffffffffffffffffffff021916908373ffffffffffffffffffffffffffffffffffffffff1602179055508173ffffffffffffffffffffffffffffffffffffffff168173ffffffffffffffffffffffffffffffffffffffff167f8be0079c531659141344cd1fd0a4f28419497f9722a3daafe3b4186f6b6457e060405160405180910390a35050565b8173ffffffffffffffffffffffffffffffffffffffff168373ffffffffffffffffffffffffffffffffffffffff161415612400576040517f08c379a00000000000000000000000000000000000000000000000000000000081526004016123f790614329565b60405180910390fd5b80600160008573ffffffffffffffffffffffffffffffffffffffff1673ffffffffffffffffffffffffffffffffffffffff16815260200190815260200160002060008473ffffffffffffffffffffffffffffffffffffffff1673ffffffffffffffffffffffffffffffffffffffff16815260200190815260200160002060006101000a81548160ff0219169083151502179055508173ffffffffffffffffffffffffffffffffffffffff168373ffffffffffffffffffffffffffffffffffffffff167f17307eab39ab6107e8899845ad3d59bd9653f200f220920489ca2b5937696c31836040516124f1919061406c565b60405180910390a3505050565b600073ffffffffffffffffffffffffffffffffffffffff168473ffffffffffffffffffffffffffffffffffffffff16141561256e576040517f08c379a000000000000000000000000000000000000000000000000000000000815260040161256590614229565b60405180910390fd5b6000612578611afe565b9050600080600086815260200190815260200160002060008873ffffffffffffffffffffffffffffffffffffffff1673ffffffffffffffffffffffffffffffffffffffff1681526020019081526020016000205414156126a857600160008086815260200190815260200160002060008873ffffffffffffffffffffffffffffffffffffffff1673ffffffffffffffffffffffffffffffffffffffff168152602001908152602001600020819055508573ffffffffffffffffffffffffffffffffffffffff16600073ffffffffffffffffffffffffffffffffffffffff168273ffffffffffffffffffffffffffffffffffffffff167fc3d58168c5ae7397731d063d5bbf3d657854427343f4c083240f7aacaa2d0f6287600160405161269f9291906143c4565b60405180910390a45b6126c68187876126b788612dbc565b6126c088612dbc565b87612bbf565b600080600086815260200190815260200160002060008873ffffffffffffffffffffffffffffffffffffffff1673ffffffffffffffffffffffffffffffffffffffff1681526020019081526020016000205490506001600282612729919061498c565b14612769576040517f08c379a000000000000000000000000000000000000000000000000000000000815260040161276090614269565b60405180910390fd5b600160008087815260200190815260200160002060008973ffffffffffffffffffffffffffffffffffffffff1673ffffffffffffffffffffffffffffffffffffffff16815260200190815260200160002060008282540192505081905550600160008087815260200190815260200160002060008873ffffffffffffffffffffffffffffffffffffffff1673ffffffffffffffffffffffffffffffffffffffff16815260200190815260200160002060008282546128279190614568565b925050819055508573ffffffffffffffffffffffffffffffffffffffff168773ffffffffffffffffffffffffffffffffffffffff168373ffffffffffffffffffffffffffffffffffffffff167fc3d58168c5ae7397731d063d5bbf3d657854427343f4c083240f7aacaa2d0f628860016040516128a59291906143c4565b60405180910390a46128bc82888888600188612e82565b50505050505050565b6060600060028360026128d89190614760565b6128e29190614568565b67ffffffffffffffff811115612921577f4e487b7100000000000000000000000000000000000000000000000000000000600052604160045260246000fd5b6040519080825280601f01601f1916602001820160405280156129535781602001600182028036833780820191505090505b5090507f3000000000000000000000000000000000000000000000000000000000000000816000815181106129b1577f4e487b7100000000000000000000000000000000000000000000000000000000600052603260045260246000fd5b60200101907effffffffffffffffffffffffffffffffffffffffffffffffffffffffffffff1916908160001a9053507f780000000000000000000000000000000000000000000000000000000000000081600181518110612a3b577f4e487b7100000000000000000000000000000000000000000000000000000000600052603260045260246000fd5b60200101907effffffffffffffffffffffffffffffffffffffffffffffffffffffffffffff1916908160001a90535060006001846002612a7b9190614760565b612a859190614568565b90505b6001811115612b71577f3031323334353637383961626364656600000000000000000000000000000000600f861660108110612aed577f4e487b7100000000000000000000000000000000000000000000000000000000600052603260045260246000fd5b1a60f81b828281518110612b2a577f4e487b7100000000000000000000000000000000000000000000000000000000600052603260045260246000fd5b60200101907effffffffffffffffffffffffffffffffffffffffffffffffffffffffffffff1916908160001a905350600485901c945080612b6a906148b6565b9050612a88565b5060008414612bb5576040517f08c379a0000000000000000000000000000000000000000000000000000000008152600401612bac906140c9565b60405180910390fd5b8091505092915050565b612bcd868686868686613069565b505050505050565b612bf48473ffffffffffffffffffffffffffffffffffffffff1661327b565b15612db4578373ffffffffffffffffffffffffffffffffffffffff1663bc197c8187878686866040518663ffffffff1660e01b8152600401612c3a959493929190613f51565b602060405180830381600087803b158015612c5457600080fd5b505af1925050508015612c8557506040513d601f19601f82011682018060405250810190612c82919061386e565b60015b612d2b57612c91614a79565b806308c379a01415612cee5750612ca6615156565b80612cb15750612cf0565b806040517f08c379a0000000000000000000000000000000000000000000000000000000008152600401612ce59190614087565b60405180910390fd5b505b6040517f08c379a0000000000000000000000000000000000000000000000000000000008152600401612d22906140a9565b60405180910390fd5b63bc197c8160e01b7bffffffffffffffffffffffffffffffffffffffffffffffffffffffff1916817bffffffffffffffffffffffffffffffffffffffffffffffffffffffff191614612db2576040517f08c379a0000000000000000000000000000000000000000000000000000000008152600401612da9906140e9565b60405180910390fd5b505b505050505050565b60606000600167ffffffffffffffff811115612e01577f4e487b7100000000000000000000000000000000000000000000000000000000600052604160045260246000fd5b604051908082528060200260200182016040528015612e2f5781602001602082028036833780820191505090505b5090508281600081518110612e6d577f4e487b7100000000000000000000000000000000000000000000000000000000600052603260045260246000fd5b60200260200101818152505080915050919050565b612ea18473ffffffffffffffffffffffffffffffffffffffff1661327b565b15613061578373ffffffffffffffffffffffffffffffffffffffff1663f23a6e6187878686866040518663ffffffff1660e01b8152600401612ee7959493929190613fb9565b602060405180830381600087803b158015612f0157600080fd5b505af1925050508015612f3257506040513d601f19601f82011682018060405250810190612f2f919061386e565b60015b612fd857612f3e614a79565b806308c379a01415612f9b5750612f53615156565b80612f5e5750612f9d565b806040517f08c379a0000000000000000000000000000000000000000000000000000000008152600401612f929190614087565b60405180910390fd5b505b6040517f08c379a0000000000000000000000000000000000000000000000000000000008152600401612fcf906140a9565b60405180910390fd5b63f23a6e6160e01b7bffffffffffffffffffffffffffffffffffffffffffffffffffffffff1916817bffffffffffffffffffffffffffffffffffffffffffffffffffffffff19161461305f576040517f08c379a0000000000000000000000000000000000000000000000000000000008152600401613056906140e9565b60405180910390fd5b505b505050505050565b61307786868686868661329e565b600073ffffffffffffffffffffffffffffffffffffffff168573ffffffffffffffffffffffffffffffffffffffff1614156131755760005b8351811015613173578281815181106130f1577f4e487b7100000000000000000000000000000000000000000000000000000000600052603260045260246000fd5b602002602001015160056000868481518110613136577f4e487b7100000000000000000000000000000000000000000000000000000000600052603260045260246000fd5b60200260200101518152602001908152602001600020600082825461315b9190614568565b925050819055508061316c90614943565b90506130af565b505b600073ffffffffffffffffffffffffffffffffffffffff168473ffffffffffffffffffffffffffffffffffffffff1614156132735760005b8351811015613271578281815181106131ef577f4e487b7100000000000000000000000000000000000000000000000000000000600052603260045260246000fd5b602002602001015160056000868481518110613234577f4e487b7100000000000000000000000000000000000000000000000000000000600052603260045260246000fd5b60200260200101518152602001908152602001600020600082825461325991906147ba565b925050819055508061326a90614943565b90506131ad565b505b505050505050565b6000808273ffffffffffffffffffffffffffffffffffffffff163b119050919050565b505050505050565b8280546132b2906148e0565b90600052602060002090601f0160209004810192826132d4576000855561331b565b82601f106132ed57805160ff191683800117855561331b565b8280016001018555821561331b579182015b8281111561331a5782518255916020019190600101906132ff565b5b509050613328919061332c565b5090565b5b8082111561334557600081600090555060010161332d565b5090565b600061335c61335784614412565b6143ed565b9050808382526020820190508285602086028201111561337b57600080fd5b60005b858110156133ab5781613391888261349d565b84526020840193506020830192505060018101905061337e565b5050509392505050565b60006133c86133c38461443e565b6143ed565b905080838252602082019050828560208602820111156133e757600080fd5b60005b8581101561341757816133fd8882613599565b8452602084019350602083019250506001810190506133ea565b5050509392505050565b600061343461342f8461446a565b6143ed565b90508281526020810184848401111561344c57600080fd5b613457848285614874565b509392505050565b600061347261346d8461449b565b6143ed565b90508281526020810184848401111561348a57600080fd5b613495848285614874565b509392505050565b6000813590506134ac816151ec565b92915050565b600082601f8301126134c357600080fd5b81356134d3848260208601613349565b91505092915050565b600082601f8301126134ed57600080fd5b81356134fd8482602086016133b5565b91505092915050565b60008135905061351581615203565b92915050565b60008135905061352a8161521a565b92915050565b60008151905061353f8161521a565b92915050565b600082601f83011261355657600080fd5b8135613566848260208601613421565b91505092915050565b600082601f83011261358057600080fd5b813561359084826020860161345f565b91505092915050565b6000813590506135a881615231565b92915050565b6000602082840312156135c057600080fd5b60006135ce8482850161349d565b91505092915050565b600080604083850312156135ea57600080fd5b60006135f88582860161349d565b92505060206136098582860161349d565b9150509250929050565b600080600080600060a0868803121561362b57600080fd5b60006136398882890161349d565b955050602061364a8882890161349d565b945050604086013567ffffffffffffffff81111561366757600080fd5b613673888289016134dc565b935050606086013567ffffffffffffffff81111561369057600080fd5b61369c888289016134dc565b925050608086013567ffffffffffffffff8111156136b957600080fd5b6136c588828901613545565b9150509295509295909350565b600080600080600060a086880312156136ea57600080fd5b60006136f88882890161349d565b95505060206137098882890161349d565b945050604061371a88828901613599565b935050606061372b88828901613599565b925050608086013567ffffffffffffffff81111561374857600080fd5b61375488828901613545565b9150509295509295909350565b6000806040838503121561377457600080fd5b60006137828582860161349d565b925050602061379385828601613506565b9150509250929050565b600080604083850312156137b057600080fd5b60006137be8582860161349d565b92505060206137cf85828601613599565b9150509250929050565b600080604083850312156137ec57600080fd5b600083013567ffffffffffffffff81111561380657600080fd5b613812858286016134b2565b925050602083013567ffffffffffffffff81111561382f57600080fd5b61383b858286016134dc565b9150509250929050565b60006020828403121561385757600080fd5b60006138658482850161351b565b91505092915050565b60006020828403121561388057600080fd5b600061388e84828501613530565b91505092915050565b6000602082840312156138a957600080fd5b600082013567ffffffffffffffff8111156138c357600080fd5b6138cf8482850161356f565b91505092915050565b6000602082840312156138ea57600080fd5b60006138f884828501613599565b91505092915050565b600061390d8383613e9a565b60208301905092915050565b613922816147ee565b82525050565b6000613933826144f1565b61393d818561451f565b9350613948836144cc565b8060005b838110156139795781516139608882613901565b975061396b83614512565b92505060018101905061394c565b5085935050505092915050565b61398f81614800565b82525050565b60006139a0826144fc565b6139aa8185614530565b93506139ba818560208601614883565b6139c381614a9b565b840191505092915050565b6139d781614862565b82525050565b60006139e882614507565b6139f2818561454c565b9350613a02818560208601614883565b613a0b81614a9b565b840191505092915050565b6000613a2182614507565b613a2b818561455d565b9350613a3b818560208601614883565b80840191505092915050565b60008154613a54816148e0565b613a5e818661455d565b94506001821660008114613a795760018114613a8a57613abd565b60ff19831686528186019350613abd565b613a93856144dc565b60005b83811015613ab557815481890152600182019150602081019050613a96565b838801955050505b50505092915050565b6000613ad360348361454c565b9150613ade82614ac6565b604082019050919050565b6000613af660208361454c565b9150613b0182614b15565b602082019050919050565b6000613b1960288361454c565b9150613b2482614b3e565b604082019050919050565b6000613b3c601e8361454c565b9150613b4782614b8d565b602082019050919050565b6000613b5f60168361454c565b9150613b6a82614bb6565b602082019050919050565b6000613b82600d8361455d565b9150613b8d82614bdf565b600d82019050919050565b6000613ba5602b8361454c565b9150613bb082614c08565b604082019050919050565b6000613bc860268361454c565b9150613bd382614c57565b604082019050919050565b6000613beb60318361454c565b9150613bf682614ca6565b604082019050919050565b6000613c0e60298361454c565b9150613c1982614cf5565b604082019050919050565b6000613c3160148361454c565b9150613c3c82614d44565b602082019050919050565b6000613c54603a8361454c565b9150613c5f82614d6d565b604082019050919050565b6000613c77601d8361454c565b9150613c8282614dbc565b602082019050919050565b6000613c9a60258361454c565b9150613ca582614de5565b604082019050919050565b6000613cbd60328361454c565b9150613cc882614e34565b604082019050919050565b6000613ce0602a8361454c565b9150613ceb82614e83565b604082019050919050565b6000613d0360258361454c565b9150613d0e82614ed2565b604082019050919050565b6000613d26600e8361454c565b9150613d3182614f21565b602082019050919050565b6000613d4960058361455d565b9150613d5482614f4a565b600582019050919050565b6000613d6c60208361454c565b9150613d7782614f73565b602082019050919050565b6000613d8f60308361454c565b9150613d9a82614f9c565b604082019050919050565b6000613db2600083614541565b9150613dbd82614feb565b600082019050919050565b6000613dd560018361455d565b9150613de082614fee565b600182019050919050565b6000613df8601e8361454c565b9150613e0382615017565b602082019050919050565b6000613e1b60298361454c565b9150613e2682615040565b604082019050919050565b6000613e3e60298361454c565b9150613e498261508f565b604082019050919050565b6000613e6160288361454c565b9150613e6c826150de565b604082019050919050565b6000613e8460148361454c565b9150613e8f8261512d565b602082019050919050565b613ea381614858565b82525050565b613eb281614858565b82525050565b6000613ec48286613a47565b9150613ed08285613a16565b9150613edb82613dc8565b9150613ee78284613a16565b9150613ef282613d3c565b9150819050949350505050565b6000613f0b8284613a47565b9150613f1682613b75565b915081905092915050565b6000613f2c82613da5565b9150819050919050565b6000602082019050613f4b6000830184613919565b92915050565b600060a082019050613f666000830188613919565b613f736020830187613919565b8181036040830152613f858186613928565b90508181036060830152613f998185613928565b90508181036080830152613fad8184613995565b90509695505050505050565b600060a082019050613fce6000830188613919565b613fdb6020830187613919565b613fe86040830186613ea9565b613ff56060830185613ea9565b81810360808301526140078184613995565b90509695505050505050565b6000602082019050818103600083015261402d8184613928565b905092915050565b6000604082019050818103600083015261404f8185613928565b905081810360208301526140638184613928565b90509392505050565b60006020820190506140816000830184613986565b92915050565b600060208201905081810360008301526140a181846139dd565b905092915050565b600060208201905081810360008301526140c281613ac6565b9050919050565b600060208201905081810360008301526140e281613ae9565b9050919050565b6000602082019050818103600083015261410281613b0c565b9050919050565b6000602082019050818103600083015261412281613b2f565b9050919050565b6000602082019050818103600083015261414281613b52565b9050919050565b6000602082019050818103600083015261416281613b98565b9050919050565b6000602082019050818103600083015261418281613bbb565b9050919050565b600060208201905081810360008301526141a281613bde565b9050919050565b600060208201905081810360008301526141c281613c01565b9050919050565b600060208201905081810360008301526141e281613c24565b9050919050565b6000602082019050818103600083015261420281613c47565b9050919050565b6000602082019050818103600083015261422281613c6a565b9050919050565b6000602082019050818103600083015261424281613c8d565b9050919050565b6000602082019050818103600083015261426281613cb0565b9050919050565b6000602082019050818103600083015261428281613cd3565b9050919050565b600060208201905081810360008301526142a281613cf6565b9050919050565b600060208201905081810360008301526142c281613d19565b9050919050565b600060208201905081810360008301526142e281613d5f565b9050919050565b6000602082019050818103600083015261430281613d82565b9050919050565b6000602082019050818103600083015261432281613deb565b9050919050565b6000602082019050818103600083015261434281613e0e565b9050919050565b6000602082019050818103600083015261436281613e31565b9050919050565b6000602082019050818103600083015261438281613e54565b9050919050565b600060208201905081810360008301526143a281613e77565b9050919050565b60006020820190506143be6000830184613ea9565b92915050565b60006040820190506143d96000830185613ea9565b6143e660208301846139ce565b9392505050565b60006143f7614408565b90506144038282614912565b919050565b6000604051905090565b600067ffffffffffffffff82111561442d5761442c614a4a565b5b602082029050602081019050919050565b600067ffffffffffffffff82111561445957614458614a4a565b5b602082029050602081019050919050565b600067ffffffffffffffff82111561448557614484614a4a565b5b61448e82614a9b565b9050602081019050919050565b600067ffffffffffffffff8211156144b6576144b5614a4a565b5b6144bf82614a9b565b9050602081019050919050565b6000819050602082019050919050565b60008190508160005260206000209050919050565b600081519050919050565b600081519050919050565b600081519050919050565b6000602082019050919050565b600082825260208201905092915050565b600082825260208201905092915050565b600081905092915050565b600082825260208201905092915050565b600081905092915050565b600061457382614858565b915061457e83614858565b9250827fffffffffffffffffffffffffffffffffffffffffffffffffffffffffffffffff038211156145b3576145b26149bd565b5b828201905092915050565b60006145c982614858565b91506145d483614858565b9250826145e4576145e36149ec565b5b828204905092915050565b6000808291508390505b600185111561463957808604811115614615576146146149bd565b5b60018516156146245780820291505b808102905061463285614aac565b94506145f9565b94509492505050565b600061464d82614858565b915061465883614858565b92506146857fffffffffffffffffffffffffffffffffffffffffffffffffffffffffffffffff848461468d565b905092915050565b60008261469d5760019050614759565b816146ab5760009050614759565b81600181146146c157600281146146cb576146fa565b6001915050614759565b60ff8411156146dd576146dc6149bd565b5b8360020a9150848211156146f4576146f36149bd565b5b50614759565b5060208310610133831016604e8410600b841016171561472f5782820a90508381111561472a576147296149bd565b5b614759565b61473c84848460016145ef565b92509050818404811115614753576147526149bd565b5b81810290505b9392505050565b600061476b82614858565b915061477683614858565b9250817fffffffffffffffffffffffffffffffffffffffffffffffffffffffffffffffff04831182151516156147af576147ae6149bd565b5b828202905092915050565b60006147c582614858565b91506147d083614858565b9250828210156147e3576147e26149bd565b5b828203905092915050565b60006147f982614838565b9050919050565b60008115159050919050565b60007fffffffff0000000000000000000000000000000000000000000000000000000082169050919050565b600073ffffffffffffffffffffffffffffffffffffffff82169050919050565b6000819050919050565b600061486d82614858565b9050919050565b82818337600083830152505050565b60005b838110156148a1578082015181840152602081019050614886565b838111156148b0576000848401525b50505050565b60006148c182614858565b915060008214156148d5576148d46149bd565b5b600182039050919050565b600060028204905060018216806148f857607f821691505b6020821081141561490c5761490b614a1b565b5b50919050565b61491b82614a9b565b810181811067ffffffffffffffff8211171561493a57614939614a4a565b5b80604052505050565b600061494e82614858565b91507fffffffffffffffffffffffffffffffffffffffffffffffffffffffffffffffff821415614981576149806149bd565b5b600182019050919050565b600061499782614858565b91506149a283614858565b9250826149b2576149b16149ec565b5b828206905092915050565b7f4e487b7100000000000000000000000000000000000000000000000000000000600052601160045260246000fd5b7f4e487b7100000000000000000000000000000000000000000000000000000000600052601260045260246000fd5b7f4e487b7100000000000000000000000000000000000000000000000000000000600052602260045260246000fd5b7f4e487b7100000000000000000000000000000000000000000000000000000000600052604160045260246000fd5b600060033d1115614a985760046000803e614a95600051614ab9565b90505b90565b6000601f19601f8301169050919050565b60008160011c9050919050565b60008160e01c9050919050565b7f455243313135353a207472616e7366657220746f206e6f6e204552433131353560008201527f526563656976657220696d706c656d656e746572000000000000000000000000602082015250565b7f537472696e67733a20686578206c656e67746820696e73756666696369656e74600082015250565b7f455243313135353a204552433131353552656365697665722072656a6563746560008201527f6420746f6b656e73000000000000000000000000000000000000000000000000602082015250565b7f4e6f20636173746c6520666f7220746865207a65726f20616464726573730000600082015250565b7f506c656173652073656e6420302e303030342045544800000000000000000000600082015250565b7f636f6e74726163742e6a736f6e00000000000000000000000000000000000000600082015250565b7f455243313135353a2062616c616e636520717565727920666f7220746865207a60008201527f65726f2061646472657373000000000000000000000000000000000000000000602082015250565b7f4f776e61626c653a206e6577206f776e657220697320746865207a65726f206160008201527f6464726573730000000000000000000000000000000000000000000000000000602082015250565b7f4f6e6c79206f776e65722063616e20666c6970207265616c6d2c20746f6b656e60008201527f206d7573742062652072657665616c6564000000000000000000000000000000602082015250565b7f455243313135353a2063616c6c6572206973206e6f74206f776e6572206e6f7260008201527f20617070726f7665640000000000000000000000000000000000000000000000602082015250565b7f4e6f2066756e647320746f207769746864726177000000000000000000000000600082015250565b7f416464726573733a20756e61626c6520746f2073656e642076616c75652c207260008201527f6563697069656e74206d61792068617665207265766572746564000000000000602082015250565b7f416464726573733a20696e73756666696369656e742062616c616e6365000000600082015250565b7f455243313135353a207472616e7366657220746f20746865207a65726f20616460008201527f6472657373000000000000000000000000000000000000000000000000000000602082015250565b7f455243313135353a207472616e736665722063616c6c6572206973206e6f742060008201527f6f776e6572206e6f7220617070726f7665640000000000000000000000000000602082015250565b7f455243313135353a20696e73756666696369656e742062616c616e636520666f60008201527f72207472616e7366657200000000000000000000000000000000000000000000602082015250565b7f455243313135353a204e6f206769667420666f7220746865207a65726f20616460008201527f6472657373000000000000000000000000000000000000000000000000000000602082015250565b7f4e6f7420656e6f75676820455448000000000000000000000000000000000000600082015250565b7f2e6a736f6e000000000000000000000000000000000000000000000000000000600082015250565b7f4f776e61626c653a2063616c6c6572206973206e6f7420746865206f776e6572600082015250565b7f455243313135353a20696e73756666696369656e742062616c616e636520666f60008201527f72207472616e7366657220626174636800000000000000000000000000000000602082015250565b50565b7f2d00000000000000000000000000000000000000000000000000000000000000600082015250565b7f436173746c6520697320616c7265616479206174206d6178206c6576656c0000600082015250565b7f455243313135353a2073657474696e6720617070726f76616c2073746174757360008201527f20666f722073656c660000000000000000000000000000000000000000000000602082015250565b7f455243313135353a206163636f756e747320616e6420696473206c656e67746860008201527f206d69736d617463680000000000000000000000000000000000000000000000602082015250565b7f455243313135353a2069647320616e6420616d6f756e7473206c656e6774682060008201527f6d69736d61746368000000000000000000000000000000000000000000000000602082015250565b7f4e465420616c72656164792072657665616c6564000000000000000000000000600082015250565b600060443d1015615166576151e9565b61516e614408565b60043d036004823e80513d602482011167ffffffffffffffff821117156151965750506151e9565b808201805167ffffffffffffffff8111156151b457505050506151e9565b80602083010160043d0385018111156151d15750505050506151e9565b6151e082602001850186614912565b82955050505050505b90565b6151f5816147ee565b811461520057600080fd5b50565b61520c81614800565b811461521757600080fd5b50565b6152238161480c565b811461522e57600080fd5b50565b61523a81614858565b811461524557600080fd5b5056fea264697066735822122033fc4482c1b226a83ce3396765688162923b9b876f55b94dc4e62b08dda2c69264736f6c63430008040033",
  "linkReferences": {},
  "deployedLinkReferences": {}
}