{
  "_format": "hh-sol-artifact-1",
  "contractName": "Orthoverse",
  "sourceName": "contracts/Orthoverse.sol",
  "abi": [
    {
      "inputs": [
        {
          "internalType": "string",
          "name": "uri_",
          "type": "string"
        }
      ],
      "stateMutability": "nonpayable",
      "type": "constructor"
    },
    {
      "anonymous": false,
      "inputs": [
        {
          "indexed": true,
          "internalType": "address",
          "name": "account",
          "type": "address"
        },
        {
          "indexed": true,
          "internalType": "address",
          "name": "operator",
          "type": "address"
        },
        {
          "indexed": false,
          "internalType": "bool",
          "name": "approved",
          "type": "bool"
        }
      ],
      "name": "ApprovalForAll",
      "type": "event"
    },
    {
      "anonymous": false,
      "inputs": [
        {
          "indexed": true,
          "internalType": "address",
          "name": "previousOwner",
          "type": "address"
        },
        {
          "indexed": true,
          "internalType": "address",
          "name": "newOwner",
          "type": "address"
        }
      ],
      "name": "OwnershipTransferred",
      "type": "event"
    },
    {
      "anonymous": false,
      "inputs": [
        {
          "indexed": true,
          "internalType": "address",
          "name": "operator",
          "type": "address"
        },
        {
          "indexed": true,
          "internalType": "address",
          "name": "from",
          "type": "address"
        },
        {
          "indexed": true,
          "internalType": "address",
          "name": "to",
          "type": "address"
        },
        {
          "indexed": false,
          "internalType": "uint256[]",
          "name": "ids",
          "type": "uint256[]"
        },
        {
          "indexed": false,
          "internalType": "uint256[]",
          "name": "values",
          "type": "uint256[]"
        }
      ],
      "name": "TransferBatch",
      "type": "event"
    },
    {
      "anonymous": false,
      "inputs": [
        {
          "indexed": true,
          "internalType": "address",
          "name": "operator",
          "type": "address"
        },
        {
          "indexed": true,
          "internalType": "address",
          "name": "from",
          "type": "address"
        },
        {
          "indexed": true,
          "internalType": "address",
          "name": "to",
          "type": "address"
        },
        {
          "indexed": false,
          "internalType": "uint256",
          "name": "id",
          "type": "uint256"
        },
        {
          "indexed": false,
          "internalType": "uint256",
          "name": "value",
          "type": "uint256"
        }
      ],
      "name": "TransferSingle",
      "type": "event"
    },
    {
      "anonymous": false,
      "inputs": [
        {
          "indexed": false,
          "internalType": "string",
          "name": "value",
          "type": "string"
        },
        {
          "indexed": true,
          "internalType": "uint256",
          "name": "id",
          "type": "uint256"
        }
      ],
      "name": "URI",
      "type": "event"
    },
    {
      "inputs": [],
      "name": "CASTLE_BASE_PRICE",
      "outputs": [
        {
          "internalType": "uint256",
          "name": "",
          "type": "uint256"
        }
      ],
      "stateMutability": "view",
      "type": "function"
    },
    {
      "inputs": [],
      "name": "REVEAL_PRICE",
      "outputs": [
        {
          "internalType": "uint256",
          "name": "",
          "type": "uint256"
        }
      ],
      "stateMutability": "view",
      "type": "function"
    },
    {
      "inputs": [
        {
          "internalType": "address",
          "name": "account",
          "type": "address"
        },
        {
          "internalType": "uint256",
          "name": "id",
          "type": "uint256"
        }
      ],
      "name": "balanceOf",
      "outputs": [
        {
          "internalType": "uint256",
          "name": "",
          "type": "uint256"
        }
      ],
      "stateMutability": "view",
      "type": "function"
    },
    {
      "inputs": [
        {
          "internalType": "address[]",
          "name": "accounts",
          "type": "address[]"
        },
        {
          "internalType": "uint256[]",
          "name": "ids",
          "type": "uint256[]"
        }
      ],
      "name": "balanceOfBatch",
      "outputs": [
        {
          "internalType": "uint256[]",
          "name": "",
          "type": "uint256[]"
        }
      ],
      "stateMutability": "view",
      "type": "function"
    },
    {
      "inputs": [
        {
          "internalType": "uint256",
          "name": "level",
          "type": "uint256"
        }
      ],
      "name": "castlePrice",
      "outputs": [
        {
          "internalType": "uint256",
          "name": "",
          "type": "uint256"
        }
      ],
      "stateMutability": "pure",
      "type": "function"
    },
    {
      "inputs": [],
      "name": "contractURI",
      "outputs": [
        {
          "internalType": "string",
          "name": "",
          "type": "string"
        }
      ],
      "stateMutability": "view",
      "type": "function"
    },
    {
      "inputs": [
        {
          "internalType": "uint256",
          "name": "id",
          "type": "uint256"
        }
      ],
      "name": "exists",
      "outputs": [
        {
          "internalType": "bool",
          "name": "",
          "type": "bool"
        }
      ],
      "stateMutability": "view",
      "type": "function"
    },
    {
      "inputs": [
        {
          "internalType": "address",
          "name": "account",
          "type": "address"
        }
      ],
      "name": "gift",
      "outputs": [],
      "stateMutability": "payable",
      "type": "function"
    },
    {
      "inputs": [
        {
          "internalType": "address",
          "name": "account",
          "type": "address"
        },
        {
          "internalType": "address",
          "name": "operator",
          "type": "address"
        }
      ],
      "name": "isApprovedForAll",
      "outputs": [
        {
          "internalType": "bool",
          "name": "",
          "type": "bool"
        }
      ],
      "stateMutability": "view",
      "type": "function"
    },
    {
      "inputs": [],
      "name": "isRevealed",
      "outputs": [
        {
          "internalType": "uint256",
          "name": "",
          "type": "uint256"
        }
      ],
      "stateMutability": "view",
      "type": "function"
    },
    {
      "inputs": [],
      "name": "name",
      "outputs": [
        {
          "internalType": "string",
          "name": "",
          "type": "string"
        }
      ],
      "stateMutability": "pure",
      "type": "function"
    },
    {
      "inputs": [],
      "name": "owner",
      "outputs": [
        {
          "internalType": "address",
          "name": "",
          "type": "address"
        }
      ],
      "stateMutability": "view",
      "type": "function"
    },
    {
      "inputs": [],
      "name": "renounceOwnership",
      "outputs": [],
      "stateMutability": "nonpayable",
      "type": "function"
    },
    {
      "inputs": [],
      "name": "reveal",
      "outputs": [],
      "stateMutability": "payable",
      "type": "function"
    },
    {
      "inputs": [
        {
          "internalType": "address",
          "name": "from",
          "type": "address"
        },
        {
          "internalType": "address",
          "name": "to",
          "type": "address"
        },
        {
          "internalType": "uint256[]",
          "name": "ids",
          "type": "uint256[]"
        },
        {
          "internalType": "uint256[]",
          "name": "amounts",
          "type": "uint256[]"
        },
        {
          "internalType": "bytes",
          "name": "data",
          "type": "bytes"
        }
      ],
      "name": "safeBatchTransferFrom",
      "outputs": [],
      "stateMutability": "nonpayable",
      "type": "function"
    },
    {
      "inputs": [
        {
          "internalType": "address",
          "name": "from",
          "type": "address"
        },
        {
          "internalType": "address",
          "name": "to",
          "type": "address"
        },
        {
          "internalType": "uint256",
          "name": "id",
          "type": "uint256"
        },
        {
          "internalType": "uint256",
          "name": "amount",
          "type": "uint256"
        },
        {
          "internalType": "bytes",
          "name": "data",
          "type": "bytes"
        }
      ],
      "name": "safeTransferFrom",
      "outputs": [],
      "stateMutability": "nonpayable",
      "type": "function"
    },
    {
      "inputs": [
        {
          "internalType": "address",
          "name": "operator",
          "type": "address"
        },
        {
          "internalType": "bool",
          "name": "approved",
          "type": "bool"
        }
      ],
      "name": "setApprovalForAll",
      "outputs": [],
      "stateMutability": "nonpayable",
      "type": "function"
    },
    {
      "inputs": [
        {
          "internalType": "string",
          "name": "newURI_",
          "type": "string"
        }
      ],
      "name": "setURI",
      "outputs": [],
      "stateMutability": "nonpayable",
      "type": "function"
    },
    {
      "inputs": [
        {
          "internalType": "bytes4",
          "name": "interfaceId",
          "type": "bytes4"
        }
      ],
      "name": "supportsInterface",
      "outputs": [
        {
          "internalType": "bool",
          "name": "",
          "type": "bool"
        }
      ],
      "stateMutability": "view",
      "type": "function"
    },
    {
      "inputs": [],
      "name": "symbol",
      "outputs": [
        {
          "internalType": "string",
          "name": "",
          "type": "string"
        }
      ],
      "stateMutability": "pure",
      "type": "function"
    },
    {
      "inputs": [
        {
          "internalType": "uint256",
          "name": "",
          "type": "uint256"
        }
      ],
      "name": "tokenCastleLevel",
      "outputs": [
        {
          "internalType": "uint256",
          "name": "",
          "type": "uint256"
        }
      ],
      "stateMutability": "view",
      "type": "function"
    },
    {
      "inputs": [
        {
          "internalType": "uint256",
          "name": "id",
          "type": "uint256"
        }
      ],
      "name": "totalSupply",
      "outputs": [
        {
          "internalType": "uint256",
          "name": "",
          "type": "uint256"
        }
      ],
      "stateMutability": "view",
      "type": "function"
    },
    {
      "inputs": [
        {
          "internalType": "address",
          "name": "newOwner",
          "type": "address"
        }
      ],
      "name": "transferOwnership",
      "outputs": [],
      "stateMutability": "nonpayable",
      "type": "function"
    },
    {
      "inputs": [
        {
          "internalType": "address",
          "name": "account_",
          "type": "address"
        }
      ],
      "name": "upgradeCastleLevel",
      "outputs": [],
      "stateMutability": "payable",
      "type": "function"
    },
    {
      "inputs": [
        {
          "internalType": "uint256",
          "name": "tokenId",
          "type": "uint256"
        }
      ],
      "name": "uri",
      "outputs": [
        {
          "internalType": "string",
          "name": "",
          "type": "string"
        }
      ],
      "stateMutability": "view",
      "type": "function"
    },
    {
      "inputs": [],
      "name": "withdraw",
      "outputs": [],
      "stateMutability": "nonpayable",
      "type": "function"
    }
  ],
  "bytecode": "0x6080604052732830b5a3b5242bc2c64c390594ed971e7ded47d2600660006101000a81548173ffffffffffffffffffffffffffffffffffffffff021916908373ffffffffffffffffffffffffffffffffffffffff160217905550732d6dcb0fc05989041769cd8f5d3a5bf2c9e1a72f600760006101000a81548173ffffffffffffffffffffffffffffffffffffffff021916908373ffffffffffffffffffffffffffffffffffffffff160217905550348015620000bb57600080fd5b50604051620051d3380380620051d38339818101604052810190620000e1919062000327565b80620000f3816200011b60201b60201c565b5062000114620001086200013760201b60201c565b6200013f60201b60201c565b50620004dc565b80600390805190602001906200013392919062000205565b5050565b600033905090565b6000600460009054906101000a900473ffffffffffffffffffffffffffffffffffffffff16905081600460006101000a81548173ffffffffffffffffffffffffffffffffffffffff021916908373ffffffffffffffffffffffffffffffffffffffff1602179055508173ffffffffffffffffffffffffffffffffffffffff168173ffffffffffffffffffffffffffffffffffffffff167f8be0079c531659141344cd1fd0a4f28419497f9722a3daafe3b4186f6b6457e060405160405180910390a35050565b828054620002139062000401565b90600052602060002090601f01602090048101928262000237576000855562000283565b82601f106200025257805160ff191683800117855562000283565b8280016001018555821562000283579182015b828111156200028257825182559160200191906001019062000265565b5b50905062000292919062000296565b5090565b5b80821115620002b157600081600090555060010162000297565b5090565b6000620002cc620002c68462000395565b6200036c565b905082815260208101848484011115620002e557600080fd5b620002f2848285620003cb565b509392505050565b600082601f8301126200030c57600080fd5b81516200031e848260208601620002b5565b91505092915050565b6000602082840312156200033a57600080fd5b600082015167ffffffffffffffff8111156200035557600080fd5b6200036384828501620002fa565b91505092915050565b6000620003786200038b565b905062000386828262000437565b919050565b6000604051905090565b600067ffffffffffffffff821115620003b357620003b26200049c565b5b620003be82620004cb565b9050602081019050919050565b60005b83811015620003eb578082015181840152602081019050620003ce565b83811115620003fb576000848401525b50505050565b600060028204905060018216806200041a57607f821691505b602082108114156200043157620004306200046d565b5b50919050565b6200044282620004cb565b810181811067ffffffffffffffff821117156200046457620004636200049c565b5b80604052505050565b7f4e487b7100000000000000000000000000000000000000000000000000000000600052602260045260246000fd5b7f4e487b7100000000000000000000000000000000000000000000000000000000600052604160045260246000fd5b6000601f19601f8301169050919050565b614ce780620004ec6000396000f3fe6080604052600436106101805760003560e01c8063715018a6116100d1578063bd85b0391161008a578063e8a3d48511610064578063e8a3d4851461055a578063e985e9c514610585578063f242432a146105c2578063f2fde38b146105eb57610180565b8063bd85b039146104e5578063c53b23f214610522578063cbfc4bce1461053e57610180565b8063715018a614610408578063756495ca1461041f5780638da5cb5b1461045c57806395d89b4114610487578063a22cb465146104b2578063a475b5dd146104db57610180565b80632eb2c2d61161013e5780634e1273f4116101185780634e1273f4146103265780634f558e791461036357806354214f69146103a05780635fcf37e9146103cb57610180565b80632eb2c2d6146102bb5780633a145777146102e45780633ccfd60b1461030f57610180565b8062fdd58e1461018557806301ffc9a7146101c257806302fe5305146101ff57806306fdde03146102285780630e89341c1461025357806329ba8f9c14610290575b600080fd5b34801561019157600080fd5b506101ac60048036038101906101a79190613416565b610614565b6040516101b99190613fdf565b60405180910390f35b3480156101ce57600080fd5b506101e960048036038101906101e491906134be565b61076c565b6040516101f69190613cc2565b60405180910390f35b34801561020b57600080fd5b5061022660048036038101906102219190613510565b61084e565b005b34801561023457600080fd5b5061023d6108d6565b60405161024a9190613cdd565b60405180910390f35b34801561025f57600080fd5b5061027a60048036038101906102759190613551565b610913565b6040516102879190613cdd565b60405180910390f35b34801561029c57600080fd5b506102a5610964565b6040516102b29190613fdf565b60405180910390f35b3480156102c757600080fd5b506102e260048036038101906102dd919061328c565b61096f565b005b3480156102f057600080fd5b506102f9610a10565b6040516103069190613fdf565b60405180910390f35b34801561031b57600080fd5b50610324610a1b565b005b34801561033257600080fd5b5061034d60048036038101906103489190613452565b610adc565b60405161035a9190613c69565b60405180910390f35b34801561036f57600080fd5b5061038a60048036038101906103859190613551565b610c8d565b6040516103979190613cc2565b60405180910390f35b3480156103ac57600080fd5b506103b5610c9b565b6040516103c29190613fdf565b60405180910390f35b3480156103d757600080fd5b506103f260048036038101906103ed9190613551565b610d13565b6040516103ff9190613fdf565b60405180910390f35b34801561041457600080fd5b5061041d610d3b565b005b34801561042b57600080fd5b5061044660048036038101906104419190613551565b610dc3565b6040516104539190613fdf565b60405180910390f35b34801561046857600080fd5b50610471610ddb565b60405161047e9190613b8c565b60405180910390f35b34801561049357600080fd5b5061049c610e05565b6040516104a99190613cdd565b60405180910390f35b3480156104be57600080fd5b506104d960048036038101906104d491906133da565b610e42565b005b6104e3610e58565b005b3480156104f157600080fd5b5061050c60048036038101906105079190613551565b61103a565b6040516105199190613fdf565b60405180910390f35b61053c60048036038101906105379190613227565b611048565b005b61055860048036038101906105539190613227565b611265565b005b34801561056657600080fd5b5061056f6114b8565b60405161057c9190613cdd565b60405180910390f35b34801561059157600080fd5b506105ac60048036038101906105a79190613250565b6114e0565b6040516105b99190613cc2565b60405180910390f35b3480156105ce57600080fd5b506105e960048036038101906105e4919061334b565b611574565b005b3480156105f757600080fd5b50610612600480360381019061060d9190613227565b611615565b005b60008073ffffffffffffffffffffffffffffffffffffffff168373ffffffffffffffffffffffffffffffffffffffff161415610685576040517f08c379a000000000000000000000000000000000000000000000000000000000815260040161067c90613d9f565b60405180910390fd5b8273ffffffffffffffffffffffffffffffffffffffff16821480156106f95750600080600084815260200190815260200160002060008573ffffffffffffffffffffffffffffffffffffffff1673ffffffffffffffffffffffffffffffffffffffff16815260200190815260200160002054145b156107075760019050610766565b600260008084815260200190815260200160002060008573ffffffffffffffffffffffffffffffffffffffff1673ffffffffffffffffffffffffffffffffffffffff168152602001908152602001600020546107639190614451565b90505b92915050565b60007fd9b67a26000000000000000000000000000000000000000000000000000000007bffffffffffffffffffffffffffffffffffffffffffffffffffffffff1916827bffffffffffffffffffffffffffffffffffffffffffffffffffffffff1916148061083757507f0e89341c000000000000000000000000000000000000000000000000000000007bffffffffffffffffffffffffffffffffffffffffffffffffffffffff1916827bffffffffffffffffffffffffffffffffffffffffffffffffffffffff1916145b8061084757506108468261170d565b5b9050919050565b610856611777565b73ffffffffffffffffffffffffffffffffffffffff16610874610ddb565b73ffffffffffffffffffffffffffffffffffffffff16146108ca576040517f08c379a00000000000000000000000000000000000000000000000000000000081526004016108c190613eff565b60405180910390fd5b6108d38161177f565b50565b60606040518060400160405280600a81526020017f4f7274686f766572736500000000000000000000000000000000000000000000815250905090565b6060600361092083611799565b61093c600260008681526020019081526020016000205461181f565b60405160200161094e93929190613b0e565b6040516020818303038152906040529050919050565b66016bcc41e9000081565b610977611777565b73ffffffffffffffffffffffffffffffffffffffff168573ffffffffffffffffffffffffffffffffffffffff1614806109bd57506109bc856109b7611777565b6114e0565b5b6109fc576040517f08c379a00000000000000000000000000000000000000000000000000000000081526004016109f390613e7f565b60405180910390fd5b610a0985858585856119cc565b5050505050565b66016bcc41e9000081565b600047905060008111610a63576040517f08c379a0000000000000000000000000000000000000000000000000000000008152600401610a5a90613dff565b60405180910390fd5b6000600a600583610a749190614225565b610a7e91906141f4565b9050610aac600660009054906101000a900473ffffffffffffffffffffffffffffffffffffffff1682611e50565b610ad8600760009054906101000a900473ffffffffffffffffffffffffffffffffffffffff1682611e50565b5050565b60608151835114610b22576040517f08c379a0000000000000000000000000000000000000000000000000000000008152600401610b1990613f7f565b60405180910390fd5b6000835167ffffffffffffffff811115610b65577f4e487b7100000000000000000000000000000000000000000000000000000000600052604160045260246000fd5b604051908082528060200260200182016040528015610b935781602001602082028036833780820191505090505b50905060005b8451811015610c8257610c2c858281518110610bde577f4e487b7100000000000000000000000000000000000000000000000000000000600052603260045260246000fd5b6020026020010151858381518110610c1f577f4e487b7100000000000000000000000000000000000000000000000000000000600052603260045260246000fd5b6020026020010151610614565b828281518110610c65577f4e487b7100000000000000000000000000000000000000000000000000000000600052603260045260246000fd5b60200260200101818152505080610c7b90614408565b9050610b99565b508091505092915050565b600080915060019050919050565b60008033905060008173ffffffffffffffffffffffffffffffffffffffff16905060008082815260200190815260200160002060008373ffffffffffffffffffffffffffffffffffffffff1673ffffffffffffffffffffffffffffffffffffffff168152602001908152602001600020549250505090565b600066016bcc41e90000600183610d2a919061419e565b610d349190614225565b9050919050565b610d43611777565b73ffffffffffffffffffffffffffffffffffffffff16610d61610ddb565b73ffffffffffffffffffffffffffffffffffffffff1614610db7576040517f08c379a0000000000000000000000000000000000000000000000000000000008152600401610dae90613eff565b60405180910390fd5b610dc16000611f44565b565b60026020528060005260406000206000915090505481565b6000600460009054906101000a900473ffffffffffffffffffffffffffffffffffffffff16905090565b60606040518060400160405280600481526020017f4f52544800000000000000000000000000000000000000000000000000000000815250905090565b610e54610e4d611777565b838361200a565b5050565b66016bcc41e90000341015610ea2576040517f08c379a0000000000000000000000000000000000000000000000000000000008152600401610e9990613d7f565b60405180910390fd5b600033905060008173ffffffffffffffffffffffffffffffffffffffff169050600080600083815260200190815260200160002060008473ffffffffffffffffffffffffffffffffffffffff1673ffffffffffffffffffffffffffffffffffffffff1681526020019081526020016000205414610f54576040517f08c379a0000000000000000000000000000000000000000000000000000000008152600401610f4b90613fbf565b60405180910390fd5b600160008083815260200190815260200160002060008473ffffffffffffffffffffffffffffffffffffffff1673ffffffffffffffffffffffffffffffffffffffff168152602001908152602001600020819055506000610fb3611777565b90508273ffffffffffffffffffffffffffffffffffffffff16600073ffffffffffffffffffffffffffffffffffffffff168273ffffffffffffffffffffffffffffffffffffffff167fc3d58168c5ae7397731d063d5bbf3d657854427343f4c083240f7aacaa2d0f6285600160405161102d929190613ffa565b60405180910390a4505050565b600080915060019050919050565b600073ffffffffffffffffffffffffffffffffffffffff168173ffffffffffffffffffffffffffffffffffffffff1614156110b8576040517f08c379a00000000000000000000000000000000000000000000000000000000081526004016110af90613d5f565b60405180910390fd5b60008173ffffffffffffffffffffffffffffffffffffffff1690506008600260008381526020019081526020016000205410611129576040517f08c379a000000000000000000000000000000000000000000000000000000000815260040161112090613f1f565b60405180910390fd5b600660009054906101000a900473ffffffffffffffffffffffffffffffffffffffff1673ffffffffffffffffffffffffffffffffffffffff163373ffffffffffffffffffffffffffffffffffffffff161415806111d45750600760009054906101000a900473ffffffffffffffffffffffffffffffffffffffff1673ffffffffffffffffffffffffffffffffffffffff163373ffffffffffffffffffffffffffffffffffffffff1614155b15611238576111f56002600083815260200190815260200160002054610d13565b341015611237576040517f08c379a000000000000000000000000000000000000000000000000000000000815260040161122e90613edf565b60405180910390fd5b5b60026000828152602001908152602001600020600081548092919061125c90614408565b91905055505050565b600073ffffffffffffffffffffffffffffffffffffffff168173ffffffffffffffffffffffffffffffffffffffff1614156112d5576040517f08c379a00000000000000000000000000000000000000000000000000000000081526004016112cc90613ebf565b60405180910390fd5b66016bcc41e9000034101561131f576040517f08c379a000000000000000000000000000000000000000000000000000000000815260040161131690613d7f565b60405180910390fd5b600081905060008173ffffffffffffffffffffffffffffffffffffffff169050600080600083815260200190815260200160002060008473ffffffffffffffffffffffffffffffffffffffff1673ffffffffffffffffffffffffffffffffffffffff16815260200190815260200160002054146113d1576040517f08c379a00000000000000000000000000000000000000000000000000000000081526004016113c890613fbf565b60405180910390fd5b600160008083815260200190815260200160002060008473ffffffffffffffffffffffffffffffffffffffff1673ffffffffffffffffffffffffffffffffffffffff168152602001908152602001600020819055506000611430611777565b90508273ffffffffffffffffffffffffffffffffffffffff16600073ffffffffffffffffffffffffffffffffffffffff168273ffffffffffffffffffffffffffffffffffffffff167fc3d58168c5ae7397731d063d5bbf3d657854427343f4c083240f7aacaa2d0f628560016040516114aa929190613ffa565b60405180910390a450505050565b606060036040516020016114cc9190613b55565b604051602081830303815290604052905090565b6000600160008473ffffffffffffffffffffffffffffffffffffffff1673ffffffffffffffffffffffffffffffffffffffff16815260200190815260200160002060008373ffffffffffffffffffffffffffffffffffffffff1673ffffffffffffffffffffffffffffffffffffffff16815260200190815260200160002060009054906101000a900460ff16905092915050565b61157c611777565b73ffffffffffffffffffffffffffffffffffffffff168573ffffffffffffffffffffffffffffffffffffffff1614806115c257506115c1856115bc611777565b6114e0565b5b611601576040517f08c379a00000000000000000000000000000000000000000000000000000000081526004016115f890613ddf565b60405180910390fd5b61160e8585858585612177565b5050505050565b61161d611777565b73ffffffffffffffffffffffffffffffffffffffff1661163b610ddb565b73ffffffffffffffffffffffffffffffffffffffff1614611691576040517f08c379a000000000000000000000000000000000000000000000000000000000815260040161168890613eff565b60405180910390fd5b600073ffffffffffffffffffffffffffffffffffffffff168173ffffffffffffffffffffffffffffffffffffffff161415611701576040517f08c379a00000000000000000000000000000000000000000000000000000000081526004016116f890613dbf565b60405180910390fd5b61170a81611f44565b50565b60007f01ffc9a7000000000000000000000000000000000000000000000000000000007bffffffffffffffffffffffffffffffffffffffffffffffffffffffff1916827bffffffffffffffffffffffffffffffffffffffffffffffffffffffff1916149050919050565b600033905090565b8060039080519060200190611795929190612f1f565b5050565b606060008214156117e1576040518060400160405280600481526020017f3078303000000000000000000000000000000000000000000000000000000000815250905061181a565b600082905060005b6000821461180b5780806117fc90614408565b915050600882901c91506117e9565b611815848261253e565b925050505b919050565b60606000821415611867576040518060400160405280600181526020017f300000000000000000000000000000000000000000000000000000000000000081525090506119c7565b600082905060005b6000821461189957808061188290614408565b915050600a8261189291906141f4565b915061186f565b60008167ffffffffffffffff8111156118db577f4e487b7100000000000000000000000000000000000000000000000000000000600052604160045260246000fd5b6040519080825280601f01601f19166020018201604052801561190d5781602001600182028036833780820191505090505b5090505b600085146119c057600182611926919061427f565b9150600a856119359190614451565b6030611941919061419e565b60f81b81838151811061197d577f4e487b7100000000000000000000000000000000000000000000000000000000600052603260045260246000fd5b60200101907effffffffffffffffffffffffffffffffffffffffffffffffffffffffffffff1916908160001a905350600a856119b991906141f4565b9450611911565b8093505050505b919050565b8151835114611a10576040517f08c379a0000000000000000000000000000000000000000000000000000000008152600401611a0790613f9f565b60405180910390fd5b600073ffffffffffffffffffffffffffffffffffffffff168473ffffffffffffffffffffffffffffffffffffffff161415611a80576040517f08c379a0000000000000000000000000000000000000000000000000000000008152600401611a7790613e5f565b60405180910390fd5b6000611a8a611777565b9050611a9a818787878787612838565b60008673ffffffffffffffffffffffffffffffffffffffff169050600080600083815260200190815260200160002060008973ffffffffffffffffffffffffffffffffffffffff1673ffffffffffffffffffffffffffffffffffffffff168152602001908152602001600020541415611bf557600160008083815260200190815260200160002060008973ffffffffffffffffffffffffffffffffffffffff1673ffffffffffffffffffffffffffffffffffffffff1681526020019081526020016000206000828254611b6d919061419e565b925050819055508673ffffffffffffffffffffffffffffffffffffffff16600073ffffffffffffffffffffffffffffffffffffffff168373ffffffffffffffffffffffffffffffffffffffff167fc3d58168c5ae7397731d063d5bbf3d657854427343f4c083240f7aacaa2d0f62846001604051611bec929190613ffa565b60405180910390a45b60005b8551811015611dba576000868281518110611c3c577f4e487b7100000000000000000000000000000000000000000000000000000000600052603260045260246000fd5b60200260200101519050600080600083815260200190815260200160002060008b73ffffffffffffffffffffffffffffffffffffffff1673ffffffffffffffffffffffffffffffffffffffff1681526020019081526020016000205490506001600282611ca99190614451565b14611ce9576040517f08c379a0000000000000000000000000000000000000000000000000000000008152600401611ce090613f3f565b60405180910390fd5b6001810160008084815260200190815260200160002060008c73ffffffffffffffffffffffffffffffffffffffff1673ffffffffffffffffffffffffffffffffffffffff16815260200190815260200160002081905550600160008084815260200190815260200160002060008b73ffffffffffffffffffffffffffffffffffffffff1673ffffffffffffffffffffffffffffffffffffffff1681526020019081526020016000206000828254611da0919061419e565b92505081905550505080611db390614408565b9050611bf8565b508573ffffffffffffffffffffffffffffffffffffffff168773ffffffffffffffffffffffffffffffffffffffff168373ffffffffffffffffffffffffffffffffffffffff167f4a39dc06d4c0dbc64b70af90fd698a233a518aa5d07e595d983b8c0526c8f7fb8888604051611e31929190613c8b565b60405180910390a4611e4782888888888861284e565b50505050505050565b80471015611e93576040517f08c379a0000000000000000000000000000000000000000000000000000000008152600401611e8a90613e3f565b60405180910390fd5b60008273ffffffffffffffffffffffffffffffffffffffff1682604051611eb990613b77565b60006040518083038185875af1925050503d8060008114611ef6576040519150601f19603f3d011682016040523d82523d6000602084013e611efb565b606091505b5050905080611f3f576040517f08c379a0000000000000000000000000000000000000000000000000000000008152600401611f3690613e1f565b60405180910390fd5b505050565b6000600460009054906101000a900473ffffffffffffffffffffffffffffffffffffffff16905081600460006101000a81548173ffffffffffffffffffffffffffffffffffffffff021916908373ffffffffffffffffffffffffffffffffffffffff1602179055508173ffffffffffffffffffffffffffffffffffffffff168173ffffffffffffffffffffffffffffffffffffffff167f8be0079c531659141344cd1fd0a4f28419497f9722a3daafe3b4186f6b6457e060405160405180910390a35050565b8173ffffffffffffffffffffffffffffffffffffffff168373ffffffffffffffffffffffffffffffffffffffff161415612079576040517f08c379a000000000000000000000000000000000000000000000000000000000815260040161207090613f5f565b60405180910390fd5b80600160008573ffffffffffffffffffffffffffffffffffffffff1673ffffffffffffffffffffffffffffffffffffffff16815260200190815260200160002060008473ffffffffffffffffffffffffffffffffffffffff1673ffffffffffffffffffffffffffffffffffffffff16815260200190815260200160002060006101000a81548160ff0219169083151502179055508173ffffffffffffffffffffffffffffffffffffffff168373ffffffffffffffffffffffffffffffffffffffff167f17307eab39ab6107e8899845ad3d59bd9653f200f220920489ca2b5937696c318360405161216a9190613cc2565b60405180910390a3505050565b600073ffffffffffffffffffffffffffffffffffffffff168473ffffffffffffffffffffffffffffffffffffffff1614156121e7576040517f08c379a00000000000000000000000000000000000000000000000000000000081526004016121de90613e5f565b60405180910390fd5b60006121f1611777565b9050600080600086815260200190815260200160002060008873ffffffffffffffffffffffffffffffffffffffff1673ffffffffffffffffffffffffffffffffffffffff16815260200190815260200160002054141561232157600160008086815260200190815260200160002060008873ffffffffffffffffffffffffffffffffffffffff1673ffffffffffffffffffffffffffffffffffffffff168152602001908152602001600020819055508573ffffffffffffffffffffffffffffffffffffffff16600073ffffffffffffffffffffffffffffffffffffffff168273ffffffffffffffffffffffffffffffffffffffff167fc3d58168c5ae7397731d063d5bbf3d657854427343f4c083240f7aacaa2d0f62876001604051612318929190613ffa565b60405180910390a45b61233f81878761233088612a35565b61233988612a35565b87612838565b600080600086815260200190815260200160002060008873ffffffffffffffffffffffffffffffffffffffff1673ffffffffffffffffffffffffffffffffffffffff16815260200190815260200160002054905060016002826123a29190614451565b146123e2576040517f08c379a00000000000000000000000000000000000000000000000000000000081526004016123d990613e9f565b60405180910390fd5b600160008087815260200190815260200160002060008973ffffffffffffffffffffffffffffffffffffffff1673ffffffffffffffffffffffffffffffffffffffff16815260200190815260200160002060008282540192505081905550600160008087815260200190815260200160002060008873ffffffffffffffffffffffffffffffffffffffff1673ffffffffffffffffffffffffffffffffffffffff16815260200190815260200160002060008282546124a0919061419e565b925050819055508573ffffffffffffffffffffffffffffffffffffffff168773ffffffffffffffffffffffffffffffffffffffff168373ffffffffffffffffffffffffffffffffffffffff167fc3d58168c5ae7397731d063d5bbf3d657854427343f4c083240f7aacaa2d0f6288600160405161251e929190613ffa565b60405180910390a461253582888888600188612afb565b50505050505050565b6060600060028360026125519190614225565b61255b919061419e565b67ffffffffffffffff81111561259a577f4e487b7100000000000000000000000000000000000000000000000000000000600052604160045260246000fd5b6040519080825280601f01601f1916602001820160405280156125cc5781602001600182028036833780820191505090505b5090507f30000000000000000000000000000000000000000000000000000000000000008160008151811061262a577f4e487b7100000000000000000000000000000000000000000000000000000000600052603260045260246000fd5b60200101907effffffffffffffffffffffffffffffffffffffffffffffffffffffffffffff1916908160001a9053507f7800000000000000000000000000000000000000000000000000000000000000816001815181106126b4577f4e487b7100000000000000000000000000000000000000000000000000000000600052603260045260246000fd5b60200101907effffffffffffffffffffffffffffffffffffffffffffffffffffffffffffff1916908160001a905350600060018460026126f49190614225565b6126fe919061419e565b90505b60018111156127ea577f3031323334353637383961626364656600000000000000000000000000000000600f861660108110612766577f4e487b7100000000000000000000000000000000000000000000000000000000600052603260045260246000fd5b1a60f81b8282815181106127a3577f4e487b7100000000000000000000000000000000000000000000000000000000600052603260045260246000fd5b60200101907effffffffffffffffffffffffffffffffffffffffffffffffffffffffffffff1916908160001a905350600485901c9450806127e39061437b565b9050612701565b506000841461282e576040517f08c379a000000000000000000000000000000000000000000000000000000000815260040161282590613d1f565b60405180910390fd5b8091505092915050565b612846868686868686612ce2565b505050505050565b61286d8473ffffffffffffffffffffffffffffffffffffffff16612ef4565b15612a2d578373ffffffffffffffffffffffffffffffffffffffff1663bc197c8187878686866040518663ffffffff1660e01b81526004016128b3959493929190613ba7565b602060405180830381600087803b1580156128cd57600080fd5b505af19250505080156128fe57506040513d601f19601f820116820180604052508101906128fb91906134e7565b60015b6129a45761290a61453e565b806308c379a01415612967575061291f614bbf565b8061292a5750612969565b806040517f08c379a000000000000000000000000000000000000000000000000000000000815260040161295e9190613cdd565b60405180910390fd5b505b6040517f08c379a000000000000000000000000000000000000000000000000000000000815260040161299b90613cff565b60405180910390fd5b63bc197c8160e01b7bffffffffffffffffffffffffffffffffffffffffffffffffffffffff1916817bffffffffffffffffffffffffffffffffffffffffffffffffffffffff191614612a2b576040517f08c379a0000000000000000000000000000000000000000000000000000000008152600401612a2290613d3f565b60405180910390fd5b505b505050505050565b60606000600167ffffffffffffffff811115612a7a577f4e487b7100000000000000000000000000000000000000000000000000000000600052604160045260246000fd5b604051908082528060200260200182016040528015612aa85781602001602082028036833780820191505090505b5090508281600081518110612ae6577f4e487b7100000000000000000000000000000000000000000000000000000000600052603260045260246000fd5b60200260200101818152505080915050919050565b612b1a8473ffffffffffffffffffffffffffffffffffffffff16612ef4565b15612cda578373ffffffffffffffffffffffffffffffffffffffff1663f23a6e6187878686866040518663ffffffff1660e01b8152600401612b60959493929190613c0f565b602060405180830381600087803b158015612b7a57600080fd5b505af1925050508015612bab57506040513d601f19601f82011682018060405250810190612ba891906134e7565b60015b612c5157612bb761453e565b806308c379a01415612c145750612bcc614bbf565b80612bd75750612c16565b806040517f08c379a0000000000000000000000000000000000000000000000000000000008152600401612c0b9190613cdd565b60405180910390fd5b505b6040517f08c379a0000000000000000000000000000000000000000000000000000000008152600401612c4890613cff565b60405180910390fd5b63f23a6e6160e01b7bffffffffffffffffffffffffffffffffffffffffffffffffffffffff1916817bffffffffffffffffffffffffffffffffffffffffffffffffffffffff191614612cd8576040517f08c379a0000000000000000000000000000000000000000000000000000000008152600401612ccf90613d3f565b60405180910390fd5b505b505050505050565b612cf0868686868686612f17565b600073ffffffffffffffffffffffffffffffffffffffff168573ffffffffffffffffffffffffffffffffffffffff161415612dee5760005b8351811015612dec57828181518110612d6a577f4e487b7100000000000000000000000000000000000000000000000000000000600052603260045260246000fd5b602002602001015160056000868481518110612daf577f4e487b7100000000000000000000000000000000000000000000000000000000600052603260045260246000fd5b602002602001015181526020019081526020016000206000828254612dd4919061419e565b9250508190555080612de590614408565b9050612d28565b505b600073ffffffffffffffffffffffffffffffffffffffff168473ffffffffffffffffffffffffffffffffffffffff161415612eec5760005b8351811015612eea57828181518110612e68577f4e487b7100000000000000000000000000000000000000000000000000000000600052603260045260246000fd5b602002602001015160056000868481518110612ead577f4e487b7100000000000000000000000000000000000000000000000000000000600052603260045260246000fd5b602002602001015181526020019081526020016000206000828254612ed2919061427f565b9250508190555080612ee390614408565b9050612e26565b505b505050505050565b6000808273ffffffffffffffffffffffffffffffffffffffff163b119050919050565b505050505050565b828054612f2b906143a5565b90600052602060002090601f016020900481019282612f4d5760008555612f94565b82601f10612f6657805160ff1916838001178555612f94565b82800160010185558215612f94579182015b82811115612f93578251825591602001919060010190612f78565b5b509050612fa19190612fa5565b5090565b5b80821115612fbe576000816000905550600101612fa6565b5090565b6000612fd5612fd084614048565b614023565b90508083825260208201905082856020860282011115612ff457600080fd5b60005b85811015613024578161300a8882613116565b845260208401935060208301925050600181019050612ff7565b5050509392505050565b600061304161303c84614074565b614023565b9050808382526020820190508285602086028201111561306057600080fd5b60005b8581101561309057816130768882613212565b845260208401935060208301925050600181019050613063565b5050509392505050565b60006130ad6130a8846140a0565b614023565b9050828152602081018484840111156130c557600080fd5b6130d0848285614339565b509392505050565b60006130eb6130e6846140d1565b614023565b90508281526020810184848401111561310357600080fd5b61310e848285614339565b509392505050565b60008135905061312581614c55565b92915050565b600082601f83011261313c57600080fd5b813561314c848260208601612fc2565b91505092915050565b600082601f83011261316657600080fd5b813561317684826020860161302e565b91505092915050565b60008135905061318e81614c6c565b92915050565b6000813590506131a381614c83565b92915050565b6000815190506131b881614c83565b92915050565b600082601f8301126131cf57600080fd5b81356131df84826020860161309a565b91505092915050565b600082601f8301126131f957600080fd5b81356132098482602086016130d8565b91505092915050565b60008135905061322181614c9a565b92915050565b60006020828403121561323957600080fd5b600061324784828501613116565b91505092915050565b6000806040838503121561326357600080fd5b600061327185828601613116565b925050602061328285828601613116565b9150509250929050565b600080600080600060a086880312156132a457600080fd5b60006132b288828901613116565b95505060206132c388828901613116565b945050604086013567ffffffffffffffff8111156132e057600080fd5b6132ec88828901613155565b935050606086013567ffffffffffffffff81111561330957600080fd5b61331588828901613155565b925050608086013567ffffffffffffffff81111561333257600080fd5b61333e888289016131be565b9150509295509295909350565b600080600080600060a0868803121561336357600080fd5b600061337188828901613116565b955050602061338288828901613116565b945050604061339388828901613212565b93505060606133a488828901613212565b925050608086013567ffffffffffffffff8111156133c157600080fd5b6133cd888289016131be565b9150509295509295909350565b600080604083850312156133ed57600080fd5b60006133fb85828601613116565b925050602061340c8582860161317f565b9150509250929050565b6000806040838503121561342957600080fd5b600061343785828601613116565b925050602061344885828601613212565b9150509250929050565b6000806040838503121561346557600080fd5b600083013567ffffffffffffffff81111561347f57600080fd5b61348b8582860161312b565b925050602083013567ffffffffffffffff8111156134a857600080fd5b6134b485828601613155565b9150509250929050565b6000602082840312156134d057600080fd5b60006134de84828501613194565b91505092915050565b6000602082840312156134f957600080fd5b6000613507848285016131a9565b91505092915050565b60006020828403121561352257600080fd5b600082013567ffffffffffffffff81111561353c57600080fd5b613548848285016131e8565b91505092915050565b60006020828403121561356357600080fd5b600061357184828501613212565b91505092915050565b60006135868383613af0565b60208301905092915050565b61359b816142b3565b82525050565b60006135ac82614127565b6135b68185614155565b93506135c183614102565b8060005b838110156135f25781516135d9888261357a565b97506135e483614148565b9250506001810190506135c5565b5085935050505092915050565b613608816142c5565b82525050565b600061361982614132565b6136238185614166565b9350613633818560208601614348565b61363c81614560565b840191505092915050565b61365081614327565b82525050565b60006136618261413d565b61366b8185614182565b935061367b818560208601614348565b61368481614560565b840191505092915050565b600061369a8261413d565b6136a48185614193565b93506136b4818560208601614348565b80840191505092915050565b600081546136cd816143a5565b6136d78186614193565b945060018216600081146136f2576001811461370357613736565b60ff19831686528186019350613736565b61370c85614112565b60005b8381101561372e5781548189015260018201915060208101905061370f565b838801955050505b50505092915050565b600061374c603483614182565b91506137578261457e565b604082019050919050565b600061376f602083614182565b915061377a826145cd565b602082019050919050565b6000613792602883614182565b915061379d826145f6565b604082019050919050565b60006137b5601e83614182565b91506137c082614645565b602082019050919050565b60006137d8601683614182565b91506137e38261466e565b602082019050919050565b60006137fb600d83614193565b915061380682614697565b600d82019050919050565b600061381e602b83614182565b9150613829826146c0565b604082019050919050565b6000613841602683614182565b915061384c8261470f565b604082019050919050565b6000613864602983614182565b915061386f8261475e565b604082019050919050565b6000613887601483614182565b9150613892826147ad565b602082019050919050565b60006138aa603a83614182565b91506138b5826147d6565b604082019050919050565b60006138cd601d83614182565b91506138d882614825565b602082019050919050565b60006138f0602583614182565b91506138fb8261484e565b604082019050919050565b6000613913603283614182565b915061391e8261489d565b604082019050919050565b6000613936602a83614182565b9150613941826148ec565b604082019050919050565b6000613959602583614182565b91506139648261493b565b604082019050919050565b600061397c600e83614182565b91506139878261498a565b602082019050919050565b600061399f600583614193565b91506139aa826149b3565b600582019050919050565b60006139c2602083614182565b91506139cd826149dc565b602082019050919050565b60006139e5601983614182565b91506139f082614a05565b602082019050919050565b6000613a08603083614182565b9150613a1382614a2e565b604082019050919050565b6000613a2b600083614177565b9150613a3682614a7d565b600082019050919050565b6000613a4e600183614193565b9150613a5982614a80565b600182019050919050565b6000613a71602983614182565b9150613a7c82614aa9565b604082019050919050565b6000613a94602983614182565b9150613a9f82614af8565b604082019050919050565b6000613ab7602883614182565b9150613ac282614b47565b604082019050919050565b6000613ada601483614182565b9150613ae582614b96565b602082019050919050565b613af98161431d565b82525050565b613b088161431d565b82525050565b6000613b1a82866136c0565b9150613b26828561368f565b9150613b3182613a41565b9150613b3d828461368f565b9150613b4882613992565b9150819050949350505050565b6000613b6182846136c0565b9150613b6c826137ee565b915081905092915050565b6000613b8282613a1e565b9150819050919050565b6000602082019050613ba16000830184613592565b92915050565b600060a082019050613bbc6000830188613592565b613bc96020830187613592565b8181036040830152613bdb81866135a1565b90508181036060830152613bef81856135a1565b90508181036080830152613c03818461360e565b90509695505050505050565b600060a082019050613c246000830188613592565b613c316020830187613592565b613c3e6040830186613aff565b613c4b6060830185613aff565b8181036080830152613c5d818461360e565b90509695505050505050565b60006020820190508181036000830152613c8381846135a1565b905092915050565b60006040820190508181036000830152613ca581856135a1565b90508181036020830152613cb981846135a1565b90509392505050565b6000602082019050613cd760008301846135ff565b92915050565b60006020820190508181036000830152613cf78184613656565b905092915050565b60006020820190508181036000830152613d188161373f565b9050919050565b60006020820190508181036000830152613d3881613762565b9050919050565b60006020820190508181036000830152613d5881613785565b9050919050565b60006020820190508181036000830152613d78816137a8565b9050919050565b60006020820190508181036000830152613d98816137cb565b9050919050565b60006020820190508181036000830152613db881613811565b9050919050565b60006020820190508181036000830152613dd881613834565b9050919050565b60006020820190508181036000830152613df881613857565b9050919050565b60006020820190508181036000830152613e188161387a565b9050919050565b60006020820190508181036000830152613e388161389d565b9050919050565b60006020820190508181036000830152613e58816138c0565b9050919050565b60006020820190508181036000830152613e78816138e3565b9050919050565b60006020820190508181036000830152613e9881613906565b9050919050565b60006020820190508181036000830152613eb881613929565b9050919050565b60006020820190508181036000830152613ed88161394c565b9050919050565b60006020820190508181036000830152613ef88161396f565b9050919050565b60006020820190508181036000830152613f18816139b5565b9050919050565b60006020820190508181036000830152613f38816139d8565b9050919050565b60006020820190508181036000830152613f58816139fb565b9050919050565b60006020820190508181036000830152613f7881613a64565b9050919050565b60006020820190508181036000830152613f9881613a87565b9050919050565b60006020820190508181036000830152613fb881613aaa565b9050919050565b60006020820190508181036000830152613fd881613acd565b9050919050565b6000602082019050613ff46000830184613aff565b92915050565b600060408201905061400f6000830185613aff565b61401c6020830184613647565b9392505050565b600061402d61403e565b905061403982826143d7565b919050565b6000604051905090565b600067ffffffffffffffff8211156140635761406261450f565b5b602082029050602081019050919050565b600067ffffffffffffffff82111561408f5761408e61450f565b5b602082029050602081019050919050565b600067ffffffffffffffff8211156140bb576140ba61450f565b5b6140c482614560565b9050602081019050919050565b600067ffffffffffffffff8211156140ec576140eb61450f565b5b6140f582614560565b9050602081019050919050565b6000819050602082019050919050565b60008190508160005260206000209050919050565b600081519050919050565b600081519050919050565b600081519050919050565b6000602082019050919050565b600082825260208201905092915050565b600082825260208201905092915050565b600081905092915050565b600082825260208201905092915050565b600081905092915050565b60006141a98261431d565b91506141b48361431d565b9250827fffffffffffffffffffffffffffffffffffffffffffffffffffffffffffffffff038211156141e9576141e8614482565b5b828201905092915050565b60006141ff8261431d565b915061420a8361431d565b92508261421a576142196144b1565b5b828204905092915050565b60006142308261431d565b915061423b8361431d565b9250817fffffffffffffffffffffffffffffffffffffffffffffffffffffffffffffffff048311821515161561427457614273614482565b5b828202905092915050565b600061428a8261431d565b91506142958361431d565b9250828210156142a8576142a7614482565b5b828203905092915050565b60006142be826142fd565b9050919050565b60008115159050919050565b60007fffffffff0000000000000000000000000000000000000000000000000000000082169050919050565b600073ffffffffffffffffffffffffffffffffffffffff82169050919050565b6000819050919050565b60006143328261431d565b9050919050565b82818337600083830152505050565b60005b8381101561436657808201518184015260208101905061434b565b83811115614375576000848401525b50505050565b60006143868261431d565b9150600082141561439a57614399614482565b5b600182039050919050565b600060028204905060018216806143bd57607f821691505b602082108114156143d1576143d06144e0565b5b50919050565b6143e082614560565b810181811067ffffffffffffffff821117156143ff576143fe61450f565b5b80604052505050565b60006144138261431d565b91507fffffffffffffffffffffffffffffffffffffffffffffffffffffffffffffffff82141561444657614445614482565b5b600182019050919050565b600061445c8261431d565b91506144678361431d565b925082614477576144766144b1565b5b828206905092915050565b7f4e487b7100000000000000000000000000000000000000000000000000000000600052601160045260246000fd5b7f4e487b7100000000000000000000000000000000000000000000000000000000600052601260045260246000fd5b7f4e487b7100000000000000000000000000000000000000000000000000000000600052602260045260246000fd5b7f4e487b7100000000000000000000000000000000000000000000000000000000600052604160045260246000fd5b600060033d111561455d5760046000803e61455a600051614571565b90505b90565b6000601f19601f8301169050919050565b60008160e01c9050919050565b7f455243313135353a207472616e7366657220746f206e6f6e204552433131353560008201527f526563656976657220696d706c656d656e746572000000000000000000000000602082015250565b7f537472696e67733a20686578206c656e67746820696e73756666696369656e74600082015250565b7f455243313135353a204552433131353552656365697665722072656a6563746560008201527f6420746f6b656e73000000000000000000000000000000000000000000000000602082015250565b7f4e6f20636173746c6520666f7220746865207a65726f20616464726573730000600082015250565b7f506c656173652073656e6420302e303030342045544800000000000000000000600082015250565b7f636f6e74726163742e6a736f6e00000000000000000000000000000000000000600082015250565b7f455243313135353a2062616c616e636520717565727920666f7220746865207a60008201527f65726f2061646472657373000000000000000000000000000000000000000000602082015250565b7f4f776e61626c653a206e6577206f776e657220697320746865207a65726f206160008201527f6464726573730000000000000000000000000000000000000000000000000000602082015250565b7f455243313135353a2063616c6c6572206973206e6f74206f776e6572206e6f7260008201527f20617070726f7665640000000000000000000000000000000000000000000000602082015250565b7f4e6f2066756e647320746f207769746864726177000000000000000000000000600082015250565b7f416464726573733a20756e61626c6520746f2073656e642076616c75652c207260008201527f6563697069656e74206d61792068617665207265766572746564000000000000602082015250565b7f416464726573733a20696e73756666696369656e742062616c616e6365000000600082015250565b7f455243313135353a207472616e7366657220746f20746865207a65726f20616460008201527f6472657373000000000000000000000000000000000000000000000000000000602082015250565b7f455243313135353a207472616e736665722063616c6c6572206973206e6f742060008201527f6f776e6572206e6f7220617070726f7665640000000000000000000000000000602082015250565b7f455243313135353a20696e73756666696369656e742062616c616e636520666f60008201527f72207472616e7366657200000000000000000000000000000000000000000000602082015250565b7f455243313135353a204e6f206769667420666f7220746865207a65726f20616460008201527f6472657373000000000000000000000000000000000000000000000000000000602082015250565b7f4e6f7420656e6f75676820455448000000000000000000000000000000000000600082015250565b7f2e6a736f6e000000000000000000000000000000000000000000000000000000600082015250565b7f4f776e61626c653a2063616c6c6572206973206e6f7420746865206f776e6572600082015250565b7f436173746c6520616c7265616479206174206c6576656c203800000000000000600082015250565b7f455243313135353a20696e73756666696369656e742062616c616e636520666f60008201527f72207472616e7366657220626174636800000000000000000000000000000000602082015250565b50565b7f2d00000000000000000000000000000000000000000000000000000000000000600082015250565b7f455243313135353a2073657474696e6720617070726f76616c2073746174757360008201527f20666f722073656c660000000000000000000000000000000000000000000000602082015250565b7f455243313135353a206163636f756e747320616e6420696473206c656e67746860008201527f206d69736d617463680000000000000000000000000000000000000000000000602082015250565b7f455243313135353a2069647320616e6420616d6f756e7473206c656e6774682060008201527f6d69736d61746368000000000000000000000000000000000000000000000000602082015250565b7f4e465420616c72656164792072657665616c6564000000000000000000000000600082015250565b600060443d1015614bcf57614c52565b614bd761403e565b60043d036004823e80513d602482011167ffffffffffffffff82111715614bff575050614c52565b808201805167ffffffffffffffff811115614c1d5750505050614c52565b80602083010160043d038501811115614c3a575050505050614c52565b614c49826020018501866143d7565b82955050505050505b90565b614c5e816142b3565b8114614c6957600080fd5b50565b614c75816142c5565b8114614c8057600080fd5b50565b614c8c816142d1565b8114614c9757600080fd5b50565b614ca38161431d565b8114614cae57600080fd5b5056fea264697066735822122013afb70d18d2f8b77033afc84cb7e00c5f370e274359974d723e630d9aa2937264736f6c63430008040033",
  "linkReferences": {},
  "deployedLinkReferences": {}
}