{
  "_format": "hh-sol-artifact-1",
  "contractName": "Orthoverse",
  "sourceName": "contracts/Orthoverse.sol",
  "abi": [
    {
      "inputs": [
        {
          "internalType": "string",
          "name": "uri_",
          "type": "string"
        }
      ],
      "stateMutability": "nonpayable",
      "type": "constructor"
    },
    {
      "anonymous": false,
      "inputs": [
        {
          "indexed": true,
          "internalType": "address",
          "name": "account",
          "type": "address"
        },
        {
          "indexed": true,
          "internalType": "address",
          "name": "operator",
          "type": "address"
        },
        {
          "indexed": false,
          "internalType": "bool",
          "name": "approved",
          "type": "bool"
        }
      ],
      "name": "ApprovalForAll",
      "type": "event"
    },
    {
      "anonymous": false,
      "inputs": [
        {
          "indexed": true,
          "internalType": "address",
          "name": "previousOwner",
          "type": "address"
        },
        {
          "indexed": true,
          "internalType": "address",
          "name": "newOwner",
          "type": "address"
        }
      ],
      "name": "OwnershipTransferred",
      "type": "event"
    },
    {
      "anonymous": false,
      "inputs": [
        {
          "indexed": true,
          "internalType": "address",
          "name": "operator",
          "type": "address"
        },
        {
          "indexed": true,
          "internalType": "address",
          "name": "from",
          "type": "address"
        },
        {
          "indexed": true,
          "internalType": "address",
          "name": "to",
          "type": "address"
        },
        {
          "indexed": false,
          "internalType": "uint256[]",
          "name": "ids",
          "type": "uint256[]"
        },
        {
          "indexed": false,
          "internalType": "uint256[]",
          "name": "values",
          "type": "uint256[]"
        }
      ],
      "name": "TransferBatch",
      "type": "event"
    },
    {
      "anonymous": false,
      "inputs": [
        {
          "indexed": true,
          "internalType": "address",
          "name": "operator",
          "type": "address"
        },
        {
          "indexed": true,
          "internalType": "address",
          "name": "from",
          "type": "address"
        },
        {
          "indexed": true,
          "internalType": "address",
          "name": "to",
          "type": "address"
        },
        {
          "indexed": false,
          "internalType": "uint256",
          "name": "id",
          "type": "uint256"
        },
        {
          "indexed": false,
          "internalType": "uint256",
          "name": "value",
          "type": "uint256"
        }
      ],
      "name": "TransferSingle",
      "type": "event"
    },
    {
      "anonymous": false,
      "inputs": [
        {
          "indexed": false,
          "internalType": "string",
          "name": "value",
          "type": "string"
        },
        {
          "indexed": true,
          "internalType": "uint256",
          "name": "id",
          "type": "uint256"
        }
      ],
      "name": "URI",
      "type": "event"
    },
    {
      "inputs": [
        {
          "internalType": "address",
          "name": "account",
          "type": "address"
        },
        {
          "internalType": "uint256",
          "name": "id",
          "type": "uint256"
        }
      ],
      "name": "balanceOf",
      "outputs": [
        {
          "internalType": "uint256",
          "name": "",
          "type": "uint256"
        }
      ],
      "stateMutability": "view",
      "type": "function"
    },
    {
      "inputs": [
        {
          "internalType": "address[]",
          "name": "accounts",
          "type": "address[]"
        },
        {
          "internalType": "uint256[]",
          "name": "ids",
          "type": "uint256[]"
        }
      ],
      "name": "balanceOfBatch",
      "outputs": [
        {
          "internalType": "uint256[]",
          "name": "",
          "type": "uint256[]"
        }
      ],
      "stateMutability": "view",
      "type": "function"
    },
    {
      "inputs": [],
      "name": "contractURI",
      "outputs": [
        {
          "internalType": "string",
          "name": "",
          "type": "string"
        }
      ],
      "stateMutability": "view",
      "type": "function"
    },
    {
      "inputs": [
        {
          "internalType": "uint256",
          "name": "id",
          "type": "uint256"
        }
      ],
      "name": "exists",
      "outputs": [
        {
          "internalType": "bool",
          "name": "",
          "type": "bool"
        }
      ],
      "stateMutability": "view",
      "type": "function"
    },
    {
      "inputs": [
        {
          "internalType": "address",
          "name": "account",
          "type": "address"
        }
      ],
      "name": "gift",
      "outputs": [],
      "stateMutability": "nonpayable",
      "type": "function"
    },
    {
      "inputs": [
        {
          "internalType": "address",
          "name": "account",
          "type": "address"
        },
        {
          "internalType": "address",
          "name": "operator",
          "type": "address"
        }
      ],
      "name": "isApprovedForAll",
      "outputs": [
        {
          "internalType": "bool",
          "name": "",
          "type": "bool"
        }
      ],
      "stateMutability": "view",
      "type": "function"
    },
    {
      "inputs": [],
      "name": "isRevealed",
      "outputs": [
        {
          "internalType": "uint256",
          "name": "",
          "type": "uint256"
        }
      ],
      "stateMutability": "view",
      "type": "function"
    },
    {
      "inputs": [],
      "name": "owner",
      "outputs": [
        {
          "internalType": "address",
          "name": "",
          "type": "address"
        }
      ],
      "stateMutability": "view",
      "type": "function"
    },
    {
      "inputs": [],
      "name": "renounceOwnership",
      "outputs": [],
      "stateMutability": "nonpayable",
      "type": "function"
    },
    {
      "inputs": [],
      "name": "reveal",
      "outputs": [],
      "stateMutability": "nonpayable",
      "type": "function"
    },
    {
      "inputs": [
        {
          "internalType": "address",
          "name": "from",
          "type": "address"
        },
        {
          "internalType": "address",
          "name": "to",
          "type": "address"
        },
        {
          "internalType": "uint256[]",
          "name": "ids",
          "type": "uint256[]"
        },
        {
          "internalType": "uint256[]",
          "name": "amounts",
          "type": "uint256[]"
        },
        {
          "internalType": "bytes",
          "name": "data",
          "type": "bytes"
        }
      ],
      "name": "safeBatchTransferFrom",
      "outputs": [],
      "stateMutability": "nonpayable",
      "type": "function"
    },
    {
      "inputs": [
        {
          "internalType": "address",
          "name": "from",
          "type": "address"
        },
        {
          "internalType": "address",
          "name": "to",
          "type": "address"
        },
        {
          "internalType": "uint256",
          "name": "id",
          "type": "uint256"
        },
        {
          "internalType": "uint256",
          "name": "amount",
          "type": "uint256"
        },
        {
          "internalType": "bytes",
          "name": "data",
          "type": "bytes"
        }
      ],
      "name": "safeTransferFrom",
      "outputs": [],
      "stateMutability": "nonpayable",
      "type": "function"
    },
    {
      "inputs": [
        {
          "internalType": "address",
          "name": "operator",
          "type": "address"
        },
        {
          "internalType": "bool",
          "name": "approved",
          "type": "bool"
        }
      ],
      "name": "setApprovalForAll",
      "outputs": [],
      "stateMutability": "nonpayable",
      "type": "function"
    },
    {
      "inputs": [
        {
          "internalType": "string",
          "name": "newURI_",
          "type": "string"
        }
      ],
      "name": "setURI",
      "outputs": [],
      "stateMutability": "nonpayable",
      "type": "function"
    },
    {
      "inputs": [
        {
          "internalType": "bytes4",
          "name": "interfaceId",
          "type": "bytes4"
        }
      ],
      "name": "supportsInterface",
      "outputs": [
        {
          "internalType": "bool",
          "name": "",
          "type": "bool"
        }
      ],
      "stateMutability": "view",
      "type": "function"
    },
    {
      "inputs": [
        {
          "internalType": "uint256",
          "name": "id",
          "type": "uint256"
        }
      ],
      "name": "totalSupply",
      "outputs": [
        {
          "internalType": "uint256",
          "name": "",
          "type": "uint256"
        }
      ],
      "stateMutability": "view",
      "type": "function"
    },
    {
      "inputs": [
        {
          "internalType": "address",
          "name": "newOwner",
          "type": "address"
        }
      ],
      "name": "transferOwnership",
      "outputs": [],
      "stateMutability": "nonpayable",
      "type": "function"
    },
    {
      "inputs": [
        {
          "internalType": "uint256",
          "name": "tokenId",
          "type": "uint256"
        }
      ],
      "name": "uri",
      "outputs": [
        {
          "internalType": "string",
          "name": "",
          "type": "string"
        }
      ],
      "stateMutability": "view",
      "type": "function"
    }
  ],
  "bytecode": "0x60806040523480156200001157600080fd5b50604051620045293803806200452983398181016040528101906200003791906200027d565b8062000049816200007160201b60201c565b506200006a6200005e6200008d60201b60201c565b6200009560201b60201c565b5062000432565b8060029080519060200190620000899291906200015b565b5050565b600033905090565b6000600360009054906101000a900473ffffffffffffffffffffffffffffffffffffffff16905081600360006101000a81548173ffffffffffffffffffffffffffffffffffffffff021916908373ffffffffffffffffffffffffffffffffffffffff1602179055508173ffffffffffffffffffffffffffffffffffffffff168173ffffffffffffffffffffffffffffffffffffffff167f8be0079c531659141344cd1fd0a4f28419497f9722a3daafe3b4186f6b6457e060405160405180910390a35050565b828054620001699062000357565b90600052602060002090601f0160209004810192826200018d5760008555620001d9565b82601f10620001a857805160ff1916838001178555620001d9565b82800160010185558215620001d9579182015b82811115620001d8578251825591602001919060010190620001bb565b5b509050620001e89190620001ec565b5090565b5b8082111562000207576000816000905550600101620001ed565b5090565b6000620002226200021c84620002eb565b620002c2565b9050828152602081018484840111156200023b57600080fd5b6200024884828562000321565b509392505050565b600082601f8301126200026257600080fd5b8151620002748482602086016200020b565b91505092915050565b6000602082840312156200029057600080fd5b600082015167ffffffffffffffff811115620002ab57600080fd5b620002b98482850162000250565b91505092915050565b6000620002ce620002e1565b9050620002dc82826200038d565b919050565b6000604051905090565b600067ffffffffffffffff821115620003095762000308620003f2565b5b620003148262000421565b9050602081019050919050565b60005b838110156200034157808201518184015260208101905062000324565b8381111562000351576000848401525b50505050565b600060028204905060018216806200037057607f821691505b60208210811415620003875762000386620003c3565b5b50919050565b620003988262000421565b810181811067ffffffffffffffff82111715620003ba57620003b9620003f2565b5b80604052505050565b7f4e487b7100000000000000000000000000000000000000000000000000000000600052602260045260246000fd5b7f4e487b7100000000000000000000000000000000000000000000000000000000600052604160045260246000fd5b6000601f19601f8301169050919050565b6140e780620004426000396000f3fe608060405234801561001057600080fd5b50600436106101155760003560e01c80638da5cb5b116100a2578063cbfc4bce11610071578063cbfc4bce146102de578063e8a3d485146102fa578063e985e9c514610318578063f242432a14610348578063f2fde38b1461036457610115565b80638da5cb5b1461026a578063a22cb46514610288578063a475b5dd146102a4578063bd85b039146102ae57610115565b80632eb2c2d6116100e95780632eb2c2d6146101c65780634e1273f4146101e25780634f558e791461021257806354214f6914610242578063715018a61461026057610115565b8062fdd58e1461011a57806301ffc9a71461014a57806302fe53051461017a5780630e89341c14610196575b600080fd5b610134600480360381019061012f9190612c4a565b610380565b60405161014191906135cb565b60405180910390f35b610164600480360381019061015f9190612cf2565b6104d8565b60405161017191906133ae565b60405180910390f35b610194600480360381019061018f9190612d44565b6105ba565b005b6101b060048036038101906101ab9190612d85565b610642565b6040516101bd91906133c9565b60405180910390f35b6101e060048036038101906101db9190612ac0565b610679565b005b6101fc60048036038101906101f79190612c86565b61071a565b6040516102099190613355565b60405180910390f35b61022c60048036038101906102279190612d85565b6108cb565b60405161023991906133ae565b60405180910390f35b61024a6108d9565b60405161025791906135cb565b60405180910390f35b610268610951565b005b6102726109d9565b60405161027f9190613278565b60405180910390f35b6102a2600480360381019061029d9190612c0e565b610a03565b005b6102ac610a19565b005b6102c860048036038101906102c39190612d85565b610bb1565b6040516102d591906135cb565b60405180910390f35b6102f860048036038101906102f39190612a5b565b610bbf565b005b610302610dc8565b60405161030f91906133c9565b60405180910390f35b610332600480360381019061032d9190612a84565b610df0565b60405161033f91906133ae565b60405180910390f35b610362600480360381019061035d9190612b7f565b610e84565b005b61037e60048036038101906103799190612a5b565b610f25565b005b60008073ffffffffffffffffffffffffffffffffffffffff168373ffffffffffffffffffffffffffffffffffffffff1614156103f1576040517f08c379a00000000000000000000000000000000000000000000000000000000081526004016103e89061342b565b60405180910390fd5b8273ffffffffffffffffffffffffffffffffffffffff16821480156104655750600080600084815260200190815260200160002060008573ffffffffffffffffffffffffffffffffffffffff1673ffffffffffffffffffffffffffffffffffffffff16815260200190815260200160002054145b1561047357600190506104d2565b600260008084815260200190815260200160002060008573ffffffffffffffffffffffffffffffffffffffff1673ffffffffffffffffffffffffffffffffffffffff168152602001908152602001600020546104cf91906139eb565b90505b92915050565b60007fd9b67a26000000000000000000000000000000000000000000000000000000007bffffffffffffffffffffffffffffffffffffffffffffffffffffffff1916827bffffffffffffffffffffffffffffffffffffffffffffffffffffffff191614806105a357507f0e89341c000000000000000000000000000000000000000000000000000000007bffffffffffffffffffffffffffffffffffffffffffffffffffffffff1916827bffffffffffffffffffffffffffffffffffffffffffffffffffffffff1916145b806105b357506105b28261101d565b5b9050919050565b6105c2611087565b73ffffffffffffffffffffffffffffffffffffffff166105e06109d9565b73ffffffffffffffffffffffffffffffffffffffff1614610636576040517f08c379a000000000000000000000000000000000000000000000000000000000815260040161062d9061350b565b60405180910390fd5b61063f8161108f565b50565b606060026106528360001b6110a9565b604051602001610663929190613227565b6040516020818303038152906040529050919050565b610681611087565b73ffffffffffffffffffffffffffffffffffffffff168573ffffffffffffffffffffffffffffffffffffffff1614806106c757506106c6856106c1611087565b610df0565b5b610706576040517f08c379a00000000000000000000000000000000000000000000000000000000081526004016106fd906134ab565b60405180910390fd5b61071385858585856110e8565b5050505050565b60608151835114610760576040517f08c379a00000000000000000000000000000000000000000000000000000000081526004016107579061356b565b60405180910390fd5b6000835167ffffffffffffffff8111156107a3577f4e487b7100000000000000000000000000000000000000000000000000000000600052604160045260246000fd5b6040519080825280602002602001820160405280156107d15781602001602082028036833780820191505090505b50905060005b84518110156108c05761086a85828151811061081c577f4e487b7100000000000000000000000000000000000000000000000000000000600052603260045260246000fd5b602002602001015185838151811061085d577f4e487b7100000000000000000000000000000000000000000000000000000000600052603260045260246000fd5b6020026020010151610380565b8282815181106108a3577f4e487b7100000000000000000000000000000000000000000000000000000000600052603260045260246000fd5b602002602001018181525050806108b990613998565b90506107d7565b508091505092915050565b600080915060019050919050565b60008033905060008173ffffffffffffffffffffffffffffffffffffffff16905060008082815260200190815260200160002060008373ffffffffffffffffffffffffffffffffffffffff1673ffffffffffffffffffffffffffffffffffffffff168152602001908152602001600020549250505090565b610959611087565b73ffffffffffffffffffffffffffffffffffffffff166109776109d9565b73ffffffffffffffffffffffffffffffffffffffff16146109cd576040517f08c379a00000000000000000000000000000000000000000000000000000000081526004016109c49061350b565b60405180910390fd5b6109d760006116c8565b565b6000600360009054906101000a900473ffffffffffffffffffffffffffffffffffffffff16905090565b610a15610a0e611087565b838361178e565b5050565b600033905060008173ffffffffffffffffffffffffffffffffffffffff169050600080600083815260200190815260200160002060008473ffffffffffffffffffffffffffffffffffffffff1673ffffffffffffffffffffffffffffffffffffffff1681526020019081526020016000205414610acb576040517f08c379a0000000000000000000000000000000000000000000000000000000008152600401610ac2906135ab565b60405180910390fd5b600160008083815260200190815260200160002060008473ffffffffffffffffffffffffffffffffffffffff1673ffffffffffffffffffffffffffffffffffffffff168152602001908152602001600020819055506000610b2a611087565b90508273ffffffffffffffffffffffffffffffffffffffff16600073ffffffffffffffffffffffffffffffffffffffff168273ffffffffffffffffffffffffffffffffffffffff167fc3d58168c5ae7397731d063d5bbf3d657854427343f4c083240f7aacaa2d0f62856001604051610ba49291906135e6565b60405180910390a4505050565b600080915060019050919050565b600073ffffffffffffffffffffffffffffffffffffffff168173ffffffffffffffffffffffffffffffffffffffff161415610c2f576040517f08c379a0000000000000000000000000000000000000000000000000000000008152600401610c26906134eb565b60405180910390fd5b600081905060008173ffffffffffffffffffffffffffffffffffffffff169050600080600083815260200190815260200160002060008473ffffffffffffffffffffffffffffffffffffffff1673ffffffffffffffffffffffffffffffffffffffff1681526020019081526020016000205414610ce1576040517f08c379a0000000000000000000000000000000000000000000000000000000008152600401610cd8906135ab565b60405180910390fd5b600160008083815260200190815260200160002060008473ffffffffffffffffffffffffffffffffffffffff1673ffffffffffffffffffffffffffffffffffffffff168152602001908152602001600020819055506000610d40611087565b90508273ffffffffffffffffffffffffffffffffffffffff16600073ffffffffffffffffffffffffffffffffffffffff168273ffffffffffffffffffffffffffffffffffffffff167fc3d58168c5ae7397731d063d5bbf3d657854427343f4c083240f7aacaa2d0f62856001604051610dba9291906135e6565b60405180910390a450505050565b60606002604051602001610ddc9190613256565b604051602081830303815290604052905090565b6000600160008473ffffffffffffffffffffffffffffffffffffffff1673ffffffffffffffffffffffffffffffffffffffff16815260200190815260200160002060008373ffffffffffffffffffffffffffffffffffffffff1673ffffffffffffffffffffffffffffffffffffffff16815260200190815260200160002060009054906101000a900460ff16905092915050565b610e8c611087565b73ffffffffffffffffffffffffffffffffffffffff168573ffffffffffffffffffffffffffffffffffffffff161480610ed25750610ed185610ecc611087565b610df0565b5b610f11576040517f08c379a0000000000000000000000000000000000000000000000000000000008152600401610f089061346b565b60405180910390fd5b610f1e85858585856118fb565b5050505050565b610f2d611087565b73ffffffffffffffffffffffffffffffffffffffff16610f4b6109d9565b73ffffffffffffffffffffffffffffffffffffffff1614610fa1576040517f08c379a0000000000000000000000000000000000000000000000000000000008152600401610f989061350b565b60405180910390fd5b600073ffffffffffffffffffffffffffffffffffffffff168173ffffffffffffffffffffffffffffffffffffffff161415611011576040517f08c379a00000000000000000000000000000000000000000000000000000000081526004016110089061344b565b60405180910390fd5b61101a816116c8565b50565b60007f01ffc9a7000000000000000000000000000000000000000000000000000000007bffffffffffffffffffffffffffffffffffffffffffffffffffffffff1916827bffffffffffffffffffffffffffffffffffffffffffffffffffffffff1916149050919050565b600033905090565b80600290805190602001906110a5929190612753565b5050565b60606110b482611e0c565b6110c1608084901b611e0c565b6040516020016110d29291906131fb565b6040516020818303038152906040529050919050565b815183511461112c576040517f08c379a00000000000000000000000000000000000000000000000000000000081526004016111239061358b565b60405180910390fd5b600073ffffffffffffffffffffffffffffffffffffffff168473ffffffffffffffffffffffffffffffffffffffff16141561119c576040517f08c379a00000000000000000000000000000000000000000000000000000000081526004016111939061348b565b60405180910390fd5b60006111a6611087565b90506111b681878787878761206c565b60008573ffffffffffffffffffffffffffffffffffffffff16905060008773ffffffffffffffffffffffffffffffffffffffff169050600080600083815260200190815260200160002060008a73ffffffffffffffffffffffffffffffffffffffff1673ffffffffffffffffffffffffffffffffffffffff16815260200190815260200160002054141561132c57600160008083815260200190815260200160002060008a73ffffffffffffffffffffffffffffffffffffffff1673ffffffffffffffffffffffffffffffffffffffff16815260200190815260200160002060008282546112a4919061377f565b925050819055508773ffffffffffffffffffffffffffffffffffffffff16600073ffffffffffffffffffffffffffffffffffffffff168473ffffffffffffffffffffffffffffffffffffffff167fc3d58168c5ae7397731d063d5bbf3d657854427343f4c083240f7aacaa2d0f628460016040516113239291906135e6565b60405180910390a45b600080600084815260200190815260200160002060008973ffffffffffffffffffffffffffffffffffffffff1673ffffffffffffffffffffffffffffffffffffffff16815260200190815260200160002054141561146c57600160008084815260200190815260200160002060008973ffffffffffffffffffffffffffffffffffffffff1673ffffffffffffffffffffffffffffffffffffffff16815260200190815260200160002060008282546113e4919061377f565b925050819055508673ffffffffffffffffffffffffffffffffffffffff16600073ffffffffffffffffffffffffffffffffffffffff168473ffffffffffffffffffffffffffffffffffffffff167fc3d58168c5ae7397731d063d5bbf3d657854427343f4c083240f7aacaa2d0f628560016040516114639291906135e6565b60405180910390a45b60005b86518110156116315760008782815181106114b3577f4e487b7100000000000000000000000000000000000000000000000000000000600052603260045260246000fd5b60200260200101519050600080600083815260200190815260200160002060008c73ffffffffffffffffffffffffffffffffffffffff1673ffffffffffffffffffffffffffffffffffffffff168152602001908152602001600020549050600160028261152091906139eb565b14611560576040517f08c379a00000000000000000000000000000000000000000000000000000000081526004016115579061352b565b60405180910390fd5b6001810160008084815260200190815260200160002060008d73ffffffffffffffffffffffffffffffffffffffff1673ffffffffffffffffffffffffffffffffffffffff16815260200190815260200160002081905550600160008084815260200190815260200160002060008c73ffffffffffffffffffffffffffffffffffffffff1673ffffffffffffffffffffffffffffffffffffffff1681526020019081526020016000206000828254611617919061377f565b9250508190555050508061162a90613998565b905061146f565b508673ffffffffffffffffffffffffffffffffffffffff168873ffffffffffffffffffffffffffffffffffffffff168473ffffffffffffffffffffffffffffffffffffffff167f4a39dc06d4c0dbc64b70af90fd698a233a518aa5d07e595d983b8c0526c8f7fb89896040516116a8929190613377565b60405180910390a46116be838989898989612082565b5050505050505050565b6000600360009054906101000a900473ffffffffffffffffffffffffffffffffffffffff16905081600360006101000a81548173ffffffffffffffffffffffffffffffffffffffff021916908373ffffffffffffffffffffffffffffffffffffffff1602179055508173ffffffffffffffffffffffffffffffffffffffff168173ffffffffffffffffffffffffffffffffffffffff167f8be0079c531659141344cd1fd0a4f28419497f9722a3daafe3b4186f6b6457e060405160405180910390a35050565b8173ffffffffffffffffffffffffffffffffffffffff168373ffffffffffffffffffffffffffffffffffffffff1614156117fd576040517f08c379a00000000000000000000000000000000000000000000000000000000081526004016117f49061354b565b60405180910390fd5b80600160008573ffffffffffffffffffffffffffffffffffffffff1673ffffffffffffffffffffffffffffffffffffffff16815260200190815260200160002060008473ffffffffffffffffffffffffffffffffffffffff1673ffffffffffffffffffffffffffffffffffffffff16815260200190815260200160002060006101000a81548160ff0219169083151502179055508173ffffffffffffffffffffffffffffffffffffffff168373ffffffffffffffffffffffffffffffffffffffff167f17307eab39ab6107e8899845ad3d59bd9653f200f220920489ca2b5937696c31836040516118ee91906133ae565b60405180910390a3505050565b600073ffffffffffffffffffffffffffffffffffffffff168473ffffffffffffffffffffffffffffffffffffffff16141561196b576040517f08c379a00000000000000000000000000000000000000000000000000000000081526004016119629061348b565b60405180910390fd5b6000611975611087565b905060008573ffffffffffffffffffffffffffffffffffffffff169050600080600087815260200190815260200160002060008973ffffffffffffffffffffffffffffffffffffffff1673ffffffffffffffffffffffffffffffffffffffff168152602001908152602001600020541415611ac057600160008087815260200190815260200160002060008973ffffffffffffffffffffffffffffffffffffffff1673ffffffffffffffffffffffffffffffffffffffff168152602001908152602001600020819055508673ffffffffffffffffffffffffffffffffffffffff16600073ffffffffffffffffffffffffffffffffffffffff168373ffffffffffffffffffffffffffffffffffffffff167fc3d58168c5ae7397731d063d5bbf3d657854427343f4c083240f7aacaa2d0f62886001604051611ab79291906135e6565b60405180910390a45b600080600083815260200190815260200160002060008873ffffffffffffffffffffffffffffffffffffffff1673ffffffffffffffffffffffffffffffffffffffff168152602001908152602001600020541415611bee57600160008083815260200190815260200160002060008873ffffffffffffffffffffffffffffffffffffffff1673ffffffffffffffffffffffffffffffffffffffff168152602001908152602001600020819055508573ffffffffffffffffffffffffffffffffffffffff16600073ffffffffffffffffffffffffffffffffffffffff168373ffffffffffffffffffffffffffffffffffffffff167fc3d58168c5ae7397731d063d5bbf3d657854427343f4c083240f7aacaa2d0f62846001604051611be59291906135e6565b60405180910390a45b611c0c828888611bfd89612269565b611c0689612269565b8861206c565b600080600087815260200190815260200160002060008973ffffffffffffffffffffffffffffffffffffffff1673ffffffffffffffffffffffffffffffffffffffff1681526020019081526020016000205490506001600282611c6f91906139eb565b14611caf576040517f08c379a0000000000000000000000000000000000000000000000000000000008152600401611ca6906134cb565b60405180910390fd5b600160008088815260200190815260200160002060008a73ffffffffffffffffffffffffffffffffffffffff1673ffffffffffffffffffffffffffffffffffffffff16815260200190815260200160002060008282540192505081905550600160008088815260200190815260200160002060008973ffffffffffffffffffffffffffffffffffffffff1673ffffffffffffffffffffffffffffffffffffffff1681526020019081526020016000206000828254611d6d919061377f565b925050819055508673ffffffffffffffffffffffffffffffffffffffff168873ffffffffffffffffffffffffffffffffffffffff168473ffffffffffffffffffffffffffffffffffffffff167fc3d58168c5ae7397731d063d5bbf3d657854427343f4c083240f7aacaa2d0f62896001604051611deb9291906135e6565b60405180910390a4611e028389898960018961232f565b5050505050505050565b6000604077ffffffffffffffff0000000000000000000000000000000060001b836fffffffffffffffffffffffffffffffff191616901c7fffffffffffffffff00000000000000000000000000000000000000000000000060001b836fffffffffffffffffffffffffffffffff19161617905060207bffffffff000000000000000000000000ffffffff000000000000000060001b8216901c7fffffffff000000000000000000000000ffffffff00000000000000000000000060001b821617905060107dffff000000000000ffff000000000000ffff000000000000ffff0000000060001b8216901c7fffff000000000000ffff000000000000ffff000000000000ffff00000000000060001b821617905060087eff000000ff000000ff000000ff000000ff000000ff000000ff000000ff000060001b8216901c7fff000000ff000000ff000000ff000000ff000000ff000000ff000000ff00000060001b821617905060087f0f000f000f000f000f000f000f000f000f000f000f000f000f000f000f000f0060001b8216901c60047ff000f000f000f000f000f000f000f000f000f000f000f000f000f000f000f00060001b8316901c17905060277f0f0f0f0f0f0f0f0f0f0f0f0f0f0f0f0f0f0f0f0f0f0f0f0f0f0f0f0f0f0f0f0f60047f06060606060606060606060606060606060606060606060606060606060606068460001c61201c919061377f565b901c1661202991906137d5565b8160001c7f3030303030303030303030303030303030303030303030303030303030303030612058919061377f565b612062919061377f565b60001b9050919050565b61207a868686868686612516565b505050505050565b6120a18473ffffffffffffffffffffffffffffffffffffffff16612728565b15612261578373ffffffffffffffffffffffffffffffffffffffff1663bc197c8187878686866040518663ffffffff1660e01b81526004016120e7959493929190613293565b602060405180830381600087803b15801561210157600080fd5b505af192505050801561213257506040513d601f19601f8201168201806040525081019061212f9190612d1b565b60015b6121d85761213e613ad8565b806308c379a0141561219b5750612153613fbf565b8061215e575061219d565b806040517f08c379a000000000000000000000000000000000000000000000000000000000815260040161219291906133c9565b60405180910390fd5b505b6040517f08c379a00000000000000000000000000000000000000000000000000000000081526004016121cf906133eb565b60405180910390fd5b63bc197c8160e01b7bffffffffffffffffffffffffffffffffffffffffffffffffffffffff1916817bffffffffffffffffffffffffffffffffffffffffffffffffffffffff19161461225f576040517f08c379a00000000000000000000000000000000000000000000000000000000081526004016122569061340b565b60405180910390fd5b505b505050505050565b60606000600167ffffffffffffffff8111156122ae577f4e487b7100000000000000000000000000000000000000000000000000000000600052604160045260246000fd5b6040519080825280602002602001820160405280156122dc5781602001602082028036833780820191505090505b509050828160008151811061231a577f4e487b7100000000000000000000000000000000000000000000000000000000600052603260045260246000fd5b60200260200101818152505080915050919050565b61234e8473ffffffffffffffffffffffffffffffffffffffff16612728565b1561250e578373ffffffffffffffffffffffffffffffffffffffff1663f23a6e6187878686866040518663ffffffff1660e01b81526004016123949594939291906132fb565b602060405180830381600087803b1580156123ae57600080fd5b505af19250505080156123df57506040513d601f19601f820116820180604052508101906123dc9190612d1b565b60015b612485576123eb613ad8565b806308c379a014156124485750612400613fbf565b8061240b575061244a565b806040517f08c379a000000000000000000000000000000000000000000000000000000000815260040161243f91906133c9565b60405180910390fd5b505b6040517f08c379a000000000000000000000000000000000000000000000000000000000815260040161247c906133eb565b60405180910390fd5b63f23a6e6160e01b7bffffffffffffffffffffffffffffffffffffffffffffffffffffffff1916817bffffffffffffffffffffffffffffffffffffffffffffffffffffffff19161461250c576040517f08c379a00000000000000000000000000000000000000000000000000000000081526004016125039061340b565b60405180910390fd5b505b505050505050565b61252486868686868661274b565b600073ffffffffffffffffffffffffffffffffffffffff168573ffffffffffffffffffffffffffffffffffffffff1614156126225760005b83518110156126205782818151811061259e577f4e487b7100000000000000000000000000000000000000000000000000000000600052603260045260246000fd5b6020026020010151600460008684815181106125e3577f4e487b7100000000000000000000000000000000000000000000000000000000600052603260045260246000fd5b602002602001015181526020019081526020016000206000828254612608919061377f565b925050819055508061261990613998565b905061255c565b505b600073ffffffffffffffffffffffffffffffffffffffff168473ffffffffffffffffffffffffffffffffffffffff1614156127205760005b835181101561271e5782818151811061269c577f4e487b7100000000000000000000000000000000000000000000000000000000600052603260045260246000fd5b6020026020010151600460008684815181106126e1577f4e487b7100000000000000000000000000000000000000000000000000000000600052603260045260246000fd5b602002602001015181526020019081526020016000206000828254612706919061382f565b925050819055508061271790613998565b905061265a565b505b505050505050565b6000808273ffffffffffffffffffffffffffffffffffffffff163b119050919050565b505050505050565b82805461275f90613935565b90600052602060002090601f01602090048101928261278157600085556127c8565b82601f1061279a57805160ff19168380011785556127c8565b828001600101855582156127c8579182015b828111156127c75782518255916020019190600101906127ac565b5b5090506127d591906127d9565b5090565b5b808211156127f25760008160009055506001016127da565b5090565b600061280961280484613634565b61360f565b9050808382526020820190508285602086028201111561282857600080fd5b60005b85811015612858578161283e888261294a565b84526020840193506020830192505060018101905061282b565b5050509392505050565b600061287561287084613660565b61360f565b9050808382526020820190508285602086028201111561289457600080fd5b60005b858110156128c457816128aa8882612a46565b845260208401935060208301925050600181019050612897565b5050509392505050565b60006128e16128dc8461368c565b61360f565b9050828152602081018484840111156128f957600080fd5b6129048482856138f3565b509392505050565b600061291f61291a846136bd565b61360f565b90508281526020810184848401111561293757600080fd5b6129428482856138f3565b509392505050565b60008135905061295981614055565b92915050565b600082601f83011261297057600080fd5b81356129808482602086016127f6565b91505092915050565b600082601f83011261299a57600080fd5b81356129aa848260208601612862565b91505092915050565b6000813590506129c28161406c565b92915050565b6000813590506129d781614083565b92915050565b6000815190506129ec81614083565b92915050565b600082601f830112612a0357600080fd5b8135612a138482602086016128ce565b91505092915050565b600082601f830112612a2d57600080fd5b8135612a3d84826020860161290c565b91505092915050565b600081359050612a558161409a565b92915050565b600060208284031215612a6d57600080fd5b6000612a7b8482850161294a565b91505092915050565b60008060408385031215612a9757600080fd5b6000612aa58582860161294a565b9250506020612ab68582860161294a565b9150509250929050565b600080600080600060a08688031215612ad857600080fd5b6000612ae68882890161294a565b9550506020612af78882890161294a565b945050604086013567ffffffffffffffff811115612b1457600080fd5b612b2088828901612989565b935050606086013567ffffffffffffffff811115612b3d57600080fd5b612b4988828901612989565b925050608086013567ffffffffffffffff811115612b6657600080fd5b612b72888289016129f2565b9150509295509295909350565b600080600080600060a08688031215612b9757600080fd5b6000612ba58882890161294a565b9550506020612bb68882890161294a565b9450506040612bc788828901612a46565b9350506060612bd888828901612a46565b925050608086013567ffffffffffffffff811115612bf557600080fd5b612c01888289016129f2565b9150509295509295909350565b60008060408385031215612c2157600080fd5b6000612c2f8582860161294a565b9250506020612c40858286016129b3565b9150509250929050565b60008060408385031215612c5d57600080fd5b6000612c6b8582860161294a565b9250506020612c7c85828601612a46565b9150509250929050565b60008060408385031215612c9957600080fd5b600083013567ffffffffffffffff811115612cb357600080fd5b612cbf8582860161295f565b925050602083013567ffffffffffffffff811115612cdc57600080fd5b612ce885828601612989565b9150509250929050565b600060208284031215612d0457600080fd5b6000612d12848285016129c8565b91505092915050565b600060208284031215612d2d57600080fd5b6000612d3b848285016129dd565b91505092915050565b600060208284031215612d5657600080fd5b600082013567ffffffffffffffff811115612d7057600080fd5b612d7c84828501612a1c565b91505092915050565b600060208284031215612d9757600080fd5b6000612da584828501612a46565b91505092915050565b6000612dba83836131dd565b60208301905092915050565b612dcf81613863565b82525050565b6000612de082613713565b612dea8185613741565b9350612df5836136ee565b8060005b83811015612e26578151612e0d8882612dae565b9750612e1883613734565b925050600181019050612df9565b5085935050505092915050565b612e3c81613875565b82525050565b612e53612e4e82613881565b6139e1565b82525050565b6000612e648261371e565b612e6e8185613752565b9350612e7e818560208601613902565b612e8781613afa565b840191505092915050565b612e9b816138e1565b82525050565b6000612eac82613729565b612eb68185613763565b9350612ec6818560208601613902565b612ecf81613afa565b840191505092915050565b6000612ee582613729565b612eef8185613774565b9350612eff818560208601613902565b80840191505092915050565b60008154612f1881613935565b612f228186613774565b94506001821660008114612f3d5760018114612f4e57612f81565b60ff19831686528186019350612f81565b612f57856136fe565b60005b83811015612f7957815481890152600182019150602081019050612f5a565b838801955050505b50505092915050565b6000612f97603483613763565b9150612fa282613b18565b604082019050919050565b6000612fba602883613763565b9150612fc582613b67565b604082019050919050565b6000612fdd600d83613774565b9150612fe882613bb6565b600d82019050919050565b6000613000602b83613763565b915061300b82613bdf565b604082019050919050565b6000613023602683613763565b915061302e82613c2e565b604082019050919050565b6000613046602983613763565b915061305182613c7d565b604082019050919050565b6000613069602583613763565b915061307482613ccc565b604082019050919050565b600061308c603283613763565b915061309782613d1b565b604082019050919050565b60006130af602a83613763565b91506130ba82613d6a565b604082019050919050565b60006130d2602583613763565b91506130dd82613db9565b604082019050919050565b60006130f5600583613774565b915061310082613e08565b600582019050919050565b6000613118602083613763565b915061312382613e31565b602082019050919050565b600061313b603083613763565b915061314682613e5a565b604082019050919050565b600061315e602983613763565b915061316982613ea9565b604082019050919050565b6000613181602983613763565b915061318c82613ef8565b604082019050919050565b60006131a4602883613763565b91506131af82613f47565b604082019050919050565b60006131c7601483613763565b91506131d282613f96565b602082019050919050565b6131e6816138d7565b82525050565b6131f5816138d7565b82525050565b60006132078285612e42565b6020820191506132178284612e42565b6020820191508190509392505050565b60006132338285612f0b565b915061323f8284612eda565b915061324a826130e8565b91508190509392505050565b60006132628284612f0b565b915061326d82612fd0565b915081905092915050565b600060208201905061328d6000830184612dc6565b92915050565b600060a0820190506132a86000830188612dc6565b6132b56020830187612dc6565b81810360408301526132c78186612dd5565b905081810360608301526132db8185612dd5565b905081810360808301526132ef8184612e59565b90509695505050505050565b600060a0820190506133106000830188612dc6565b61331d6020830187612dc6565b61332a60408301866131ec565b61333760608301856131ec565b81810360808301526133498184612e59565b90509695505050505050565b6000602082019050818103600083015261336f8184612dd5565b905092915050565b600060408201905081810360008301526133918185612dd5565b905081810360208301526133a58184612dd5565b90509392505050565b60006020820190506133c36000830184612e33565b92915050565b600060208201905081810360008301526133e38184612ea1565b905092915050565b6000602082019050818103600083015261340481612f8a565b9050919050565b6000602082019050818103600083015261342481612fad565b9050919050565b6000602082019050818103600083015261344481612ff3565b9050919050565b6000602082019050818103600083015261346481613016565b9050919050565b6000602082019050818103600083015261348481613039565b9050919050565b600060208201905081810360008301526134a48161305c565b9050919050565b600060208201905081810360008301526134c48161307f565b9050919050565b600060208201905081810360008301526134e4816130a2565b9050919050565b60006020820190508181036000830152613504816130c5565b9050919050565b600060208201905081810360008301526135248161310b565b9050919050565b600060208201905081810360008301526135448161312e565b9050919050565b6000602082019050818103600083015261356481613151565b9050919050565b6000602082019050818103600083015261358481613174565b9050919050565b600060208201905081810360008301526135a481613197565b9050919050565b600060208201905081810360008301526135c4816131ba565b9050919050565b60006020820190506135e060008301846131ec565b92915050565b60006040820190506135fb60008301856131ec565b6136086020830184612e92565b9392505050565b600061361961362a565b90506136258282613967565b919050565b6000604051905090565b600067ffffffffffffffff82111561364f5761364e613aa9565b5b602082029050602081019050919050565b600067ffffffffffffffff82111561367b5761367a613aa9565b5b602082029050602081019050919050565b600067ffffffffffffffff8211156136a7576136a6613aa9565b5b6136b082613afa565b9050602081019050919050565b600067ffffffffffffffff8211156136d8576136d7613aa9565b5b6136e182613afa565b9050602081019050919050565b6000819050602082019050919050565b60008190508160005260206000209050919050565b600081519050919050565b600081519050919050565b600081519050919050565b6000602082019050919050565b600082825260208201905092915050565b600082825260208201905092915050565b600082825260208201905092915050565b600081905092915050565b600061378a826138d7565b9150613795836138d7565b9250827fffffffffffffffffffffffffffffffffffffffffffffffffffffffffffffffff038211156137ca576137c9613a1c565b5b828201905092915050565b60006137e0826138d7565b91506137eb836138d7565b9250817fffffffffffffffffffffffffffffffffffffffffffffffffffffffffffffffff048311821515161561382457613823613a1c565b5b828202905092915050565b600061383a826138d7565b9150613845836138d7565b92508282101561385857613857613a1c565b5b828203905092915050565b600061386e826138b7565b9050919050565b60008115159050919050565b6000819050919050565b60007fffffffff0000000000000000000000000000000000000000000000000000000082169050919050565b600073ffffffffffffffffffffffffffffffffffffffff82169050919050565b6000819050919050565b60006138ec826138d7565b9050919050565b82818337600083830152505050565b60005b83811015613920578082015181840152602081019050613905565b8381111561392f576000848401525b50505050565b6000600282049050600182168061394d57607f821691505b6020821081141561396157613960613a7a565b5b50919050565b61397082613afa565b810181811067ffffffffffffffff8211171561398f5761398e613aa9565b5b80604052505050565b60006139a3826138d7565b91507fffffffffffffffffffffffffffffffffffffffffffffffffffffffffffffffff8214156139d6576139d5613a1c565b5b600182019050919050565b6000819050919050565b60006139f6826138d7565b9150613a01836138d7565b925082613a1157613a10613a4b565b5b828206905092915050565b7f4e487b7100000000000000000000000000000000000000000000000000000000600052601160045260246000fd5b7f4e487b7100000000000000000000000000000000000000000000000000000000600052601260045260246000fd5b7f4e487b7100000000000000000000000000000000000000000000000000000000600052602260045260246000fd5b7f4e487b7100000000000000000000000000000000000000000000000000000000600052604160045260246000fd5b600060033d1115613af75760046000803e613af4600051613b0b565b90505b90565b6000601f19601f8301169050919050565b60008160e01c9050919050565b7f455243313135353a207472616e7366657220746f206e6f6e204552433131353560008201527f526563656976657220696d706c656d656e746572000000000000000000000000602082015250565b7f455243313135353a204552433131353552656365697665722072656a6563746560008201527f6420746f6b656e73000000000000000000000000000000000000000000000000602082015250565b7f636f6e74726163742e6a736f6e00000000000000000000000000000000000000600082015250565b7f455243313135353a2062616c616e636520717565727920666f7220746865207a60008201527f65726f2061646472657373000000000000000000000000000000000000000000602082015250565b7f4f776e61626c653a206e6577206f776e657220697320746865207a65726f206160008201527f6464726573730000000000000000000000000000000000000000000000000000602082015250565b7f455243313135353a2063616c6c6572206973206e6f74206f776e6572206e6f7260008201527f20617070726f7665640000000000000000000000000000000000000000000000602082015250565b7f455243313135353a207472616e7366657220746f20746865207a65726f20616460008201527f6472657373000000000000000000000000000000000000000000000000000000602082015250565b7f455243313135353a207472616e736665722063616c6c6572206973206e6f742060008201527f6f776e6572206e6f7220617070726f7665640000000000000000000000000000602082015250565b7f455243313135353a20696e73756666696369656e742062616c616e636520666f60008201527f72207472616e7366657200000000000000000000000000000000000000000000602082015250565b7f455243313135353a204e6f206769667420666f7220746865207a65726f20616460008201527f6472657373000000000000000000000000000000000000000000000000000000602082015250565b7f2e6a736f6e000000000000000000000000000000000000000000000000000000600082015250565b7f4f776e61626c653a2063616c6c6572206973206e6f7420746865206f776e6572600082015250565b7f455243313135353a20696e73756666696369656e742062616c616e636520666f60008201527f72207472616e7366657220626174636800000000000000000000000000000000602082015250565b7f455243313135353a2073657474696e6720617070726f76616c2073746174757360008201527f20666f722073656c660000000000000000000000000000000000000000000000602082015250565b7f455243313135353a206163636f756e747320616e6420696473206c656e67746860008201527f206d69736d617463680000000000000000000000000000000000000000000000602082015250565b7f455243313135353a2069647320616e6420616d6f756e7473206c656e6774682060008201527f6d69736d61746368000000000000000000000000000000000000000000000000602082015250565b7f4e465420616c72656164792072657665616c6564000000000000000000000000600082015250565b600060443d1015613fcf57614052565b613fd761362a565b60043d036004823e80513d602482011167ffffffffffffffff82111715613fff575050614052565b808201805167ffffffffffffffff81111561401d5750505050614052565b80602083010160043d03850181111561403a575050505050614052565b61404982602001850186613967565b82955050505050505b90565b61405e81613863565b811461406957600080fd5b50565b61407581613875565b811461408057600080fd5b50565b61408c8161388b565b811461409757600080fd5b50565b6140a3816138d7565b81146140ae57600080fd5b5056fea2646970667358221220f4a5716854603c071a11e01cd2f628c28cd2980127275fd65b4d4cffda29620d64736f6c63430008040033",
  "linkReferences": {},
  "deployedLinkReferences": {}
}