{
  "_format": "hh-sol-artifact-1",
  "contractName": "Orthoverse",
  "sourceName": "contracts/Orthoverse.sol",
  "abi": [
    {
      "inputs": [],
      "stateMutability": "nonpayable",
      "type": "constructor"
    },
    {
      "anonymous": false,
      "inputs": [
        {
          "indexed": true,
          "internalType": "address",
          "name": "account",
          "type": "address"
        },
        {
          "indexed": true,
          "internalType": "address",
          "name": "operator",
          "type": "address"
        },
        {
          "indexed": false,
          "internalType": "bool",
          "name": "approved",
          "type": "bool"
        }
      ],
      "name": "ApprovalForAll",
      "type": "event"
    },
    {
      "anonymous": false,
      "inputs": [
        {
          "indexed": true,
          "internalType": "address",
          "name": "previousOwner",
          "type": "address"
        },
        {
          "indexed": true,
          "internalType": "address",
          "name": "newOwner",
          "type": "address"
        }
      ],
      "name": "OwnershipTransferred",
      "type": "event"
    },
    {
      "anonymous": false,
      "inputs": [
        {
          "indexed": true,
          "internalType": "address",
          "name": "operator",
          "type": "address"
        },
        {
          "indexed": true,
          "internalType": "address",
          "name": "from",
          "type": "address"
        },
        {
          "indexed": true,
          "internalType": "address",
          "name": "to",
          "type": "address"
        },
        {
          "indexed": false,
          "internalType": "uint256[]",
          "name": "ids",
          "type": "uint256[]"
        },
        {
          "indexed": false,
          "internalType": "uint256[]",
          "name": "values",
          "type": "uint256[]"
        }
      ],
      "name": "TransferBatch",
      "type": "event"
    },
    {
      "anonymous": false,
      "inputs": [
        {
          "indexed": true,
          "internalType": "address",
          "name": "operator",
          "type": "address"
        },
        {
          "indexed": true,
          "internalType": "address",
          "name": "from",
          "type": "address"
        },
        {
          "indexed": true,
          "internalType": "address",
          "name": "to",
          "type": "address"
        },
        {
          "indexed": false,
          "internalType": "uint256",
          "name": "id",
          "type": "uint256"
        },
        {
          "indexed": false,
          "internalType": "uint256",
          "name": "value",
          "type": "uint256"
        }
      ],
      "name": "TransferSingle",
      "type": "event"
    },
    {
      "anonymous": false,
      "inputs": [
        {
          "indexed": false,
          "internalType": "string",
          "name": "value",
          "type": "string"
        },
        {
          "indexed": true,
          "internalType": "uint256",
          "name": "id",
          "type": "uint256"
        }
      ],
      "name": "URI",
      "type": "event"
    },
    {
      "inputs": [
        {
          "internalType": "address",
          "name": "account",
          "type": "address"
        },
        {
          "internalType": "uint256",
          "name": "id",
          "type": "uint256"
        }
      ],
      "name": "balanceOf",
      "outputs": [
        {
          "internalType": "uint256",
          "name": "",
          "type": "uint256"
        }
      ],
      "stateMutability": "view",
      "type": "function"
    },
    {
      "inputs": [
        {
          "internalType": "address[]",
          "name": "accounts",
          "type": "address[]"
        },
        {
          "internalType": "uint256[]",
          "name": "ids",
          "type": "uint256[]"
        }
      ],
      "name": "balanceOfBatch",
      "outputs": [
        {
          "internalType": "uint256[]",
          "name": "",
          "type": "uint256[]"
        }
      ],
      "stateMutability": "view",
      "type": "function"
    },
    {
      "inputs": [],
      "name": "contractURI",
      "outputs": [
        {
          "internalType": "string",
          "name": "",
          "type": "string"
        }
      ],
      "stateMutability": "view",
      "type": "function"
    },
    {
      "inputs": [
        {
          "internalType": "uint256",
          "name": "id",
          "type": "uint256"
        }
      ],
      "name": "exists",
      "outputs": [
        {
          "internalType": "bool",
          "name": "",
          "type": "bool"
        }
      ],
      "stateMutability": "view",
      "type": "function"
    },
    {
      "inputs": [
        {
          "internalType": "address",
          "name": "account",
          "type": "address"
        },
        {
          "internalType": "address",
          "name": "operator",
          "type": "address"
        }
      ],
      "name": "isApprovedForAll",
      "outputs": [
        {
          "internalType": "bool",
          "name": "",
          "type": "bool"
        }
      ],
      "stateMutability": "view",
      "type": "function"
    },
    {
      "inputs": [],
      "name": "owner",
      "outputs": [
        {
          "internalType": "address",
          "name": "",
          "type": "address"
        }
      ],
      "stateMutability": "view",
      "type": "function"
    },
    {
      "inputs": [],
      "name": "renounceOwnership",
      "outputs": [],
      "stateMutability": "nonpayable",
      "type": "function"
    },
    {
      "inputs": [],
      "name": "reveal",
      "outputs": [],
      "stateMutability": "nonpayable",
      "type": "function"
    },
    {
      "inputs": [
        {
          "internalType": "address",
          "name": "from",
          "type": "address"
        },
        {
          "internalType": "address",
          "name": "to",
          "type": "address"
        },
        {
          "internalType": "uint256[]",
          "name": "ids",
          "type": "uint256[]"
        },
        {
          "internalType": "uint256[]",
          "name": "amounts",
          "type": "uint256[]"
        },
        {
          "internalType": "bytes",
          "name": "data",
          "type": "bytes"
        }
      ],
      "name": "safeBatchTransferFrom",
      "outputs": [],
      "stateMutability": "nonpayable",
      "type": "function"
    },
    {
      "inputs": [
        {
          "internalType": "address",
          "name": "from",
          "type": "address"
        },
        {
          "internalType": "address",
          "name": "to",
          "type": "address"
        },
        {
          "internalType": "uint256",
          "name": "id",
          "type": "uint256"
        },
        {
          "internalType": "uint256",
          "name": "amount",
          "type": "uint256"
        },
        {
          "internalType": "bytes",
          "name": "data",
          "type": "bytes"
        }
      ],
      "name": "safeTransferFrom",
      "outputs": [],
      "stateMutability": "nonpayable",
      "type": "function"
    },
    {
      "inputs": [
        {
          "internalType": "address",
          "name": "operator",
          "type": "address"
        },
        {
          "internalType": "bool",
          "name": "approved",
          "type": "bool"
        }
      ],
      "name": "setApprovalForAll",
      "outputs": [],
      "stateMutability": "nonpayable",
      "type": "function"
    },
    {
      "inputs": [
        {
          "internalType": "string",
          "name": "newuri",
          "type": "string"
        }
      ],
      "name": "setURI",
      "outputs": [],
      "stateMutability": "nonpayable",
      "type": "function"
    },
    {
      "inputs": [
        {
          "internalType": "bytes4",
          "name": "interfaceId",
          "type": "bytes4"
        }
      ],
      "name": "supportsInterface",
      "outputs": [
        {
          "internalType": "bool",
          "name": "",
          "type": "bool"
        }
      ],
      "stateMutability": "view",
      "type": "function"
    },
    {
      "inputs": [
        {
          "internalType": "uint256",
          "name": "id",
          "type": "uint256"
        }
      ],
      "name": "totalSupply",
      "outputs": [
        {
          "internalType": "uint256",
          "name": "",
          "type": "uint256"
        }
      ],
      "stateMutability": "view",
      "type": "function"
    },
    {
      "inputs": [
        {
          "internalType": "address",
          "name": "newOwner",
          "type": "address"
        }
      ],
      "name": "transferOwnership",
      "outputs": [],
      "stateMutability": "nonpayable",
      "type": "function"
    },
    {
      "inputs": [
        {
          "internalType": "uint256",
          "name": "tokenId",
          "type": "uint256"
        }
      ],
      "name": "uri",
      "outputs": [
        {
          "internalType": "string",
          "name": "",
          "type": "string"
        }
      ],
      "stateMutability": "view",
      "type": "function"
    }
  ],
  "bytecode": "0x60806040523480156200001157600080fd5b5060405180606001604052806023815260200162003fdf602391396200003d816200006460201b60201c565b506200005e620000526200008060201b60201c565b6200008860201b60201c565b62000263565b80600290805190602001906200007c9291906200014e565b5050565b600033905090565b6000600360009054906101000a900473ffffffffffffffffffffffffffffffffffffffff16905081600360006101000a81548173ffffffffffffffffffffffffffffffffffffffff021916908373ffffffffffffffffffffffffffffffffffffffff1602179055508173ffffffffffffffffffffffffffffffffffffffff168173ffffffffffffffffffffffffffffffffffffffff167f8be0079c531659141344cd1fd0a4f28419497f9722a3daafe3b4186f6b6457e060405160405180910390a35050565b8280546200015c90620001fe565b90600052602060002090601f016020900481019282620001805760008555620001cc565b82601f106200019b57805160ff1916838001178555620001cc565b82800160010185558215620001cc579182015b82811115620001cb578251825591602001919060010190620001ae565b5b509050620001db9190620001df565b5090565b5b80821115620001fa576000816000905550600101620001e0565b5090565b600060028204905060018216806200021757607f821691505b602082108114156200022e576200022d62000234565b5b50919050565b7f4e487b7100000000000000000000000000000000000000000000000000000000600052602260045260246000fd5b613d6c80620002736000396000f3fe608060405234801561001057600080fd5b50600436106100ff5760003560e01c80638da5cb5b11610097578063e8a3d48511610066578063e8a3d485146102aa578063e985e9c5146102c8578063f242432a146102f8578063f2fde38b14610314576100ff565b80638da5cb5b14610236578063a22cb46514610254578063a475b5dd14610270578063bd85b0391461027a576100ff565b80632eb2c2d6116100d35780632eb2c2d6146101b05780634e1273f4146101cc5780634f558e79146101fc578063715018a61461022c576100ff565b8062fdd58e1461010457806301ffc9a71461013457806302fe5305146101645780630e89341c14610180575b600080fd5b61011e600480360381019061011991906129cd565b610330565b60405161012b91906132c8565b60405180910390f35b61014e60048036038101906101499190612a75565b610488565b60405161015b91906130eb565b60405180910390f35b61017e60048036038101906101799190612ac7565b61056a565b005b61019a60048036038101906101959190612b08565b6105f2565b6040516101a79190613106565b60405180910390f35b6101ca60048036038101906101c59190612843565b610629565b005b6101e660048036038101906101e19190612a09565b6106ca565b6040516101f39190613092565b60405180910390f35b61021660048036038101906102119190612b08565b61087b565b60405161022391906130eb565b60405180910390f35b61023461088f565b005b61023e610917565b60405161024b9190612fb5565b60405180910390f35b61026e60048036038101906102699190612991565b610941565b005b610278610957565b005b610294600480360381019061028f9190612b08565b610b19565b6040516102a191906132c8565b60405180910390f35b6102b2610b27565b6040516102bf9190613106565b60405180910390f35b6102e260048036038101906102dd9190612807565b610b4f565b6040516102ef91906130eb565b60405180910390f35b610312600480360381019061030d9190612902565b610be3565b005b61032e600480360381019061032991906127de565b610c84565b005b60008073ffffffffffffffffffffffffffffffffffffffff168373ffffffffffffffffffffffffffffffffffffffff1614156103a1576040517f08c379a000000000000000000000000000000000000000000000000000000000815260040161039890613168565b60405180910390fd5b8273ffffffffffffffffffffffffffffffffffffffff16821480156104155750600080600084815260200190815260200160002060008573ffffffffffffffffffffffffffffffffffffffff1673ffffffffffffffffffffffffffffffffffffffff16815260200190815260200160002054145b156104235760019050610482565b600260008084815260200190815260200160002060008573ffffffffffffffffffffffffffffffffffffffff1673ffffffffffffffffffffffffffffffffffffffff1681526020019081526020016000205461047f91906136e8565b90505b92915050565b60007fd9b67a26000000000000000000000000000000000000000000000000000000007bffffffffffffffffffffffffffffffffffffffffffffffffffffffff1916827bffffffffffffffffffffffffffffffffffffffffffffffffffffffff1916148061055357507f0e89341c000000000000000000000000000000000000000000000000000000007bffffffffffffffffffffffffffffffffffffffffffffffffffffffff1916827bffffffffffffffffffffffffffffffffffffffffffffffffffffffff1916145b80610563575061056282610d7c565b5b9050919050565b610572610de6565b73ffffffffffffffffffffffffffffffffffffffff16610590610917565b73ffffffffffffffffffffffffffffffffffffffff16146105e6576040517f08c379a00000000000000000000000000000000000000000000000000000000081526004016105dd90613228565b60405180910390fd5b6105ef81610dee565b50565b606060026106028360001b610e08565b604051602001610613929190612f64565b6040516020818303038152906040529050919050565b610631610de6565b73ffffffffffffffffffffffffffffffffffffffff168573ffffffffffffffffffffffffffffffffffffffff161480610677575061067685610671610de6565b610b4f565b5b6106b6576040517f08c379a00000000000000000000000000000000000000000000000000000000081526004016106ad906131e8565b60405180910390fd5b6106c38585858585610e47565b5050505050565b60608151835114610710576040517f08c379a000000000000000000000000000000000000000000000000000000000815260040161070790613288565b60405180910390fd5b6000835167ffffffffffffffff811115610753577f4e487b7100000000000000000000000000000000000000000000000000000000600052604160045260246000fd5b6040519080825280602002602001820160405280156107815781602001602082028036833780820191505090505b50905060005b84518110156108705761081a8582815181106107cc577f4e487b7100000000000000000000000000000000000000000000000000000000600052603260045260246000fd5b602002602001015185838151811061080d577f4e487b7100000000000000000000000000000000000000000000000000000000600052603260045260246000fd5b6020026020010151610330565b828281518110610853577f4e487b7100000000000000000000000000000000000000000000000000000000600052603260045260246000fd5b6020026020010181815250508061086990613695565b9050610787565b508091505092915050565b60008061088783610b19565b119050919050565b610897610de6565b73ffffffffffffffffffffffffffffffffffffffff166108b5610917565b73ffffffffffffffffffffffffffffffffffffffff161461090b576040517f08c379a000000000000000000000000000000000000000000000000000000000815260040161090290613228565b60405180910390fd5b6109156000611427565b565b6000600360009054906101000a900473ffffffffffffffffffffffffffffffffffffffff16905090565b61095361094c610de6565b83836114ed565b5050565b600033905060008173ffffffffffffffffffffffffffffffffffffffff169050600073ffffffffffffffffffffffffffffffffffffffff168273ffffffffffffffffffffffffffffffffffffffff1614156109e7576040517f08c379a00000000000000000000000000000000000000000000000000000000081526004016109de906131c8565b60405180910390fd5b600080600083815260200190815260200160002060008473ffffffffffffffffffffffffffffffffffffffff1673ffffffffffffffffffffffffffffffffffffffff168152602001908152602001600020541415610b1557600160008083815260200190815260200160002060008473ffffffffffffffffffffffffffffffffffffffff1673ffffffffffffffffffffffffffffffffffffffff168152602001908152602001600020819055508173ffffffffffffffffffffffffffffffffffffffff16600073ffffffffffffffffffffffffffffffffffffffff168373ffffffffffffffffffffffffffffffffffffffff167fc3d58168c5ae7397731d063d5bbf3d657854427343f4c083240f7aacaa2d0f62846001604051610b0c9291906132e3565b60405180910390a45b5050565b600080915060019050919050565b60606002604051602001610b3b9190612f93565b604051602081830303815290604052905090565b6000600160008473ffffffffffffffffffffffffffffffffffffffff1673ffffffffffffffffffffffffffffffffffffffff16815260200190815260200160002060008373ffffffffffffffffffffffffffffffffffffffff1673ffffffffffffffffffffffffffffffffffffffff16815260200190815260200160002060009054906101000a900460ff16905092915050565b610beb610de6565b73ffffffffffffffffffffffffffffffffffffffff168573ffffffffffffffffffffffffffffffffffffffff161480610c315750610c3085610c2b610de6565b610b4f565b5b610c70576040517f08c379a0000000000000000000000000000000000000000000000000000000008152600401610c67906131a8565b60405180910390fd5b610c7d858585858561165a565b5050505050565b610c8c610de6565b73ffffffffffffffffffffffffffffffffffffffff16610caa610917565b73ffffffffffffffffffffffffffffffffffffffff1614610d00576040517f08c379a0000000000000000000000000000000000000000000000000000000008152600401610cf790613228565b60405180910390fd5b600073ffffffffffffffffffffffffffffffffffffffff168173ffffffffffffffffffffffffffffffffffffffff161415610d70576040517f08c379a0000000000000000000000000000000000000000000000000000000008152600401610d6790613188565b60405180910390fd5b610d7981611427565b50565b60007f01ffc9a7000000000000000000000000000000000000000000000000000000007bffffffffffffffffffffffffffffffffffffffffffffffffffffffff1916827bffffffffffffffffffffffffffffffffffffffffffffffffffffffff1916149050919050565b600033905090565b8060029080519060200190610e049291906124d6565b5050565b6060610e1382611b8f565b610e20608084901b611b8f565b604051602001610e31929190612f38565b6040516020818303038152906040529050919050565b8151835114610e8b576040517f08c379a0000000000000000000000000000000000000000000000000000000008152600401610e82906132a8565b60405180910390fd5b600073ffffffffffffffffffffffffffffffffffffffff168473ffffffffffffffffffffffffffffffffffffffff161415610efb576040517f08c379a0000000000000000000000000000000000000000000000000000000008152600401610ef2906131c8565b60405180910390fd5b6000610f05610de6565b9050610f15818787878787611def565b60008573ffffffffffffffffffffffffffffffffffffffff16905060008773ffffffffffffffffffffffffffffffffffffffff169050600080600083815260200190815260200160002060008a73ffffffffffffffffffffffffffffffffffffffff1673ffffffffffffffffffffffffffffffffffffffff16815260200190815260200160002054141561108b57600160008083815260200190815260200160002060008a73ffffffffffffffffffffffffffffffffffffffff1673ffffffffffffffffffffffffffffffffffffffff1681526020019081526020016000206000828254611003919061347c565b925050819055508773ffffffffffffffffffffffffffffffffffffffff16600073ffffffffffffffffffffffffffffffffffffffff168473ffffffffffffffffffffffffffffffffffffffff167fc3d58168c5ae7397731d063d5bbf3d657854427343f4c083240f7aacaa2d0f628460016040516110829291906132e3565b60405180910390a45b600080600084815260200190815260200160002060008973ffffffffffffffffffffffffffffffffffffffff1673ffffffffffffffffffffffffffffffffffffffff1681526020019081526020016000205414156111cb57600160008084815260200190815260200160002060008973ffffffffffffffffffffffffffffffffffffffff1673ffffffffffffffffffffffffffffffffffffffff1681526020019081526020016000206000828254611143919061347c565b925050819055508673ffffffffffffffffffffffffffffffffffffffff16600073ffffffffffffffffffffffffffffffffffffffff168473ffffffffffffffffffffffffffffffffffffffff167fc3d58168c5ae7397731d063d5bbf3d657854427343f4c083240f7aacaa2d0f628560016040516111c29291906132e3565b60405180910390a45b60005b8651811015611390576000878281518110611212577f4e487b7100000000000000000000000000000000000000000000000000000000600052603260045260246000fd5b60200260200101519050600080600083815260200190815260200160002060008c73ffffffffffffffffffffffffffffffffffffffff1673ffffffffffffffffffffffffffffffffffffffff168152602001908152602001600020549050600160028261127f91906136e8565b146112bf576040517f08c379a00000000000000000000000000000000000000000000000000000000081526004016112b690613248565b60405180910390fd5b6001810160008084815260200190815260200160002060008d73ffffffffffffffffffffffffffffffffffffffff1673ffffffffffffffffffffffffffffffffffffffff16815260200190815260200160002081905550600160008084815260200190815260200160002060008c73ffffffffffffffffffffffffffffffffffffffff1673ffffffffffffffffffffffffffffffffffffffff1681526020019081526020016000206000828254611376919061347c565b9250508190555050508061138990613695565b90506111ce565b508673ffffffffffffffffffffffffffffffffffffffff168873ffffffffffffffffffffffffffffffffffffffff168473ffffffffffffffffffffffffffffffffffffffff167f4a39dc06d4c0dbc64b70af90fd698a233a518aa5d07e595d983b8c0526c8f7fb89896040516114079291906130b4565b60405180910390a461141d838989898989611e05565b5050505050505050565b6000600360009054906101000a900473ffffffffffffffffffffffffffffffffffffffff16905081600360006101000a81548173ffffffffffffffffffffffffffffffffffffffff021916908373ffffffffffffffffffffffffffffffffffffffff1602179055508173ffffffffffffffffffffffffffffffffffffffff168173ffffffffffffffffffffffffffffffffffffffff167f8be0079c531659141344cd1fd0a4f28419497f9722a3daafe3b4186f6b6457e060405160405180910390a35050565b8173ffffffffffffffffffffffffffffffffffffffff168373ffffffffffffffffffffffffffffffffffffffff16141561155c576040517f08c379a000000000000000000000000000000000000000000000000000000000815260040161155390613268565b60405180910390fd5b80600160008573ffffffffffffffffffffffffffffffffffffffff1673ffffffffffffffffffffffffffffffffffffffff16815260200190815260200160002060008473ffffffffffffffffffffffffffffffffffffffff1673ffffffffffffffffffffffffffffffffffffffff16815260200190815260200160002060006101000a81548160ff0219169083151502179055508173ffffffffffffffffffffffffffffffffffffffff168373ffffffffffffffffffffffffffffffffffffffff167f17307eab39ab6107e8899845ad3d59bd9653f200f220920489ca2b5937696c318360405161164d91906130eb565b60405180910390a3505050565b600073ffffffffffffffffffffffffffffffffffffffff168473ffffffffffffffffffffffffffffffffffffffff1614156116ca576040517f08c379a00000000000000000000000000000000000000000000000000000000081526004016116c1906131c8565b60405180910390fd5b60006116d4610de6565b905060008573ffffffffffffffffffffffffffffffffffffffff169050600080600087815260200190815260200160002060008973ffffffffffffffffffffffffffffffffffffffff1673ffffffffffffffffffffffffffffffffffffffff16815260200190815260200160002054141561183157600160008087815260200190815260200160002060008973ffffffffffffffffffffffffffffffffffffffff1673ffffffffffffffffffffffffffffffffffffffff16815260200190815260200160002060008282546117a9919061347c565b925050819055508673ffffffffffffffffffffffffffffffffffffffff16600073ffffffffffffffffffffffffffffffffffffffff168373ffffffffffffffffffffffffffffffffffffffff167fc3d58168c5ae7397731d063d5bbf3d657854427343f4c083240f7aacaa2d0f628860016040516118289291906132e3565b60405180910390a45b600080600083815260200190815260200160002060008873ffffffffffffffffffffffffffffffffffffffff1673ffffffffffffffffffffffffffffffffffffffff16815260200190815260200160002054141561197157600160008083815260200190815260200160002060008873ffffffffffffffffffffffffffffffffffffffff1673ffffffffffffffffffffffffffffffffffffffff16815260200190815260200160002060008282546118e9919061347c565b925050819055508573ffffffffffffffffffffffffffffffffffffffff16600073ffffffffffffffffffffffffffffffffffffffff168373ffffffffffffffffffffffffffffffffffffffff167fc3d58168c5ae7397731d063d5bbf3d657854427343f4c083240f7aacaa2d0f628460016040516119689291906132e3565b60405180910390a45b61198f82888861198089611fec565b61198989611fec565b88611def565b600080600087815260200190815260200160002060008973ffffffffffffffffffffffffffffffffffffffff1673ffffffffffffffffffffffffffffffffffffffff16815260200190815260200160002054905060016002826119f291906136e8565b14611a32576040517f08c379a0000000000000000000000000000000000000000000000000000000008152600401611a2990613208565b60405180910390fd5b600160008088815260200190815260200160002060008a73ffffffffffffffffffffffffffffffffffffffff1673ffffffffffffffffffffffffffffffffffffffff16815260200190815260200160002060008282540192505081905550600160008088815260200190815260200160002060008973ffffffffffffffffffffffffffffffffffffffff1673ffffffffffffffffffffffffffffffffffffffff1681526020019081526020016000206000828254611af0919061347c565b925050819055508673ffffffffffffffffffffffffffffffffffffffff168873ffffffffffffffffffffffffffffffffffffffff168473ffffffffffffffffffffffffffffffffffffffff167fc3d58168c5ae7397731d063d5bbf3d657854427343f4c083240f7aacaa2d0f62896001604051611b6e9291906132e3565b60405180910390a4611b85838989896001896120b2565b5050505050505050565b6000604077ffffffffffffffff0000000000000000000000000000000060001b836fffffffffffffffffffffffffffffffff191616901c7fffffffffffffffff00000000000000000000000000000000000000000000000060001b836fffffffffffffffffffffffffffffffff19161617905060207bffffffff000000000000000000000000ffffffff000000000000000060001b8216901c7fffffffff000000000000000000000000ffffffff00000000000000000000000060001b821617905060107dffff000000000000ffff000000000000ffff000000000000ffff0000000060001b8216901c7fffff000000000000ffff000000000000ffff000000000000ffff00000000000060001b821617905060087eff000000ff000000ff000000ff000000ff000000ff000000ff000000ff000060001b8216901c7fff000000ff000000ff000000ff000000ff000000ff000000ff000000ff00000060001b821617905060087f0f000f000f000f000f000f000f000f000f000f000f000f000f000f000f000f0060001b8216901c60047ff000f000f000f000f000f000f000f000f000f000f000f000f000f000f000f00060001b8316901c17905060277f0f0f0f0f0f0f0f0f0f0f0f0f0f0f0f0f0f0f0f0f0f0f0f0f0f0f0f0f0f0f0f0f60047f06060606060606060606060606060606060606060606060606060606060606068460001c611d9f919061347c565b901c16611dac91906134d2565b8160001c7f3030303030303030303030303030303030303030303030303030303030303030611ddb919061347c565b611de5919061347c565b60001b9050919050565b611dfd868686868686612299565b505050505050565b611e248473ffffffffffffffffffffffffffffffffffffffff166124ab565b15611fe4578373ffffffffffffffffffffffffffffffffffffffff1663bc197c8187878686866040518663ffffffff1660e01b8152600401611e6a959493929190612fd0565b602060405180830381600087803b158015611e8457600080fd5b505af1925050508015611eb557506040513d601f19601f82011682018060405250810190611eb29190612a9e565b60015b611f5b57611ec16137d5565b806308c379a01415611f1e5750611ed6613c44565b80611ee15750611f20565b806040517f08c379a0000000000000000000000000000000000000000000000000000000008152600401611f159190613106565b60405180910390fd5b505b6040517f08c379a0000000000000000000000000000000000000000000000000000000008152600401611f5290613128565b60405180910390fd5b63bc197c8160e01b7bffffffffffffffffffffffffffffffffffffffffffffffffffffffff1916817bffffffffffffffffffffffffffffffffffffffffffffffffffffffff191614611fe2576040517f08c379a0000000000000000000000000000000000000000000000000000000008152600401611fd990613148565b60405180910390fd5b505b505050505050565b60606000600167ffffffffffffffff811115612031577f4e487b7100000000000000000000000000000000000000000000000000000000600052604160045260246000fd5b60405190808252806020026020018201604052801561205f5781602001602082028036833780820191505090505b509050828160008151811061209d577f4e487b7100000000000000000000000000000000000000000000000000000000600052603260045260246000fd5b60200260200101818152505080915050919050565b6120d18473ffffffffffffffffffffffffffffffffffffffff166124ab565b15612291578373ffffffffffffffffffffffffffffffffffffffff1663f23a6e6187878686866040518663ffffffff1660e01b8152600401612117959493929190613038565b602060405180830381600087803b15801561213157600080fd5b505af192505050801561216257506040513d601f19601f8201168201806040525081019061215f9190612a9e565b60015b6122085761216e6137d5565b806308c379a014156121cb5750612183613c44565b8061218e57506121cd565b806040517f08c379a00000000000000000000000000000000000000000000000000000000081526004016121c29190613106565b60405180910390fd5b505b6040517f08c379a00000000000000000000000000000000000000000000000000000000081526004016121ff90613128565b60405180910390fd5b63f23a6e6160e01b7bffffffffffffffffffffffffffffffffffffffffffffffffffffffff1916817bffffffffffffffffffffffffffffffffffffffffffffffffffffffff19161461228f576040517f08c379a000000000000000000000000000000000000000000000000000000000815260040161228690613148565b60405180910390fd5b505b505050505050565b6122a78686868686866124ce565b600073ffffffffffffffffffffffffffffffffffffffff168573ffffffffffffffffffffffffffffffffffffffff1614156123a55760005b83518110156123a357828181518110612321577f4e487b7100000000000000000000000000000000000000000000000000000000600052603260045260246000fd5b602002602001015160046000868481518110612366577f4e487b7100000000000000000000000000000000000000000000000000000000600052603260045260246000fd5b60200260200101518152602001908152602001600020600082825461238b919061347c565b925050819055508061239c90613695565b90506122df565b505b600073ffffffffffffffffffffffffffffffffffffffff168473ffffffffffffffffffffffffffffffffffffffff1614156124a35760005b83518110156124a15782818151811061241f577f4e487b7100000000000000000000000000000000000000000000000000000000600052603260045260246000fd5b602002602001015160046000868481518110612464577f4e487b7100000000000000000000000000000000000000000000000000000000600052603260045260246000fd5b602002602001015181526020019081526020016000206000828254612489919061352c565b925050819055508061249a90613695565b90506123dd565b505b505050505050565b6000808273ffffffffffffffffffffffffffffffffffffffff163b119050919050565b505050505050565b8280546124e290613632565b90600052602060002090601f016020900481019282612504576000855561254b565b82601f1061251d57805160ff191683800117855561254b565b8280016001018555821561254b579182015b8281111561254a57825182559160200191906001019061252f565b5b509050612558919061255c565b5090565b5b8082111561257557600081600090555060010161255d565b5090565b600061258c61258784613331565b61330c565b905080838252602082019050828560208602820111156125ab57600080fd5b60005b858110156125db57816125c188826126cd565b8452602084019350602083019250506001810190506125ae565b5050509392505050565b60006125f86125f38461335d565b61330c565b9050808382526020820190508285602086028201111561261757600080fd5b60005b85811015612647578161262d88826127c9565b84526020840193506020830192505060018101905061261a565b5050509392505050565b600061266461265f84613389565b61330c565b90508281526020810184848401111561267c57600080fd5b6126878482856135f0565b509392505050565b60006126a261269d846133ba565b61330c565b9050828152602081018484840111156126ba57600080fd5b6126c58482856135f0565b509392505050565b6000813590506126dc81613cda565b92915050565b600082601f8301126126f357600080fd5b8135612703848260208601612579565b91505092915050565b600082601f83011261271d57600080fd5b813561272d8482602086016125e5565b91505092915050565b60008135905061274581613cf1565b92915050565b60008135905061275a81613d08565b92915050565b60008151905061276f81613d08565b92915050565b600082601f83011261278657600080fd5b8135612796848260208601612651565b91505092915050565b600082601f8301126127b057600080fd5b81356127c084826020860161268f565b91505092915050565b6000813590506127d881613d1f565b92915050565b6000602082840312156127f057600080fd5b60006127fe848285016126cd565b91505092915050565b6000806040838503121561281a57600080fd5b6000612828858286016126cd565b9250506020612839858286016126cd565b9150509250929050565b600080600080600060a0868803121561285b57600080fd5b6000612869888289016126cd565b955050602061287a888289016126cd565b945050604086013567ffffffffffffffff81111561289757600080fd5b6128a38882890161270c565b935050606086013567ffffffffffffffff8111156128c057600080fd5b6128cc8882890161270c565b925050608086013567ffffffffffffffff8111156128e957600080fd5b6128f588828901612775565b9150509295509295909350565b600080600080600060a0868803121561291a57600080fd5b6000612928888289016126cd565b9550506020612939888289016126cd565b945050604061294a888289016127c9565b935050606061295b888289016127c9565b925050608086013567ffffffffffffffff81111561297857600080fd5b61298488828901612775565b9150509295509295909350565b600080604083850312156129a457600080fd5b60006129b2858286016126cd565b92505060206129c385828601612736565b9150509250929050565b600080604083850312156129e057600080fd5b60006129ee858286016126cd565b92505060206129ff858286016127c9565b9150509250929050565b60008060408385031215612a1c57600080fd5b600083013567ffffffffffffffff811115612a3657600080fd5b612a42858286016126e2565b925050602083013567ffffffffffffffff811115612a5f57600080fd5b612a6b8582860161270c565b9150509250929050565b600060208284031215612a8757600080fd5b6000612a958482850161274b565b91505092915050565b600060208284031215612ab057600080fd5b6000612abe84828501612760565b91505092915050565b600060208284031215612ad957600080fd5b600082013567ffffffffffffffff811115612af357600080fd5b612aff8482850161279f565b91505092915050565b600060208284031215612b1a57600080fd5b6000612b28848285016127c9565b91505092915050565b6000612b3d8383612f1a565b60208301905092915050565b612b5281613560565b82525050565b6000612b6382613410565b612b6d818561343e565b9350612b78836133eb565b8060005b83811015612ba9578151612b908882612b31565b9750612b9b83613431565b925050600181019050612b7c565b5085935050505092915050565b612bbf81613572565b82525050565b612bd6612bd18261357e565b6136de565b82525050565b6000612be78261341b565b612bf1818561344f565b9350612c018185602086016135ff565b612c0a816137f7565b840191505092915050565b612c1e816135de565b82525050565b6000612c2f82613426565b612c398185613460565b9350612c498185602086016135ff565b612c52816137f7565b840191505092915050565b6000612c6882613426565b612c728185613471565b9350612c828185602086016135ff565b80840191505092915050565b60008154612c9b81613632565b612ca58186613471565b94506001821660008114612cc05760018114612cd157612d04565b60ff19831686528186019350612d04565b612cda856133fb565b60005b83811015612cfc57815481890152600182019150602081019050612cdd565b838801955050505b50505092915050565b6000612d1a603483613460565b9150612d2582613815565b604082019050919050565b6000612d3d602883613460565b9150612d4882613864565b604082019050919050565b6000612d60600d83613471565b9150612d6b826138b3565b600d82019050919050565b6000612d83602b83613460565b9150612d8e826138dc565b604082019050919050565b6000612da6602683613460565b9150612db18261392b565b604082019050919050565b6000612dc9602983613460565b9150612dd48261397a565b604082019050919050565b6000612dec602583613460565b9150612df7826139c9565b604082019050919050565b6000612e0f603283613460565b9150612e1a82613a18565b604082019050919050565b6000612e32602a83613460565b9150612e3d82613a67565b604082019050919050565b6000612e55600583613471565b9150612e6082613ab6565b600582019050919050565b6000612e78602083613460565b9150612e8382613adf565b602082019050919050565b6000612e9b603083613460565b9150612ea682613b08565b604082019050919050565b6000612ebe602983613460565b9150612ec982613b57565b604082019050919050565b6000612ee1602983613460565b9150612eec82613ba6565b604082019050919050565b6000612f04602883613460565b9150612f0f82613bf5565b604082019050919050565b612f23816135d4565b82525050565b612f32816135d4565b82525050565b6000612f448285612bc5565b602082019150612f548284612bc5565b6020820191508190509392505050565b6000612f708285612c8e565b9150612f7c8284612c5d565b9150612f8782612e48565b91508190509392505050565b6000612f9f8284612c8e565b9150612faa82612d53565b915081905092915050565b6000602082019050612fca6000830184612b49565b92915050565b600060a082019050612fe56000830188612b49565b612ff26020830187612b49565b81810360408301526130048186612b58565b905081810360608301526130188185612b58565b9050818103608083015261302c8184612bdc565b90509695505050505050565b600060a08201905061304d6000830188612b49565b61305a6020830187612b49565b6130676040830186612f29565b6130746060830185612f29565b81810360808301526130868184612bdc565b90509695505050505050565b600060208201905081810360008301526130ac8184612b58565b905092915050565b600060408201905081810360008301526130ce8185612b58565b905081810360208301526130e28184612b58565b90509392505050565b60006020820190506131006000830184612bb6565b92915050565b600060208201905081810360008301526131208184612c24565b905092915050565b6000602082019050818103600083015261314181612d0d565b9050919050565b6000602082019050818103600083015261316181612d30565b9050919050565b6000602082019050818103600083015261318181612d76565b9050919050565b600060208201905081810360008301526131a181612d99565b9050919050565b600060208201905081810360008301526131c181612dbc565b9050919050565b600060208201905081810360008301526131e181612ddf565b9050919050565b6000602082019050818103600083015261320181612e02565b9050919050565b6000602082019050818103600083015261322181612e25565b9050919050565b6000602082019050818103600083015261324181612e6b565b9050919050565b6000602082019050818103600083015261326181612e8e565b9050919050565b6000602082019050818103600083015261328181612eb1565b9050919050565b600060208201905081810360008301526132a181612ed4565b9050919050565b600060208201905081810360008301526132c181612ef7565b9050919050565b60006020820190506132dd6000830184612f29565b92915050565b60006040820190506132f86000830185612f29565b6133056020830184612c15565b9392505050565b6000613316613327565b90506133228282613664565b919050565b6000604051905090565b600067ffffffffffffffff82111561334c5761334b6137a6565b5b602082029050602081019050919050565b600067ffffffffffffffff821115613378576133776137a6565b5b602082029050602081019050919050565b600067ffffffffffffffff8211156133a4576133a36137a6565b5b6133ad826137f7565b9050602081019050919050565b600067ffffffffffffffff8211156133d5576133d46137a6565b5b6133de826137f7565b9050602081019050919050565b6000819050602082019050919050565b60008190508160005260206000209050919050565b600081519050919050565b600081519050919050565b600081519050919050565b6000602082019050919050565b600082825260208201905092915050565b600082825260208201905092915050565b600082825260208201905092915050565b600081905092915050565b6000613487826135d4565b9150613492836135d4565b9250827fffffffffffffffffffffffffffffffffffffffffffffffffffffffffffffffff038211156134c7576134c6613719565b5b828201905092915050565b60006134dd826135d4565b91506134e8836135d4565b9250817fffffffffffffffffffffffffffffffffffffffffffffffffffffffffffffffff048311821515161561352157613520613719565b5b828202905092915050565b6000613537826135d4565b9150613542836135d4565b92508282101561355557613554613719565b5b828203905092915050565b600061356b826135b4565b9050919050565b60008115159050919050565b6000819050919050565b60007fffffffff0000000000000000000000000000000000000000000000000000000082169050919050565b600073ffffffffffffffffffffffffffffffffffffffff82169050919050565b6000819050919050565b60006135e9826135d4565b9050919050565b82818337600083830152505050565b60005b8381101561361d578082015181840152602081019050613602565b8381111561362c576000848401525b50505050565b6000600282049050600182168061364a57607f821691505b6020821081141561365e5761365d613777565b5b50919050565b61366d826137f7565b810181811067ffffffffffffffff8211171561368c5761368b6137a6565b5b80604052505050565b60006136a0826135d4565b91507fffffffffffffffffffffffffffffffffffffffffffffffffffffffffffffffff8214156136d3576136d2613719565b5b600182019050919050565b6000819050919050565b60006136f3826135d4565b91506136fe836135d4565b92508261370e5761370d613748565b5b828206905092915050565b7f4e487b7100000000000000000000000000000000000000000000000000000000600052601160045260246000fd5b7f4e487b7100000000000000000000000000000000000000000000000000000000600052601260045260246000fd5b7f4e487b7100000000000000000000000000000000000000000000000000000000600052602260045260246000fd5b7f4e487b7100000000000000000000000000000000000000000000000000000000600052604160045260246000fd5b600060033d11156137f45760046000803e6137f1600051613808565b90505b90565b6000601f19601f8301169050919050565b60008160e01c9050919050565b7f455243313135353a207472616e7366657220746f206e6f6e204552433131353560008201527f526563656976657220696d706c656d656e746572000000000000000000000000602082015250565b7f455243313135353a204552433131353552656365697665722072656a6563746560008201527f6420746f6b656e73000000000000000000000000000000000000000000000000602082015250565b7f636f6e74726163742e6a736f6e00000000000000000000000000000000000000600082015250565b7f455243313135353a2062616c616e636520717565727920666f7220746865207a60008201527f65726f2061646472657373000000000000000000000000000000000000000000602082015250565b7f4f776e61626c653a206e6577206f776e657220697320746865207a65726f206160008201527f6464726573730000000000000000000000000000000000000000000000000000602082015250565b7f455243313135353a2063616c6c6572206973206e6f74206f776e6572206e6f7260008201527f20617070726f7665640000000000000000000000000000000000000000000000602082015250565b7f455243313135353a207472616e7366657220746f20746865207a65726f20616460008201527f6472657373000000000000000000000000000000000000000000000000000000602082015250565b7f455243313135353a207472616e736665722063616c6c6572206973206e6f742060008201527f6f776e6572206e6f7220617070726f7665640000000000000000000000000000602082015250565b7f455243313135353a20696e73756666696369656e742062616c616e636520666f60008201527f72207472616e7366657200000000000000000000000000000000000000000000602082015250565b7f2e6a736f6e000000000000000000000000000000000000000000000000000000600082015250565b7f4f776e61626c653a2063616c6c6572206973206e6f7420746865206f776e6572600082015250565b7f455243313135353a20696e73756666696369656e742062616c616e636520666f60008201527f72207472616e7366657220626174636800000000000000000000000000000000602082015250565b7f455243313135353a2073657474696e6720617070726f76616c2073746174757360008201527f20666f722073656c660000000000000000000000000000000000000000000000602082015250565b7f455243313135353a206163636f756e747320616e6420696473206c656e67746860008201527f206d69736d617463680000000000000000000000000000000000000000000000602082015250565b7f455243313135353a2069647320616e6420616d6f756e7473206c656e6774682060008201527f6d69736d61746368000000000000000000000000000000000000000000000000602082015250565b600060443d1015613c5457613cd7565b613c5c613327565b60043d036004823e80513d602482011167ffffffffffffffff82111715613c84575050613cd7565b808201805167ffffffffffffffff811115613ca25750505050613cd7565b80602083010160043d038501811115613cbf575050505050613cd7565b613cce82602001850186613664565b82955050505050505b90565b613ce381613560565b8114613cee57600080fd5b50565b613cfa81613572565b8114613d0557600080fd5b50565b613d1181613588565b8114613d1c57600080fd5b50565b613d28816135d4565b8114613d3357600080fd5b5056fea2646970667358221220830184605cd951f7517c8f838cf72b276a18e5bd960110029ab1fb8939e2a87864736f6c6343000804003368747470733a2f2f6f7274686f76657273652e696f2f6170692f6d657461646174612f",
  "linkReferences": {},
  "deployedLinkReferences": {}
}